{
    "_format": "hh-sol-artifact-1",
    "contractName": "ERC1155Instance",
    "sourceName": "contracts/VoteTokens/ERC1155Instance.sol",
    "abi": [
        {
            "anonymous": false,
            "inputs": [
                {
                    "indexed": true,
                    "internalType": "address",
                    "name": "account",
                    "type": "address"
                },
                {
                    "indexed": true,
                    "internalType": "address",
                    "name": "operator",
                    "type": "address"
                },
                {
                    "indexed": false,
                    "internalType": "bool",
                    "name": "approved",
                    "type": "bool"
                }
            ],
            "name": "ApprovalForAll",
            "type": "event"
        },
        {
            "anonymous": false,
            "inputs": [
                {
                    "indexed": false,
                    "internalType": "uint8",
                    "name": "version",
                    "type": "uint8"
                }
            ],
            "name": "Initialized",
            "type": "event"
        },
        {
            "anonymous": false,
            "inputs": [
                {
                    "indexed": true,
                    "internalType": "address",
                    "name": "operator",
                    "type": "address"
                },
                {
                    "indexed": true,
                    "internalType": "address",
                    "name": "from",
                    "type": "address"
                },
                {
                    "indexed": true,
                    "internalType": "address",
                    "name": "to",
                    "type": "address"
                },
                {
                    "indexed": false,
                    "internalType": "uint256[]",
                    "name": "ids",
                    "type": "uint256[]"
                },
                {
                    "indexed": false,
                    "internalType": "uint256[]",
                    "name": "values",
                    "type": "uint256[]"
                }
            ],
            "name": "TransferBatch",
            "type": "event"
        },
        {
            "anonymous": false,
            "inputs": [
                {
                    "indexed": true,
                    "internalType": "address",
                    "name": "operator",
                    "type": "address"
                },
                {
                    "indexed": true,
                    "internalType": "address",
                    "name": "from",
                    "type": "address"
                },
                {
                    "indexed": true,
                    "internalType": "address",
                    "name": "to",
                    "type": "address"
                },
                {
                    "indexed": false,
                    "internalType": "uint256",
                    "name": "id",
                    "type": "uint256"
                },
                {
                    "indexed": false,
                    "internalType": "uint256",
                    "name": "value",
                    "type": "uint256"
                }
            ],
            "name": "TransferSingle",
            "type": "event"
        },
        {
            "anonymous": false,
            "inputs": [
                {
                    "indexed": false,
                    "internalType": "string",
                    "name": "value",
                    "type": "string"
                },
                {
                    "indexed": true,
                    "internalType": "uint256",
                    "name": "id",
                    "type": "uint256"
                }
            ],
            "name": "URI",
            "type": "event"
        },
        {
            "inputs": [
                {
                    "internalType": "address",
                    "name": "account",
                    "type": "address"
                },
                {
                    "internalType": "uint256",
                    "name": "id",
                    "type": "uint256"
                }
            ],
            "name": "balanceOf",
            "outputs": [
                {
                    "internalType": "uint256",
                    "name": "",
                    "type": "uint256"
                }
            ],
            "stateMutability": "view",
            "type": "function"
        },
        {
            "inputs": [
                {
                    "internalType": "address[]",
                    "name": "accounts",
                    "type": "address[]"
                },
                {
                    "internalType": "uint256[]",
                    "name": "ids",
                    "type": "uint256[]"
                }
            ],
            "name": "balanceOfBatch",
            "outputs": [
                {
                    "internalType": "uint256[]",
                    "name": "",
                    "type": "uint256[]"
                }
            ],
            "stateMutability": "view",
            "type": "function"
        },
        {
            "inputs": [
                {
                    "internalType": "address",
                    "name": "account",
                    "type": "address"
                },
                {
                    "internalType": "address",
                    "name": "operator",
                    "type": "address"
                }
            ],
            "name": "isApprovedForAll",
            "outputs": [
                {
                    "internalType": "bool",
                    "name": "",
                    "type": "bool"
                }
            ],
            "stateMutability": "view",
            "type": "function"
        },
        {
            "inputs": [
                {
                    "internalType": "address",
                    "name": "to",
                    "type": "address"
                },
                {
                    "internalType": "uint256",
                    "name": "id",
                    "type": "uint256"
                },
                {
                    "internalType": "uint256",
                    "name": "amount",
                    "type": "uint256"
                },
                {
                    "internalType": "bytes",
                    "name": "data",
                    "type": "bytes"
                }
            ],
            "name": "mint",
            "outputs": [],
            "stateMutability": "nonpayable",
            "type": "function"
        },
        {
            "inputs": [
                {
                    "internalType": "address",
                    "name": "to",
                    "type": "address"
                },
                {
                    "internalType": "uint256",
                    "name": "id",
                    "type": "uint256"
                },
                {
                    "internalType": "uint256",
                    "name": "amount",
                    "type": "uint256"
                }
            ],
            "name": "mint2",
            "outputs": [],
            "stateMutability": "nonpayable",
            "type": "function"
        },
        {
            "inputs": [
                {
                    "internalType": "address",
                    "name": "from",
                    "type": "address"
                },
                {
                    "internalType": "address",
                    "name": "to",
                    "type": "address"
                },
                {
                    "internalType": "uint256[]",
                    "name": "ids",
                    "type": "uint256[]"
                },
                {
                    "internalType": "uint256[]",
                    "name": "amounts",
                    "type": "uint256[]"
                },
                {
                    "internalType": "bytes",
                    "name": "data",
                    "type": "bytes"
                }
            ],
            "name": "safeBatchTransferFrom",
            "outputs": [],
            "stateMutability": "nonpayable",
            "type": "function"
        },
        {
            "inputs": [
                {
                    "internalType": "address",
                    "name": "from",
                    "type": "address"
                },
                {
                    "internalType": "address",
                    "name": "to",
                    "type": "address"
                },
                {
                    "internalType": "uint256",
                    "name": "id",
                    "type": "uint256"
                },
                {
                    "internalType": "uint256",
                    "name": "amount",
                    "type": "uint256"
                },
                {
                    "internalType": "bytes",
                    "name": "data",
                    "type": "bytes"
                }
            ],
            "name": "safeTransferFrom",
            "outputs": [],
            "stateMutability": "nonpayable",
            "type": "function"
        },
        {
            "inputs": [
                {
                    "internalType": "address",
                    "name": "operator",
                    "type": "address"
                },
                {
                    "internalType": "bool",
                    "name": "approved",
                    "type": "bool"
                }
            ],
            "name": "setApprovalForAll",
            "outputs": [],
            "stateMutability": "nonpayable",
            "type": "function"
        },
        {
            "inputs": [
                {
                    "internalType": "bytes4",
                    "name": "interfaceId",
                    "type": "bytes4"
                }
            ],
            "name": "supportsInterface",
            "outputs": [
                {
                    "internalType": "bool",
                    "name": "",
                    "type": "bool"
                }
            ],
            "stateMutability": "view",
            "type": "function"
        },
        {
            "inputs": [
                {
                    "internalType": "uint256",
                    "name": "",
                    "type": "uint256"
                }
            ],
            "name": "uri",
            "outputs": [
                {
                    "internalType": "string",
                    "name": "",
                    "type": "string"
                }
            ],
            "stateMutability": "view",
            "type": "function"
        }
    ],
    "bytecode": "0x60806040523461001a576040516115e361002082396115e390f35b600080fdfe6080604052600436101561001257600080fd5b60003560e01c8062fdd58e146100b157806301ffc9a7146100ac5780630e89341c146100a75780632eb2c2d6146100a25780634e1273f41461009d578063731133e914610098578063985965e714610093578063a22cb4651461008e578063e985e9c5146100895763f242432a036100d757610708565b6106ab565b61066f565b61061e565b6105d2565b61055a565b610421565b610230565b610182565b610121565b6001600160a01b031690565b90565b6001600160a01b0381165b036100d757565b600080fd5b905035906100e9826100c5565b565b806100d0565b905035906100e9826100eb565b91906040838203126100d7576100c29061011881856100dc565b936020016100f1565b346100d75761014d61013d6101373660046100fe565b9061096f565b6040519182918290815260200190565b0390f35b6001600160e01b031981166100d0565b905035906100e982610151565b906020828203126100d7576100c291610161565b346100d75761014d61019d61019836600461016e565b610724565b6040515b91829182901515815260200190565b906020828203126100d7576100c2916100f1565b60005b8381106101d75750506000910152565b81810151838201526020016101c7565b61020861021160209361021b936101fc815190565b80835293849260200190565b958691016101c4565b601f01601f191690565b0190565b60208082526100c2929101906101e7565b346100d75761014d61024b6102463660046101b0565b610885565b6040519182918261021f565b634e487b7160e01b600052604160045260246000fd5b90601f01601f1916810190811067ffffffffffffffff82111761028f57604052565b610257565b906100e96102a160405190565b928361026d565b67ffffffffffffffff811161028f5760208091020190565b909291926102d56102d0826102a8565b610294565b93818552602080860192028301928184116100d757915b8383106102f95750505050565b6020809161030784866100f1565b8152019201916102ec565b9080601f830112156100d7578160206100c2933591016102c0565b67ffffffffffffffff811161028f57602090601f01601f19160190565b90826000939282370152565b909291926103666102d08261032d565b938185526020850190828401116100d7576100e99261034a565b9080601f830112156100d7578160206100c293359101610356565b91909160a0818403126100d7576103b283826100dc565b926103c081602084016100dc565b92604083013567ffffffffffffffff81116100d757826103e1918501610312565b92606081013567ffffffffffffffff81116100d75783610402918301610312565b92608082013567ffffffffffffffff81116100d7576100c29201610380565b346100d75761043d61043436600461039b565b93929092610c25565b604051005b909291926104526102d0826102a8565b93818552602080860192028301928184116100d757915b8383106104765750505050565b6020809161048484866100dc565b815201920191610469565b9080601f830112156100d7578160206100c293359101610442565b9190916040818403126100d757803567ffffffffffffffff81116100d757836104d491830161048f565b92602082013567ffffffffffffffff81116100d7576100c29201610312565b9061051361050c610502845190565b8084529260200190565b9260200190565b9060005b8181106105245750505090565b90919261054161053a6001928651815260200190565b9460200190565b929101610517565b60208082526100c2929101906104f3565b346100d75761014d6105766105703660046104aa565b90610aac565b60405191829182610549565b906080828203126100d75761059781836100dc565b926105a582602085016100f1565b926105b383604083016100f1565b92606082013567ffffffffffffffff81116100d7576100c29201610380565b346100d75761043d6105e5366004610582565b92919091610fed565b90916060828403126100d7576100c261060784846100dc565b9361061581602086016100f1565b936040016100f1565b346100d75761043d6106313660046105ee565b9161101c565b8015156100d0565b905035906100e982610637565b91906040838203126100d7576100c29061066681856100dc565b9360200161063f565b346100d75761043d61068236600461064c565b90610b4f565b91906040838203126100d7576100c2906106a281856100dc565b936020016100dc565b346100d75761014d61019d6106c1366004610688565b90610b5a565b91909160a0818403126100d7576106de83826100dc565b926106ec81602084016100dc565b926106fa82604085016100f1565b9261040283606083016100f1565b346100d75761043d61071b3660046106c7565b93929092610bdf565b636cdb3d1360e11b6001600160e01b0319821614908115610754575b811561074a575090565b6100c2915061076f565b6001600160e01b031981166303a24d0760e21b149150610740565b6107896301ffc9a760e01b5b916001600160e01b03191690565b1490565b634e487b7160e01b600052602260045260246000fd5b90600160028304921680156107c3575b60208310146107be57565b61078d565b91607f16916107b3565b805460009392916107ea6107e0836107a3565b8085529360200190565b916001811690811561083c575060011461080357505050565b6108169192939450600052602060002090565b916000925b8184106108285750500190565b80548484015260209093019260010161081b565b92949550505060ff1916825215156020020190565b906100c2916107cd565b906100e96108759261086c60405190565b93848092610851565b038361026d565b6100c29061085b565b506100c2606761087c565b6100b66100c26100c29290565b6100c290610890565b156108ad57565b60405162461bcd60e51b815260206004820152602a60248201527f455243313135353a2061646472657373207a65726f206973206e6f742061207660448201526930b634b21037bbb732b960b11b6064820152608490fd5b0390fd5b6100c26100c26100c29290565b9061092090610909565b600052602052604060002090565b6100c2906100b6906001600160a01b031682565b6100c29061092e565b6100c290610942565b906109209061094b565b6100c29081565b6100c2905461095e565b6109b0906109ab6100c293610982600090565b506109a46109936100b6600061089d565b6001600160a01b03851614156108a6565b6065610916565b610954565b610965565b156109bc57565b60405162461bcd60e51b815260206004820152602960248201527f455243313135353a206163636f756e747320616e6420696473206c656e677468604482015268040dad2e6dac2e8c6d60bb1b6064820152608490fd5b90610a206102d0836102a8565b918252565b369037565b906100e9610a40610a3a84610a13565b936102a8565b601f190160208401610a25565b634e487b7160e01b600052601160045260246000fd5b6000198114610a725760010190565b610a4d565b634e487b7160e01b600052603260045260246000fd5b90610a96825190565b811015610aa7576020809102010190565b610a77565b90610ad0610ab8835190565b610aca610ac66100c2855190565b9190565b146109b5565b610ae0610adb835190565b610a2a565b91610aeb6000610909565b610af66100c2835190565b811015610b495780610b3f610b32610b21610b14610b449587610a8d565b516001600160a01b031690565b610137610b2e8589610a8d565b5190565b610b3c8388610a8d565b52565b610a63565b610aeb565b50505090565b6100e9919033611164565b6100c2916109ab610b7592610b6d600090565b506066610954565b5460ff1690565b15610b8357565b60405162461bcd60e51b815260206004820152602e60248201527f455243313135353a2063616c6c6572206973206e6f7420746f6b656e206f776e60448201526d195c881bdc88185c1c1c9bdd995960921b6064820152608490fd5b6100e99493929190610c0f335b6001600160a01b0381166001600160a01b03841614908115610c14575b50610b7c565b610d3f565b610c1f915083610b5a565b38610c09565b6100e99493929190610c3633610bec565b610ec0565b15610c4257565b60405162461bcd60e51b815260206004820152602560248201527f455243313135353a207472616e7366657220746f20746865207a65726f206164604482015264647265737360d81b6064820152608490fd5b15610c9c57565b60405162461bcd60e51b815260206004820152602a60248201527f455243313135353a20696e73756666696369656e742062616c616e636520666f60448201526939103a3930b739b332b960b11b6064820152608490fd5b90600019905b9181191691161790565b90610d146100c2610d1b92610909565b8254610cf4565b9055565b91908201809211610a7257565b9081526040810192916100e99160200152565b906100e994939291610d69610d576100b6600061089d565b6001600160a01b0384165b1415610c3b565b33610d7384611589565b50610d7d85611589565b50610de3610dcb846109ab876065610dc6610db38c610da36109b08c6109ab8888610916565b610daf82821015610c95565b0390565b610dc18a6109ab8686610916565b610d04565b610916565b610ddd87610dd883610965565b610d1f565b90610d04565b7fc3d58168c5ae7397731d063d5bbf3d657854427343f4c083240f7aacaa2d0f62610e0d8261094b565b610e168461094b565b90610e208661094b565b92610e2a60405190565b80610e368b8b83610d2c565b0390a46112e5565b15610e4557565b60405162461bcd60e51b815260206004820152602860248201527f455243313135353a2069647320616e6420616d6f756e7473206c656e677468206044820152670dad2e6dac2e8c6d60c31b6064820152608490fd5b60408082526100c2939192610eb2918401906104f3565b9160208184039101526104f3565b939492919092610ee5610ed1835190565b610edf610ac66100c2875190565b14610e3e565b600095610f06610ef76100b68961089d565b6001600160a01b038716610d62565b610f103397610909565b610f1b6100c2855190565b811015610f895780610b3f88610ddd610f7a8a6109ab8b610f50610b2e89610f4a8f610f849d610b2e91610a8d565b93610a8d565b95610dc6606591610dc1610f6f8a610da36109b0856109ab8a8a610916565b916109ab8686610916565b91610dd883610965565b610f10565b50939095946100e9957f4a39dc06d4c0dbc64b70af90fd698a233a518aa5d07e595d983b8c0526c8f7fb610fbc8261094b565b610fc58461094b565b90610fcf8661094b565b92610fd960405190565b80610fe58b8b83610e9b565b0390a461152e565b906100e9939291611090565b90610a206102d08361032d565b906100e9610a4061101684610ff9565b9361032d565b90916100e99261103461102f6000610909565b611006565b92611090565b1561104157565b60405162461bcd60e51b815260206004820152602160248201527f455243313135353a206d696e7420746f20746865207a65726f206164647265736044820152607360f81b6064820152608490fd5b906100e99392916110a1600061089d565b6110bf6001600160a01b0382166001600160a01b038416141561103a565b336110c984611589565b506110d385611589565b50610de3610dcb846109ab876065610916565b156110ed57565b60405162461bcd60e51b815260206004820152602960248201527f455243313135353a2073657474696e6720617070726f76616c20737461747573604482015268103337b91039b2b63360b91b6064820152608490fd5b9060ff90610cfa565b9061115d6100c2610d1b92151590565b8254611144565b6111826001600160a01b0383166001600160a01b03831614156110e6565b61119a83611195846109ab856066610954565b61114d565b6111da6111d06111ca7f17307eab39ab6107e8899845ad3d59bd9653f200f220920489ca2b5937696c319361094b565b9361094b565b936101a160405190565b0390a3565b905051906100e982610151565b906020828203126100d7576100c2916111df565b91936112436100c2969461123c61124a949761122c60a088019960008901906001600160a01b03169052565b6001600160a01b03166020870152565b6040850152565b6060830152565b60808184039101526101e7565b60009060033d1161126457565b905060046000803e60005160e01c90565b60009060443d106100e95760405160043d036004823e8051903d602483011167ffffffffffffffff8311176112e15781810191825167ffffffffffffffff81116112db5780602085010160043d038401106112db576100c293949550602001019061026d565b50505050565b5050565b909493949291926112f5846114b7565b611302575b505050505050565b600061131761131260209661094b565b61094b565b9261134663f23a6e619761132a60405190565b998a978896879561133b8d60e01b90565b875260048701611200565b03925af160009281611487575b506114165750506001611364611257565b6308c379a0146113e1575b61137f575b3880808080806112fa565b60405162461bcd60e51b815260206004820152603460248201527f455243313135353a207472616e7366657220746f206e6f6e2d455243313135356044820152732932b1b2b4bb32b91034b6b83632b6b2b73a32b960611b6064820152608490fd5b6113e9611275565b806113f4575061136f565b6109059061140160405190565b62461bcd60e51b81529182916004830161021f565b61077b61142c9160e01b63ffffffff60e01b1690565b146113745760405162461bcd60e51b815260206004820152602860248201527f455243313135353a204552433131353552656365697665722072656a656374656044820152676420746f6b656e7360c01b6064820152608490fd5b6114a991935060203d81116114b0575b6114a1818361026d565b8101906111ec565b9138611353565b503d611497565b3b6114c5610ac66000610909565b1190565b9390611512906100c29694611505611520956114f560a08a019460008b01906001600160a01b03169052565b6001600160a01b03166020890152565b86820360408801526104f3565b9084820360608601526104f3565b9160808184039101526101e7565b9094939492919261153e846114b7565b61154a57505050505050565b600061155a61131260209661094b565b9261134663bc197c819761156d60405190565b998a978896879561157e8d60e01b90565b8752600487016114c9565b6100c2611599610adb6001610909565b91610b3c6115a76000610909565b84610a8d56fea2646970667358221220ebdf309bde09eb1a364339a70f5d15bda477f9b7a0c1898f2f9e77cc200eed3264736f6c63430008120033",
    "linkReferences": {},
    "deployedLinkReferences": {}
}