{
  "_format": "hh-sol-artifact-1",
  "contractName": "ERC20VotesStandard",
  "sourceName": "contracts/VoteTokens/ERC20Votes.sol",
  "abi": [
    {
      "anonymous": false,
      "inputs": [
        {
          "indexed": true,
          "internalType": "address",
          "name": "owner",
          "type": "address"
        },
        {
          "indexed": true,
          "internalType": "address",
          "name": "spender",
          "type": "address"
        },
        {
          "indexed": false,
          "internalType": "uint256",
          "name": "value",
          "type": "uint256"
        }
      ],
      "name": "Approval",
      "type": "event"
    },
    {
      "anonymous": false,
      "inputs": [
        {
          "indexed": true,
          "internalType": "address",
          "name": "delegator",
          "type": "address"
        },
        {
          "indexed": true,
          "internalType": "address",
          "name": "fromDelegate",
          "type": "address"
        },
        {
          "indexed": true,
          "internalType": "address",
          "name": "toDelegate",
          "type": "address"
        }
      ],
      "name": "DelegateChanged",
      "type": "event"
    },
    {
      "anonymous": false,
      "inputs": [
        {
          "indexed": true,
          "internalType": "address",
          "name": "delegate",
          "type": "address"
        },
        {
          "indexed": false,
          "internalType": "uint256",
          "name": "previousBalance",
          "type": "uint256"
        },
        {
          "indexed": false,
          "internalType": "uint256",
          "name": "newBalance",
          "type": "uint256"
        }
      ],
      "name": "DelegateVotesChanged",
      "type": "event"
    },
    {
      "anonymous": false,
      "inputs": [
        {
          "indexed": false,
          "internalType": "string",
          "name": "tokenType",
          "type": "string"
        },
        {
          "indexed": false,
          "internalType": "address[]",
          "name": "to",
          "type": "address[]"
        },
        {
          "indexed": false,
          "internalType": "uint256[]",
          "name": "amount",
          "type": "uint256[]"
        }
      ],
      "name": "InitialMint",
      "type": "event"
    },
    {
      "anonymous": false,
      "inputs": [
        {
          "indexed": false,
          "internalType": "uint8",
          "name": "version",
          "type": "uint8"
        }
      ],
      "name": "Initialized",
      "type": "event"
    },
    {
      "anonymous": false,
      "inputs": [
        {
          "indexed": true,
          "internalType": "address",
          "name": "previousOwner",
          "type": "address"
        },
        {
          "indexed": true,
          "internalType": "address",
          "name": "newOwner",
          "type": "address"
        }
      ],
      "name": "OwnershipTransferred",
      "type": "event"
    },
    {
      "anonymous": false,
      "inputs": [
        {
          "indexed": true,
          "internalType": "address",
          "name": "from",
          "type": "address"
        },
        {
          "indexed": true,
          "internalType": "address",
          "name": "to",
          "type": "address"
        },
        {
          "indexed": false,
          "internalType": "uint256",
          "name": "value",
          "type": "uint256"
        }
      ],
      "name": "Transfer",
      "type": "event"
    },
    {
      "inputs": [],
      "name": "DOMAIN_SEPARATOR",
      "outputs": [
        {
          "internalType": "bytes32",
          "name": "",
          "type": "bytes32"
        }
      ],
      "stateMutability": "view",
      "type": "function"
    },
    {
      "inputs": [
        {
          "internalType": "address",
          "name": "owner",
          "type": "address"
        },
        {
          "internalType": "address",
          "name": "spender",
          "type": "address"
        }
      ],
      "name": "allowance",
      "outputs": [
        {
          "internalType": "uint256",
          "name": "",
          "type": "uint256"
        }
      ],
      "stateMutability": "view",
      "type": "function"
    },
    {
      "inputs": [
        {
          "internalType": "address",
          "name": "spender",
          "type": "address"
        },
        {
          "internalType": "uint256",
          "name": "amount",
          "type": "uint256"
        }
      ],
      "name": "approve",
      "outputs": [
        {
          "internalType": "bool",
          "name": "",
          "type": "bool"
        }
      ],
      "stateMutability": "nonpayable",
      "type": "function"
    },
    {
      "inputs": [
        {
          "internalType": "address",
          "name": "account",
          "type": "address"
        }
      ],
      "name": "balanceOf",
      "outputs": [
        {
          "internalType": "uint256",
          "name": "",
          "type": "uint256"
        }
      ],
      "stateMutability": "view",
      "type": "function"
    },
    {
      "inputs": [
        {
          "internalType": "address",
          "name": "account",
          "type": "address"
        },
        {
          "internalType": "uint32",
          "name": "pos",
          "type": "uint32"
        }
      ],
      "name": "checkpoints",
      "outputs": [
        {
          "components": [
            {
              "internalType": "uint32",
              "name": "fromBlock",
              "type": "uint32"
            },
            {
              "internalType": "uint224",
              "name": "votes",
              "type": "uint224"
            }
          ],
          "internalType": "struct ERC20VotesUpgradeable.Checkpoint",
          "name": "",
          "type": "tuple"
        }
      ],
      "stateMutability": "view",
      "type": "function"
    },
    {
      "inputs": [],
      "name": "decimals",
      "outputs": [
        {
          "internalType": "uint8",
          "name": "",
          "type": "uint8"
        }
      ],
      "stateMutability": "view",
      "type": "function"
    },
    {
      "inputs": [
        {
          "internalType": "address",
          "name": "spender",
          "type": "address"
        },
        {
          "internalType": "uint256",
          "name": "subtractedValue",
          "type": "uint256"
        }
      ],
      "name": "decreaseAllowance",
      "outputs": [
        {
          "internalType": "bool",
          "name": "",
          "type": "bool"
        }
      ],
      "stateMutability": "nonpayable",
      "type": "function"
    },
    {
      "inputs": [
        {
          "internalType": "address",
          "name": "delegatee",
          "type": "address"
        }
      ],
      "name": "delegate",
      "outputs": [],
      "stateMutability": "nonpayable",
      "type": "function"
    },
    {
      "inputs": [
        {
          "internalType": "address",
          "name": "delegatee",
          "type": "address"
        },
        {
          "internalType": "uint256",
          "name": "nonce",
          "type": "uint256"
        },
        {
          "internalType": "uint256",
          "name": "expiry",
          "type": "uint256"
        },
        {
          "internalType": "uint8",
          "name": "v",
          "type": "uint8"
        },
        {
          "internalType": "bytes32",
          "name": "r",
          "type": "bytes32"
        },
        {
          "internalType": "bytes32",
          "name": "s",
          "type": "bytes32"
        }
      ],
      "name": "delegateBySig",
      "outputs": [],
      "stateMutability": "nonpayable",
      "type": "function"
    },
    {
      "inputs": [
        {
          "internalType": "address",
          "name": "account",
          "type": "address"
        }
      ],
      "name": "delegates",
      "outputs": [
        {
          "internalType": "address",
          "name": "",
          "type": "address"
        }
      ],
      "stateMutability": "view",
      "type": "function"
    },
    {
      "inputs": [
        {
          "internalType": "uint256",
          "name": "blockNumber",
          "type": "uint256"
        }
      ],
      "name": "getPastTotalSupply",
      "outputs": [
        {
          "internalType": "uint256",
          "name": "",
          "type": "uint256"
        }
      ],
      "stateMutability": "view",
      "type": "function"
    },
    {
      "inputs": [
        {
          "internalType": "address",
          "name": "account",
          "type": "address"
        },
        {
          "internalType": "uint256",
          "name": "blockNumber",
          "type": "uint256"
        }
      ],
      "name": "getPastVotes",
      "outputs": [
        {
          "internalType": "uint256",
          "name": "",
          "type": "uint256"
        }
      ],
      "stateMutability": "view",
      "type": "function"
    },
    {
      "inputs": [
        {
          "internalType": "address",
          "name": "account",
          "type": "address"
        }
      ],
      "name": "getVotes",
      "outputs": [
        {
          "internalType": "uint256",
          "name": "",
          "type": "uint256"
        }
      ],
      "stateMutability": "view",
      "type": "function"
    },
    {
      "inputs": [
        {
          "internalType": "address",
          "name": "spender",
          "type": "address"
        },
        {
          "internalType": "uint256",
          "name": "addedValue",
          "type": "uint256"
        }
      ],
      "name": "increaseAllowance",
      "outputs": [
        {
          "internalType": "bool",
          "name": "",
          "type": "bool"
        }
      ],
      "stateMutability": "nonpayable",
      "type": "function"
    },
    {
      "inputs": [
        {
          "internalType": "address[]",
          "name": "to",
          "type": "address[]"
        },
        {
          "internalType": "uint256[]",
          "name": "amount",
          "type": "uint256[]"
        },
        {
          "internalType": "address",
          "name": "newOwner",
          "type": "address"
        }
      ],
      "name": "initialMint",
      "outputs": [
        {
          "internalType": "bool",
          "name": "",
          "type": "bool"
        }
      ],
      "stateMutability": "nonpayable",
      "type": "function"
    },
    {
      "inputs": [
        {
          "internalType": "string",
          "name": "name",
          "type": "string"
        },
        {
          "internalType": "string",
          "name": "symbol",
          "type": "string"
        }
      ],
      "name": "initialize",
      "outputs": [
        {
          "internalType": "bool",
          "name": "",
          "type": "bool"
        }
      ],
      "stateMutability": "nonpayable",
      "type": "function"
    },
    {
      "inputs": [
        {
          "internalType": "address",
          "name": "to",
          "type": "address"
        },
        {
          "internalType": "uint256",
          "name": "amount",
          "type": "uint256"
        }
      ],
      "name": "mint",
      "outputs": [],
      "stateMutability": "nonpayable",
      "type": "function"
    },
    {
      "inputs": [],
      "name": "name",
      "outputs": [
        {
          "internalType": "string",
          "name": "",
          "type": "string"
        }
      ],
      "stateMutability": "view",
      "type": "function"
    },
    {
      "inputs": [
        {
          "internalType": "address",
          "name": "owner",
          "type": "address"
        }
      ],
      "name": "nonces",
      "outputs": [
        {
          "internalType": "uint256",
          "name": "",
          "type": "uint256"
        }
      ],
      "stateMutability": "view",
      "type": "function"
    },
    {
      "inputs": [
        {
          "internalType": "address",
          "name": "account",
          "type": "address"
        }
      ],
      "name": "numCheckpoints",
      "outputs": [
        {
          "internalType": "uint32",
          "name": "",
          "type": "uint32"
        }
      ],
      "stateMutability": "view",
      "type": "function"
    },
    {
      "inputs": [],
      "name": "owner",
      "outputs": [
        {
          "internalType": "address",
          "name": "",
          "type": "address"
        }
      ],
      "stateMutability": "view",
      "type": "function"
    },
    {
      "inputs": [
        {
          "internalType": "address",
          "name": "owner",
          "type": "address"
        },
        {
          "internalType": "address",
          "name": "spender",
          "type": "address"
        },
        {
          "internalType": "uint256",
          "name": "value",
          "type": "uint256"
        },
        {
          "internalType": "uint256",
          "name": "deadline",
          "type": "uint256"
        },
        {
          "internalType": "uint8",
          "name": "v",
          "type": "uint8"
        },
        {
          "internalType": "bytes32",
          "name": "r",
          "type": "bytes32"
        },
        {
          "internalType": "bytes32",
          "name": "s",
          "type": "bytes32"
        }
      ],
      "name": "permit",
      "outputs": [],
      "stateMutability": "nonpayable",
      "type": "function"
    },
    {
      "inputs": [],
      "name": "renounceOwnership",
      "outputs": [],
      "stateMutability": "nonpayable",
      "type": "function"
    },
    {
      "inputs": [],
      "name": "symbol",
      "outputs": [
        {
          "internalType": "string",
          "name": "",
          "type": "string"
        }
      ],
      "stateMutability": "view",
      "type": "function"
    },
    {
      "inputs": [],
      "name": "totalSupply",
      "outputs": [
        {
          "internalType": "uint256",
          "name": "",
          "type": "uint256"
        }
      ],
      "stateMutability": "view",
      "type": "function"
    },
    {
      "inputs": [
        {
          "internalType": "address",
          "name": "to",
          "type": "address"
        },
        {
          "internalType": "uint256",
          "name": "amount",
          "type": "uint256"
        }
      ],
      "name": "transfer",
      "outputs": [
        {
          "internalType": "bool",
          "name": "",
          "type": "bool"
        }
      ],
      "stateMutability": "nonpayable",
      "type": "function"
    },
    {
      "inputs": [
        {
          "internalType": "address",
          "name": "from",
          "type": "address"
        },
        {
          "internalType": "address",
          "name": "to",
          "type": "address"
        },
        {
          "internalType": "uint256",
          "name": "amount",
          "type": "uint256"
        }
      ],
      "name": "transferFrom",
      "outputs": [
        {
          "internalType": "bool",
          "name": "",
          "type": "bool"
        }
      ],
      "stateMutability": "nonpayable",
      "type": "function"
    },
    {
      "inputs": [
        {
          "internalType": "address",
          "name": "newOwner",
          "type": "address"
        }
      ],
      "name": "transferOwnership",
      "outputs": [],
      "stateMutability": "nonpayable",
      "type": "function"
    }
  ],
  "bytecode": "0x60806040523461001a57604051612fb16100208239612fb190f35b600080fdfe6080604052600436101561001257600080fd5b60003560e01c806306fdde03146101d2578063095ea7b3146101cd57806318160ddd146101c85780631bb2cf87146101c357806323b872dd146101be578063313ce567146101b95780633644e515146101b457806339509351146101af5780633a46b1a8146101aa57806340c10f19146101a55780634cd88b76146101a0578063587cde1e1461019b5780635c19a95c146101965780636fcfff451461019157806370a082311461018c578063715018a6146101875780637ecebe00146101825780638da5cb5b1461017d5780638e539e8c1461017857806395d89b41146101735780639ab24eb01461016e578063a457c2d714610169578063a9059cbb14610164578063c3cda5201461015f578063d505accf1461015a578063dd62ed3e14610155578063f1127ed8146101505763f2fde38b036101e2576108f5565b6108cd565b61084c565b61080a565b610785565b6106f9565b6106dd565b6106c2565b6106a7565b61068c565b610653565b610638565b610620565b610605565b6105d3565b6105bb565b610586565b610553565b6104b7565b61049b565b61047f565b610464565b610435565b610419565b6103ca565b610316565b6102e8565b610256565b60009103126101e257565b600080fd5b60005b8381106101fa5750506000910152565b81810151838201526020016101ea565b61022b61023460209361023e9361021f815190565b80835293849260200190565b958691016101e7565b601f01601f191690565b0190565b60208082526102539291019061020a565b90565b346101e2576102663660046101d7565b61027d610271610c57565b60405191829182610242565b0390f35b6001600160a01b031690565b6001600160a01b0381165b036101e257565b905035906102ac8261028d565b565b80610298565b905035906102ac826102ae565b91906040838203126101e257610253906102db818561029f565b936020016102b4565b9052565b346101e25761027d6103046102fe3660046102c1565b90610d0c565b60405191829182901515815260200190565b346101e2576103263660046101d7565b61027d610331610c99565b6040515b9182918290815260200190565b909182601f830112156101e25781359167ffffffffffffffff83116101e25760200192602083028401116101e257565b6060818303126101e257803567ffffffffffffffff81116101e25782610399918301610342565b929093602083013567ffffffffffffffff81116101e2576103bf83610253928601610342565b93909460400161029f565b346101e25761027d6103046103e0366004610372565b93929092612f31565b90916060828403126101e257610253610402848461029f565b93610410816020860161029f565b936040016102b4565b346101e25761027d61030461042f3660046103e9565b91610d1c565b346101e2576104453660046101d7565b61027d610450610c7e565b6040519182918260ff909116815260200190565b346101e2576104743660046101d7565b61027d610331611cf5565b346101e25761027d6103046104953660046102c1565b90610d55565b346101e25761027d6103316104b13660046102c1565b90611412565b346101e2576104d06104ca3660046102c1565b90612bba565b604051005b909182601f830112156101e25781359167ffffffffffffffff83116101e25760200192600183028401116101e257565b90916040828403126101e257813567ffffffffffffffff81116101e2578361052e9184016104d5565b929093602082013567ffffffffffffffff81116101e25761054f92016104d5565b9091565b346101e25761027d610304610569366004610505565b92919091612800565b906020828203126101e2576102539161029f565b346101e25761027d6105a161059c366004610572565b611307565b604051918291826001600160a01b03909116815260200190565b346101e2576104d06105ce366004610572565b611597565b346101e25761027d6105ee6105e9366004610572565b6112ec565b6040519182918263ffffffff909116815260200190565b346101e25761027d61033161061b366004610572565b610cbb565b346101e2576106303660046101d7565b6104d0610945565b346101e25761027d61033161064e366004610572565b611cd6565b346101e2576106633660046101d7565b61027d6105a160fe546001600160a01b031690565b906020828203126101e257610253916102b4565b346101e25761027d6103316106a2366004610678565b61143e565b346101e2576106b73660046101d7565b61027d610271610c61565b346101e25761027d6103316106d8366004610572565b611357565b346101e25761027d6103046106f33660046102c1565b90610dce565b346101e25761027d61030461070f3660046102c1565b90610cd7565b60ff8116610298565b905035906102ac82610715565b909160c0828403126101e257610741838361029f565b9261074f81602085016102b4565b9261075d82604083016102b4565b9261025361076e846060850161071e565b9361077c81608086016102b4565b9360a0016102b4565b346101e2576104d061079836600461072b565b94939093929192611678565b60e0818303126101e2576107b8828261029f565b926107c6836020840161029f565b926107d481604085016102b4565b926107e282606083016102b4565b926102536107f3846080850161071e565b936108018160a086016102b4565b9360c0016102b4565b346101e2576104d061081d3660046107a4565b95949094939193611c4a565b91906040838203126101e25761025390610843818561029f565b9360200161029f565b346101e25761027d610331610862366004610829565b90610cec565b63ffffffff8116610298565b905035906102ac82610868565b91906040838203126101e2576102539061089b818561029f565b93602001610874565b6040810192916102ac9190805163ffffffff1682526020908101516001600160e01b0316910152565b346101e25761027d6108e96108e3366004610881565b906112c6565b604051918291826108a4565b346101e2576104d0610908366004610572565b610a66565b6109156109a1565b6102ac610933565b6102816102536102539290565b6102539061091d565b6102ac610940600061092a565b610ac5565b6102ac61090d565b1561095457565b60405162461bcd60e51b81528061099d600482016020808252818101527f4f776e61626c653a2063616c6c6572206973206e6f7420746865206f776e6572604082015260600190565b0390fd5b6102ac6109b660fe546001600160a01b031690565b6109cf6109c233610281565b916001600160a01b031690565b1461094d565b6102ac906109e16109a1565b610a41565b156109ed57565b60405162461bcd60e51b815260206004820152602660248201527f4f776e61626c653a206e6577206f776e657220697320746865207a65726f206160448201526564647265737360d01b6064820152608490fd5b6102ac90610940610a55610281600061092a565b6001600160a01b03831614156109e6565b6102ac906109d5565b906001600160a01b03905b9181191691161790565b61025390610281906001600160a01b031682565b61025390610a84565b61025390610a98565b90610aba610253610ac192610aa1565b8254610a6f565b9055565b60fe546001600160a01b031690610add8160fe610aaa565b610b10610b0a7f8be0079c531659141344cd1fd0a4f28419497f9722a3daafe3b4186f6b6457e093610aa1565b91610aa1565b91610b1a60405190565b80805b0390a3565b634e487b7160e01b600052602260045260246000fd5b9060016002830492168015610b58575b6020831014610b5357565b610b22565b91607f1691610b48565b80546000939291610b7f610b7583610b38565b8085529360200190565b9160018116908115610bd15750600114610b9857505050565b610bab9192939450600052602060002090565b916000925b818410610bbd5750500190565b805484840152602090930192600101610bb0565b92949550505060ff1916825215156020020190565b9061025391610b62565b634e487b7160e01b600052604160045260246000fd5b90601f01601f1916810190811067ffffffffffffffff821117610c2857604052565b610bf0565b906102ac610c4792610c3e60405190565b93848092610be6565b0383610c06565b61025390610c2d565b6102536036610c4e565b6102536037610c4e565b610c786102536102539290565b60ff1690565b6102536012610c6b565b6102539081565b6102539054610c88565b6102536035610c8f565b90610cad90610aa1565b600052602052604060002090565b610cd261025391610cca600090565b506033610ca3565b610c8f565b610ce7919033610f2d565b610f2d565b600190565b61025391610d07610cd292610cff600090565b506034610ca3565b610ca3565b610ce79190336110b5565b6110b5565b610ce7929190610ce2833383611193565b634e487b7160e01b600052601160045260246000fd5b91908201809211610d5057565b610d2d565b610ce79190610d6e3392610d698385610cec565b610d43565b916110b5565b15610d7b57565b60405162461bcd60e51b815260206004820152602560248201527f45524332303a2064656372656173656420616c6c6f77616e63652062656c6f77604482015264207a65726f60d81b6064820152608490fd5b610ce79190610d6e3392610de28385610cec565b610dee82821015610d74565b0390565b15610df957565b60405162461bcd60e51b815260206004820152602560248201527f45524332303a207472616e736665722066726f6d20746865207a65726f206164604482015264647265737360d81b6064820152608490fd5b15610e5357565b60405162461bcd60e51b815260206004820152602360248201527f45524332303a207472616e7366657220746f20746865207a65726f206164647260448201526265737360e81b6064820152608490fd5b15610eab57565b60405162461bcd60e51b815260206004820152602660248201527f45524332303a207472616e7366657220616d6f756e7420657863656564732062604482015265616c616e636560d01b6064820152608490fd5b9060001990610a7a565b6102536102536102539290565b90610f26610253610ac192610f09565b8254610eff565b906102ac9291610f72610f61610f43600061092a565b6102816001600160a01b0382166001600160a01b0386161415610df2565b6001600160a01b0384161415610e4c565b610fbd610faa836033610d07610f9b88610f8f610cd28986610ca3565b610dee82821015610ea4565b610fa58784610ca3565b610f16565b610fb78561023e83610c8f565b90610f16565b7fddf252ad1be2c89b69c2b068fc378daa952ba7f163c4a11628f55a4df523b3ef610fe782610aa1565b610ff084610aa1565b91610ffa60405190565b868152602090a3612b80565b1561100d57565b60405162461bcd60e51b8152602060048201526024808201527f45524332303a20617070726f76652066726f6d20746865207a65726f206164646044820152637265737360e01b6064820152608490fd5b1561106557565b60405162461bcd60e51b815260206004820152602260248201527f45524332303a20617070726f766520746f20746865207a65726f206164647265604482015261737360f01b6064820152608490fd5b6110f46110e36110c5600061092a565b6102816001600160a01b0382166001600160a01b0386161415611006565b6001600160a01b038416141561105e565b61110783610fa584610d07856034610ca3565b610b1d61113d6111377f8c5be1e5ebec7d5bd14f71427d1e84f3dd0314c0f7b2291e5b200ac8c7c3b92593610aa1565b93610aa1565b9361033560405190565b1561114e57565b60405162461bcd60e51b815260206004820152601d60248201527f45524332303a20696e73756666696369656e7420616c6c6f77616e63650000006044820152606490fd5b9061119e8183610cec565b60001981036111ae575b50505050565b6111c293610d6e91610dee82821015611147565b388080806111a8565b906102ac6111d860405190565b9283610c06565b61025360406111cb565b6111f16111df565b906000825260006020830152565b6102536111e9565b634e487b7160e01b600052603260045260246000fd5b805482101561124057611237600191600052602060002090565b91020190600090565b611207565b610253905b63ffffffff1690565b6102539054611245565b6102539060201c5b6001600160e01b031690565b610253905461125d565b906102ac6112ad600061128c6111df565b946112a761129b838301611253565b63ffffffff1687840152565b01611271565b6001600160e01b03166020840152565b6102539061127b565b610253916112e16112e6926112d96111ff565b5060cd610ca3565b61121d565b506112bd565b6113026112fe610253926112d9600090565b5490565b61252f565b61131e61025391611316600090565b5060cc610ca3565b546001600160a01b031690565b91908203918211610d5057565b6112656102536102539290565b6102539081906001600160e01b031681565b6102539060cd61136a6112fe8383610ca3565b60009261137684610f09565b826000949103611392575050505061138d90611338565b611345565b61138d94506113a86113bf93926113b992610ca3565b916113b36001610f09565b9061132b565b9061121d565b5001611271565b156113cd57565b60405162461bcd60e51b815260206004820152601f60248201527f4552433230566f7465733a20626c6f636b206e6f7420796574206d696e6564006044820152606490fd5b9061143961025361025393611425600090565b5061143243855b106113c6565b60cd610ca3565b611466565b6102539061144c438261142c565b60ce611466565b6102536102536102539263ffffffff1690565b9190825460009261147684610f09565b90826114826005610f09565b8111611542575b50915b808210156114f55761149e818361211a565b90816114bb876114b5838b60005260206000200190565b01611253565b6114c6875b91611453565b11156114d6575050915b9161148c565b909392506114ef91506114e96001610f09565b90610d43565b906114d0565b9194905061025393925061150883610f09565b82600093910361151e5750505061138d90611338565b61138d9350906115356112a7926113b36001610f09565b9060005260206000200190565b806113b36115529295939561216e565b90611568866114b5848a60005260206000200190565b611571866114c0565b11156115805750915b38611489565b929150611591906114e96001610f09565b9061157a565b6102ac9033611723565b611723565b156115ad57565b60405162461bcd60e51b815260206004820152601d60248201527f4552433230566f7465733a207369676e617475726520657870697265640000006044820152606490fd5b6116286102ac94611621606094989795611611608086019a6000870152565b6001600160a01b03166020850152565b6040830152565b0152565b1561163357565b60405162461bcd60e51b815260206004820152601960248201527f4552433230566f7465733a20696e76616c6964206e6f6e6365000000000000006044820152606490fd5b93946102ac95829461170861170d946116f0896115a1986116a8426116a161169d8490565b9190565b11156115a6565b6116e47fe48329057bfd03d55e49b547132e39cffd9c1820ad7b9d4c5307691425d15adf916116d660405190565b9586946020860194856115f2565b90810382520382610c06565b6117026116fb825190565b9160200190565b2061208f565b611d53565b9161171d61169d61025385611cfd565b1461162c565b6102ac9161173082611307565b61173983610cbb565b9261174e836117498360cc610ca3565b610aaa565b6117787f3134e8a2e6d97e929a7e54011ea5485d7d196dd5f0ba4d4ef95803e8e3fc257f91610aa1565b61178183610aa1565b9061178b85610aa1565b9261179560405190565b600090a46117b1565b9081526040810192916102ac9160200152565b9091906001600160a01b0383166001600160a01b0382161415806118ea575b6117d957505050565b61180f906117e7600061092a565b906001600160a01b0382166001600160a01b0382160361188c575b506001600160a01b031690565b6001600160a01b03831603611823575b5050565b611844906118328360cd610ca3565b61183e61169d60029290565b90611a08565b6118717fdec2bacdd2f05b59de34da9b523dff8be42e5e38e818c82fdb0bae774387a72493929392610aa1565b9261188761187e60405190565b9283928361179e565b0390a2565b6118a78461189b8360cd610ca3565b61183e61169d60019290565b6118d47fdec2bacdd2f05b59de34da9b523dff8be42e5e38e818c82fdb0bae774387a72493929392610aa1565b926118e161187e60405190565b0390a238611802565b506118f56000610f09565b82116117d0565b61124a6102536102539290565b634e487b7160e01b600052600060045260246000fd5b9063ffffffff90610a7a565b61124a6102536102539263ffffffff1690565b9061194e610253610ac19261192b565b825461191f565b9063ffffffff199060201b610a7a565b61025390611265906001600160e01b031682565b90611989610253610ac192611965565b8254611955565b6102ac916119c0906020906119b26119ac825163ffffffff1690565b8561193e565b01516001600160e01b031690565b90611979565b91906119d5576102ac91611990565b611909565b9081549168010000000000000000831015610c285782611a029160016102ac9501815561121d565b906119c6565b90929080546000611a1881610f09565b8203611b1457611a7d611a296111df565b611a41611a35846118fc565b63ffffffff1682850152565b611a5d611a4d84611338565b6001600160e01b03166020830152565b955b611a7661138d60208901516001600160e01b031690565b8098612f56565b92839582611a8a81610f09565b85119182611af9575b505015611abe57611ab890611535611aad6102ac966124b0565b946113b36001610f09565b01611979565b909150611af46102ac936112ad611add611ad74361252f565b926124b0565b91611ae66111df565b9586019063ffffffff169052565b6119da565b015163ffffffff169050611b0c436114c0565b148238611a93565b611a7d611b42611b3d611b30611b2a6001610f09565b8661132b565b8660005260206000200190565b6112bd565b95611a5f565b6102539190610d43565b610253919061132b565b15611b6357565b60405162461bcd60e51b815260206004820152601d60248201527f45524332305065726d69743a206578706972656420646561646c696e650000006044820152606490fd5b9194611bf761162892989795611bf060a096611be06102ac9a611bd060c08a019e60008b0152565b6001600160a01b03166020890152565b6001600160a01b03166040870152565b6060850152565b6080830152565b15611c0557565b60405162461bcd60e51b815260206004820152601e60248201527f45524332305065726d69743a20696e76616c6964207369676e617475726500006044820152606490fd5b929582958295611708611cbe946116f088610d17986116e46102ac9e611c7b42611c7461169d8490565b1115611b5c565b7f6e71edae12b1b97f4d1f60370fef10105fa2faae0126114a169c64845d6126c992611ca685611cfd565b90611cb060405190565b978896602088019687611ba8565b611cd06001600160a01b0384166109c2565b14611bfe565b611cf061025361025392611ce8600090565b506099610ca3565b611d1f565b610253611fd4565b610253611d0c91611ce8600090565b906102ac611d1983611d1f565b92611d34565b600061025391611d2d600090565b5001610c8f565b6102ac90610fb76000611d476001610f09565b92019161023e83610c8f565b916102539391611d6b93611d65600090565b50611f1f565b919091611da2565b634e487b7160e01b600052602160045260246000fd5b60051115611d9357565b611d73565b906102ac82611d89565b611dac6000611d98565b611db582611d98565b03611dbd5750565b611dc76001611d98565b611dd082611d98565b03611e1a5760405162461bcd60e51b815260206004820152601860248201527f45434453413a20696e76616c6964207369676e617475726500000000000000006044820152606490fd5b611e246002611d98565b611e2d82611d98565b03611e775760405162461bcd60e51b815260206004820152601f60248201527f45434453413a20696e76616c6964207369676e6174757265206c656e677468006044820152606490fd5b611e8a611e846003611d98565b91611d98565b14611e9157565b60405162461bcd60e51b815260206004820152602260248201527f45434453413a20696e76616c6964207369676e6174757265202773272076616c604482015261756560f01b6064820152608490fd5b61025390610f09565b6116286102ac94611621606094989795611f09608086019a6000870152565b60ff166020850152565b6040513d6000823e3d90fd5b919291611f2b83611ee1565b611f5761169d7f7fffffffffffffffffffffffffffffff5d576e7357a4501ddfe92f46681b20a0610f09565b11611fc057611f77600093602095611f6e60405190565b94859485611eea565b838052039060015afa15611fbb5760005190600091611f958361092a565b6001600160a01b0381166001600160a01b03831614611fb357509190565b925050600190565b611f13565b50505050611fce600061092a565b90600390565b6102537f8b73c3c69bb8fe3d512ecc4cf759cc79239f7b179b0ffacaa9a75d522b39400f6120006120e1565b6120086120eb565b91612056565b909594926102ac946120406120479261203960809661203260a088019c6000890152565b6020870152565b6040850152565b6060830152565b01906001600160a01b03169052565b61208091906116e44661206830610aa1565b9061207260405190565b96879560208701958661200e565b61208b6116fb825190565b2090565b6102539061209b611fd4565b6120c8565b60208093926120c26120bd61023e9461190160f01b815260020190565b918252565b01918252565b6116e491612080916040519384926020840192836120a0565b6102536065610c8f565b6102536066610c8f565b634e487b7160e01b600052601260045260246000fd5b8115612115570490565b6120f5565b6114e961025392612129600090565b5080831692186121396002610f09565b9061210b565b6102539061215361169d6102539460ff1690565b901c90565b6102539061216961169d6102539490565b901b90565b600061217981610f09565b82146122605750600161218b8261227c565b61219482610c6b565b8080808080966121a582809861213f565b906121af90610f09565b906121b991612158565b6121c3818a61210b565b01906121ce9161213f565b6121d8818961210b565b01906121e39161213f565b6121ed818861210b565b01906121f89161213f565b612202818761210b565b019061220d9161213f565b612217818661210b565b01906122229161213f565b61222c818561210b565b01906122379161213f565b612241818461210b565b019061224c9161213f565b90816122579161210b565b6102539161226a565b6102539150610f09565b9080821015612277575090565b905090565b60009061228882610f09565b91608061229d61229782610c6b565b8461213f565b84811161243a575b505060406122b561229782610c6b565b6122be83610f09565b8111612420575b505060206122d561229782610c6b565b6122de83610f09565b8111612406575b505060106122f561229782610c6b565b6122fe83610f09565b81116123ec575b5050600861231561229782610c6b565b61231e83610f09565b81116123d2575b5050600461233561229782610c6b565b61233e83610f09565b81116123b8575b5050600261235561229782610c6b565b61235e83610f09565b811161239e575b505061238861169d61238260019461237c86610c6b565b9061213f565b92610f09565b11612391575090565b9061023e61025392610f09565b6123b0929491935061023e9093610f09565b913880612365565b6123ca929491935061023e9093610f09565b913880612345565b6123e4929491935061023e9093610f09565b913880612325565b6123fe929491935061023e9093610f09565b913880612305565b612418929491935061023e9093610f09565b9138806122e5565b612432929491935061023e9093610f09565b9138806122c5565b61244c929491935061023e9093610f09565b9138806122a5565b1561245b57565b60405162461bcd60e51b815260206004820152602760248201527f53616665436173743a2076616c756520646f65736e27742066697420696e20326044820152663234206269747360c81b6064820152608490fd5b610253906124cf6124c76001600160e01b03611345565b821115612454565b611338565b156124db57565b60405162461bcd60e51b815260206004820152602660248201527f53616665436173743a2076616c756520646f65736e27742066697420696e203360448201526532206269747360d01b6064820152608490fd5b6102539061254b61254363ffffffff611453565b8211156124d4565b6118fc565b6102539060081c610c78565b6102539054612550565b61025390610c78565b6102539054612566565b1561258057565b60405162461bcd60e51b815260206004820152602e60248201527f496e697469616c697a61626c653a20636f6e747261637420697320616c72656160448201526d191e481a5b9a5d1a585b1a5e995960921b6064820152608490fd5b9060ff90610a7a565b610c786102536102539260ff1690565b90612605610253610ac1926125e5565b82546125dc565b9061ff009060081b610a7a565b90612629610253610ac192151590565b825461260c565b6102e490610c6b565b6020810192916102ac9190612630565b9261269b929594919561266361265f600061255c565b1590565b96878061273f575b80156126fa575b61267b90612579565b6001958861269261268b89610c6b565b60006125f5565b6126ea576127c0565b926126a35750565b6126ae600080612619565b6126e57f7f26b83ff96e1f2b6a682f133852f6798a09c465da95921460cefb3847402498916126dc60405190565b91829182612639565b0390a1565b6126f5876000612619565b6127c0565b5061270f61265f61270a30610aa1565b612b03565b8015612672575061267b612723600061256f565b6127376127306001610c6b565b9160ff1690565b149050612672565b5061274a600061256f565b6127576127306001610c6b565b1061266b565b67ffffffffffffffff8111610c2857602090601f01601f19160190565b90826000939282370152565b9092919261279b6127968261275d565b6111cb565b938185526020850190828401116101e2576102ac9261277a565b610253913691612786565b6127eb936127e06127f0966127e693506127da86866127b5565b926127b5565b906128ce565b6127b5565b612afa565b6127f8612a9e565b610ce761288b565b610253939291906000612649565b1561281557565b60405162461bcd60e51b815260206004820152602b60248201527f496e697469616c697a61626c653a20636f6e7472616374206973206e6f74206960448201526a6e697469616c697a696e6760a81b6064820152608490fd5b61288061287b600061255c565b61280e565b6102ac6102ac6128aa565b6102ac61286e565b6128a061287b600061255c565b6102ac8033610ac5565b6102ac612893565b906102ac916128c461287b600061255c565b906102ac91612a87565b906102ac916128b2565b906102ac916128ea61287b600061255c565b612a71565b9160001960089290920291821b911b610a7a565b9190612914610253610ac193610f09565b9083546128ef565b6102ac91600091612903565b818110612933575050565b80612941600060019361291c565b01612928565b9190601f811161295657505050565b6129686102ac93600052602060002090565b906020601f84018190048301931061298a575b6020601f909101040190612928565b909150819061297b565b9061299d815190565b9067ffffffffffffffff8211610c28576129c1826129bb8554610b38565b85612947565b602090601f83116001146129fc57610ac19291600091836129f1575b5050600019600883021c1916906002021790565b0151905038806129dd565b601f19831691612a1185600052602060002090565b9260005b818110612a4f57509160029391856001969410612a36575b50505002019055565b01516000196008601f8516021c19169055388080612a2d565b91936020600181928787015181550195019201612a15565b906102ac91612994565b90612a806102ac926036612a67565b6037612a67565b906102ac916128d8565b6102ac61287b600061255c565b6102ac612a91565b6102ac90612ab761287b600061255c565b612ae8565b906120bd6127968361275d565b612ad36001612abc565b603160f81b602082015290565b610253612ac9565b6102ac90612af4612ae0565b90612b76565b6102ac90612aa6565b3b612b1161169d6000610f09565b1190565b906102ac91612b2761287b600061255c565b612b3a565b90610f26610253610ac19290565b90612b6f612b5b612b4b6102ac9490565b612b566116fb825190565b209290565b612b666116fb825190565b20916065612b2c565b6066612b2c565b906102ac91612b15565b906102ac929190612b9d612b976102ac9493611307565b91611307565b906117b1565b906102ac91612bb06109a1565b906102ac91612bc4565b906102ac91612ba3565b906102ac91612c33565b15612bd557565b60405162461bcd60e51b815260206004820152603060248201527f4552433230566f7465733a20746f74616c20737570706c79207269736b73206f60448201526f766572666c6f77696e6720766f74657360801b6064820152608490fd5b90612c418161181f93612cbb565b612c66612c4c610c99565b612c5f61169d6001600160e01b03611345565b1115612bce565b60ce600261183e565b15612c7657565b60405162461bcd60e51b815260206004820152601f60248201527f45524332303a206d696e7420746f20746865207a65726f2061646472657373006044820152606490fd5b906102ac91612cca600061092a565b612ce86001600160a01b0382166001600160a01b0384161415612c6f565b612d00612cf984610d696035610c8f565b6035610f16565b610fbd610faa836033610ca3565b906102539594939291612d1f6109a1565b612e79565b15612d2b57565b60405162461bcd60e51b815260206004820152601b60248201527f566f7465546f6b656e733a206c656e677468206d69736d6174636800000000006044820152606490fd5b6000198114610d505760010190565b9190811015611240576020020190565b356102538161028d565b35610253816102ae565b5061025390602081019061029f565b818352602090920191906000825b828210612dce575050505090565b90919293612dfd612df6600192612de58886612da3565b6001600160a01b0316815260200190565b9560200190565b93920190612dc0565b9037565b8183529091602001916001600160fb1b0381116101e2578291602061023e9202938491612e06565b606080825260059082015264045524332360dc1b608082015261025394909390929091612e6b9160a08601918683036020880152612db2565b926040818503910152612e0a565b5090949193859290612e8c858814612d24565b612e966000610f09565b875b811015612ee257612edb81612ed689612ed0612ecb848c612ec5612ec0612e989a8f8f612d7f565b612d8f565b94612d7f565b612d99565b90612bc4565b612d70565b9050612e96565b50612f29929394919650612ef590610ac5565b7f1912c990b03feb4bc6bb030afa749975be3ea17ce50f591af3de6e3a60bf1eb894612f2060405190565b94859485612e32565b0390a1600190565b61025394939291906000612d0e565b634e487b7160e01b600052605160045260246000fd5b91909180600214612f7157600103612f405761025391611b52565b5061025391611b4856fea26469706673582212206101db3923f0cf37ae27eba20e402a6c730ca929dc31e902887b17ec4025017064736f6c63430008120033",
  "linkReferences": {},
  "deployedLinkReferences": {}
}