{
  "_format": "hh-sol-artifact-1",
  "contractName": "ERC721VotesStandard",
  "sourceName": "contracts/VoteTokens/ERC721Votes.sol",
  "abi": [
    {
      "anonymous": false,
      "inputs": [
        {
          "indexed": true,
          "internalType": "address",
          "name": "owner",
          "type": "address"
        },
        {
          "indexed": true,
          "internalType": "address",
          "name": "approved",
          "type": "address"
        },
        {
          "indexed": true,
          "internalType": "uint256",
          "name": "tokenId",
          "type": "uint256"
        }
      ],
      "name": "Approval",
      "type": "event"
    },
    {
      "anonymous": false,
      "inputs": [
        {
          "indexed": true,
          "internalType": "address",
          "name": "owner",
          "type": "address"
        },
        {
          "indexed": true,
          "internalType": "address",
          "name": "operator",
          "type": "address"
        },
        {
          "indexed": false,
          "internalType": "bool",
          "name": "approved",
          "type": "bool"
        }
      ],
      "name": "ApprovalForAll",
      "type": "event"
    },
    {
      "anonymous": false,
      "inputs": [
        {
          "indexed": true,
          "internalType": "address",
          "name": "delegator",
          "type": "address"
        },
        {
          "indexed": true,
          "internalType": "address",
          "name": "fromDelegate",
          "type": "address"
        },
        {
          "indexed": true,
          "internalType": "address",
          "name": "toDelegate",
          "type": "address"
        }
      ],
      "name": "DelegateChanged",
      "type": "event"
    },
    {
      "anonymous": false,
      "inputs": [
        {
          "indexed": true,
          "internalType": "address",
          "name": "delegate",
          "type": "address"
        },
        {
          "indexed": false,
          "internalType": "uint256",
          "name": "previousBalance",
          "type": "uint256"
        },
        {
          "indexed": false,
          "internalType": "uint256",
          "name": "newBalance",
          "type": "uint256"
        }
      ],
      "name": "DelegateVotesChanged",
      "type": "event"
    },
    {
      "anonymous": false,
      "inputs": [
        {
          "indexed": false,
          "internalType": "string",
          "name": "tokenType",
          "type": "string"
        },
        {
          "indexed": false,
          "internalType": "address[]",
          "name": "to",
          "type": "address[]"
        },
        {
          "indexed": false,
          "internalType": "string[]",
          "name": "amount",
          "type": "string[]"
        }
      ],
      "name": "InitialMint",
      "type": "event"
    },
    {
      "anonymous": false,
      "inputs": [
        {
          "indexed": false,
          "internalType": "uint8",
          "name": "version",
          "type": "uint8"
        }
      ],
      "name": "Initialized",
      "type": "event"
    },
    {
      "anonymous": false,
      "inputs": [
        {
          "indexed": true,
          "internalType": "address",
          "name": "previousOwner",
          "type": "address"
        },
        {
          "indexed": true,
          "internalType": "address",
          "name": "newOwner",
          "type": "address"
        }
      ],
      "name": "OwnershipTransferred",
      "type": "event"
    },
    {
      "anonymous": false,
      "inputs": [
        {
          "indexed": true,
          "internalType": "address",
          "name": "from",
          "type": "address"
        },
        {
          "indexed": true,
          "internalType": "address",
          "name": "to",
          "type": "address"
        },
        {
          "indexed": true,
          "internalType": "uint256",
          "name": "tokenId",
          "type": "uint256"
        }
      ],
      "name": "Transfer",
      "type": "event"
    },
    {
      "inputs": [],
      "name": "DOMAIN_SEPARATOR",
      "outputs": [
        {
          "internalType": "bytes32",
          "name": "",
          "type": "bytes32"
        }
      ],
      "stateMutability": "view",
      "type": "function"
    },
    {
      "inputs": [
        {
          "internalType": "address",
          "name": "to",
          "type": "address"
        },
        {
          "internalType": "uint256",
          "name": "tokenId",
          "type": "uint256"
        }
      ],
      "name": "approve",
      "outputs": [],
      "stateMutability": "nonpayable",
      "type": "function"
    },
    {
      "inputs": [
        {
          "internalType": "address",
          "name": "owner",
          "type": "address"
        }
      ],
      "name": "balanceOf",
      "outputs": [
        {
          "internalType": "uint256",
          "name": "",
          "type": "uint256"
        }
      ],
      "stateMutability": "view",
      "type": "function"
    },
    {
      "inputs": [],
      "name": "baseURI",
      "outputs": [
        {
          "internalType": "string",
          "name": "",
          "type": "string"
        }
      ],
      "stateMutability": "view",
      "type": "function"
    },
    {
      "inputs": [
        {
          "internalType": "address",
          "name": "delegatee",
          "type": "address"
        }
      ],
      "name": "delegate",
      "outputs": [],
      "stateMutability": "nonpayable",
      "type": "function"
    },
    {
      "inputs": [
        {
          "internalType": "address",
          "name": "delegatee",
          "type": "address"
        },
        {
          "internalType": "uint256",
          "name": "nonce",
          "type": "uint256"
        },
        {
          "internalType": "uint256",
          "name": "expiry",
          "type": "uint256"
        },
        {
          "internalType": "uint8",
          "name": "v",
          "type": "uint8"
        },
        {
          "internalType": "bytes32",
          "name": "r",
          "type": "bytes32"
        },
        {
          "internalType": "bytes32",
          "name": "s",
          "type": "bytes32"
        }
      ],
      "name": "delegateBySig",
      "outputs": [],
      "stateMutability": "nonpayable",
      "type": "function"
    },
    {
      "inputs": [
        {
          "internalType": "address",
          "name": "account",
          "type": "address"
        }
      ],
      "name": "delegates",
      "outputs": [
        {
          "internalType": "address",
          "name": "",
          "type": "address"
        }
      ],
      "stateMutability": "view",
      "type": "function"
    },
    {
      "inputs": [
        {
          "internalType": "uint256",
          "name": "tokenId",
          "type": "uint256"
        }
      ],
      "name": "getApproved",
      "outputs": [
        {
          "internalType": "address",
          "name": "",
          "type": "address"
        }
      ],
      "stateMutability": "view",
      "type": "function"
    },
    {
      "inputs": [
        {
          "internalType": "uint256",
          "name": "blockNumber",
          "type": "uint256"
        }
      ],
      "name": "getPastTotalSupply",
      "outputs": [
        {
          "internalType": "uint256",
          "name": "",
          "type": "uint256"
        }
      ],
      "stateMutability": "view",
      "type": "function"
    },
    {
      "inputs": [
        {
          "internalType": "address",
          "name": "account",
          "type": "address"
        },
        {
          "internalType": "uint256",
          "name": "blockNumber",
          "type": "uint256"
        }
      ],
      "name": "getPastVotes",
      "outputs": [
        {
          "internalType": "uint256",
          "name": "",
          "type": "uint256"
        }
      ],
      "stateMutability": "view",
      "type": "function"
    },
    {
      "inputs": [
        {
          "internalType": "address",
          "name": "account",
          "type": "address"
        }
      ],
      "name": "getVotes",
      "outputs": [
        {
          "internalType": "uint256",
          "name": "",
          "type": "uint256"
        }
      ],
      "stateMutability": "view",
      "type": "function"
    },
    {
      "inputs": [
        {
          "internalType": "address[]",
          "name": "to",
          "type": "address[]"
        },
        {
          "internalType": "string[]",
          "name": "tokenUri",
          "type": "string[]"
        },
        {
          "internalType": "address",
          "name": "newOwner",
          "type": "address"
        }
      ],
      "name": "initialMint",
      "outputs": [
        {
          "internalType": "bool",
          "name": "",
          "type": "bool"
        }
      ],
      "stateMutability": "nonpayable",
      "type": "function"
    },
    {
      "inputs": [
        {
          "internalType": "string",
          "name": "name",
          "type": "string"
        },
        {
          "internalType": "string",
          "name": "symbol",
          "type": "string"
        },
        {
          "internalType": "string",
          "name": "baseUri",
          "type": "string"
        }
      ],
      "name": "initialize",
      "outputs": [
        {
          "internalType": "bool",
          "name": "",
          "type": "bool"
        }
      ],
      "stateMutability": "nonpayable",
      "type": "function"
    },
    {
      "inputs": [
        {
          "internalType": "address",
          "name": "owner",
          "type": "address"
        },
        {
          "internalType": "address",
          "name": "operator",
          "type": "address"
        }
      ],
      "name": "isApprovedForAll",
      "outputs": [
        {
          "internalType": "bool",
          "name": "",
          "type": "bool"
        }
      ],
      "stateMutability": "view",
      "type": "function"
    },
    {
      "inputs": [
        {
          "internalType": "address",
          "name": "to",
          "type": "address"
        },
        {
          "internalType": "string",
          "name": "tokenUri",
          "type": "string"
        }
      ],
      "name": "mint",
      "outputs": [
        {
          "internalType": "uint256",
          "name": "",
          "type": "uint256"
        }
      ],
      "stateMutability": "nonpayable",
      "type": "function"
    },
    {
      "inputs": [],
      "name": "name",
      "outputs": [
        {
          "internalType": "string",
          "name": "",
          "type": "string"
        }
      ],
      "stateMutability": "view",
      "type": "function"
    },
    {
      "inputs": [
        {
          "internalType": "address",
          "name": "owner",
          "type": "address"
        }
      ],
      "name": "nonces",
      "outputs": [
        {
          "internalType": "uint256",
          "name": "",
          "type": "uint256"
        }
      ],
      "stateMutability": "view",
      "type": "function"
    },
    {
      "inputs": [],
      "name": "owner",
      "outputs": [
        {
          "internalType": "address",
          "name": "",
          "type": "address"
        }
      ],
      "stateMutability": "view",
      "type": "function"
    },
    {
      "inputs": [
        {
          "internalType": "uint256",
          "name": "tokenId",
          "type": "uint256"
        }
      ],
      "name": "ownerOf",
      "outputs": [
        {
          "internalType": "address",
          "name": "",
          "type": "address"
        }
      ],
      "stateMutability": "view",
      "type": "function"
    },
    {
      "inputs": [],
      "name": "renounceOwnership",
      "outputs": [],
      "stateMutability": "nonpayable",
      "type": "function"
    },
    {
      "inputs": [
        {
          "internalType": "address",
          "name": "to",
          "type": "address"
        },
        {
          "internalType": "string",
          "name": "tokenUri",
          "type": "string"
        }
      ],
      "name": "safeMint",
      "outputs": [
        {
          "internalType": "uint256",
          "name": "",
          "type": "uint256"
        }
      ],
      "stateMutability": "nonpayable",
      "type": "function"
    },
    {
      "inputs": [
        {
          "internalType": "address",
          "name": "from",
          "type": "address"
        },
        {
          "internalType": "address",
          "name": "to",
          "type": "address"
        },
        {
          "internalType": "uint256",
          "name": "tokenId",
          "type": "uint256"
        }
      ],
      "name": "safeTransferFrom",
      "outputs": [],
      "stateMutability": "nonpayable",
      "type": "function"
    },
    {
      "inputs": [
        {
          "internalType": "address",
          "name": "from",
          "type": "address"
        },
        {
          "internalType": "address",
          "name": "to",
          "type": "address"
        },
        {
          "internalType": "uint256",
          "name": "tokenId",
          "type": "uint256"
        },
        {
          "internalType": "bytes",
          "name": "data",
          "type": "bytes"
        }
      ],
      "name": "safeTransferFrom",
      "outputs": [],
      "stateMutability": "nonpayable",
      "type": "function"
    },
    {
      "inputs": [
        {
          "internalType": "address",
          "name": "operator",
          "type": "address"
        },
        {
          "internalType": "bool",
          "name": "approved",
          "type": "bool"
        }
      ],
      "name": "setApprovalForAll",
      "outputs": [],
      "stateMutability": "nonpayable",
      "type": "function"
    },
    {
      "inputs": [
        {
          "internalType": "uint256",
          "name": "tokenId",
          "type": "uint256"
        },
        {
          "internalType": "string",
          "name": "newTokenURI",
          "type": "string"
        }
      ],
      "name": "setTokenURI",
      "outputs": [],
      "stateMutability": "nonpayable",
      "type": "function"
    },
    {
      "inputs": [
        {
          "internalType": "bytes4",
          "name": "interfaceId",
          "type": "bytes4"
        }
      ],
      "name": "supportsInterface",
      "outputs": [
        {
          "internalType": "bool",
          "name": "",
          "type": "bool"
        }
      ],
      "stateMutability": "view",
      "type": "function"
    },
    {
      "inputs": [],
      "name": "symbol",
      "outputs": [
        {
          "internalType": "string",
          "name": "",
          "type": "string"
        }
      ],
      "stateMutability": "view",
      "type": "function"
    },
    {
      "inputs": [
        {
          "internalType": "uint256",
          "name": "index",
          "type": "uint256"
        }
      ],
      "name": "tokenByIndex",
      "outputs": [
        {
          "internalType": "uint256",
          "name": "",
          "type": "uint256"
        }
      ],
      "stateMutability": "view",
      "type": "function"
    },
    {
      "inputs": [
        {
          "internalType": "address",
          "name": "owner",
          "type": "address"
        },
        {
          "internalType": "uint256",
          "name": "index",
          "type": "uint256"
        }
      ],
      "name": "tokenOfOwnerByIndex",
      "outputs": [
        {
          "internalType": "uint256",
          "name": "",
          "type": "uint256"
        }
      ],
      "stateMutability": "view",
      "type": "function"
    },
    {
      "inputs": [
        {
          "internalType": "uint256",
          "name": "tokenId",
          "type": "uint256"
        }
      ],
      "name": "tokenURI",
      "outputs": [
        {
          "internalType": "string",
          "name": "",
          "type": "string"
        }
      ],
      "stateMutability": "view",
      "type": "function"
    },
    {
      "inputs": [],
      "name": "totalSupply",
      "outputs": [
        {
          "internalType": "uint256",
          "name": "",
          "type": "uint256"
        }
      ],
      "stateMutability": "view",
      "type": "function"
    },
    {
      "inputs": [
        {
          "internalType": "address",
          "name": "from",
          "type": "address"
        },
        {
          "internalType": "address",
          "name": "to",
          "type": "address"
        },
        {
          "internalType": "uint256",
          "name": "tokenId",
          "type": "uint256"
        }
      ],
      "name": "transferFrom",
      "outputs": [],
      "stateMutability": "nonpayable",
      "type": "function"
    },
    {
      "inputs": [
        {
          "internalType": "address",
          "name": "newOwner",
          "type": "address"
        }
      ],
      "name": "transferOwnership",
      "outputs": [],
      "stateMutability": "nonpayable",
      "type": "function"
    }
  ],
  "bytecode": "0x60806040523461001a57604051613ef96100208239613ef990f35b600080fdfe6080604052600436101561001257600080fd5b60003560e01c806301ffc9a71461022257806306fdde031461021d578063081812fc14610218578063095ea7b314610213578063162094c41461020e57806318160ddd1461020957806323b872dd146102045780632f745c59146101ff5780633644e515146101fa5780633a46b1a8146101f557806342842e0e146101f05780634f6ccce7146101eb578063587cde1e146101e65780635c19a95c146101e15780636352211e146101dc57806368e10ec5146101d75780636c0360eb146101d257806370a08231146101cd578063715018a6146101c85780637ecebe00146101c35780638da5cb5b146101be5780638e539e8c146101b957806395d89b41146101b45780639ab24eb0146101af578063a22cb465146101aa578063a6487c53146101a5578063b88d4fde146101a0578063c3cda5201461019b578063c87b56dd14610196578063d0def52114610191578063d204c45e1461018c578063e985e9c5146101875763f2fde38b0361023a57610a9c565b610a80565b610a41565b610a25565b6109f3565b6109d4565b610948565b6108da565b610829565b6107d6565b6107bb565b6107a0565b61077a565b61075f565b610747565b61072c565b610711565b6106f2565b610652565b61063a565b61061f565b6105f0565b6105d7565b6105bb565b6105a0565b610584565b61056b565b61050e565b6104f5565b6103e0565b61036c565b610312565b610269565b6001600160e01b031981165b0361023a57565b600080fd5b9050359061024c82610227565b565b9060208282031261023a576102629161023f565b90565b9052565b3461023a5761029761028461027f36600461024e565b6139ee565b6040515b91829182901515815260200190565b0390f35b600091031261023a57565b60005b8381106102b95750506000910152565b81810151838201526020016102a9565b6102ea6102f36020936102fd936102de815190565b80835293849260200190565b958691016102a6565b601f01601f191690565b0190565b6020808252610262929101906102c9565b3461023a5761032236600461029b565b61029761032d6113d4565b60405191829182610301565b80610233565b9050359061024c82610339565b9060208282031261023a576102629161033f565b6001600160a01b031690565b3461023a5761029761038761038236600461034c565b61151b565b604051918291826001600160a01b03909116815260200190565b6001600160a01b038116610233565b9050359061024c826103a1565b919060408382031261023a57610262906103d781856103b0565b9360200161033f565b3461023a576103f96103f33660046103bd565b906114b0565b604051005b634e487b7160e01b600052604160045260246000fd5b90601f01601f191681019081106001600160401b0382111761043557604052565b6103fe565b9061024c61044760405190565b9283610414565b6001600160401b03811161043557602090601f01601f19160190565b90826000939282370152565b9092919261048b6104868261044e565b61043a565b9381855260208501908284011161023a5761024c9261046a565b9080601f8301121561023a5781602061026293359101610476565b91909160408184031261023a576104d7838261033f565b9260208201356001600160401b03811161023a5761026292016104a5565b3461023a576103f96105083660046104c0565b90613e76565b3461023a5761051e36600461029b565b61029761052b6101635490565b6040519182918290815260200190565b909160608284031261023a5761026261055484846103b0565b9361056281602086016103b0565b9360400161033f565b3461023a576103f961057e36600461053b565b916115e2565b3461023a5761029761052b61059a3660046103bd565b90611cd7565b3461023a576105b036600461029b565b61029761052b6111ae565b3461023a5761029761052b6105d13660046103bd565b90610d1d565b3461023a576103f96105ea36600461053b565b91611623565b3461023a5761029761052b61060636600461034c565b611dc3565b9060208282031261023a57610262916103b0565b3461023a5761029761038761063536600461060b565b610d97565b3461023a576103f961064d36600461060b565b610dbb565b3461023a5761029761038761066836600461034c565b6112ae565b909182601f8301121561023a578135916001600160401b03831161023a57602001926020830284011161023a57565b60608183031261023a5780356001600160401b03811161023a57826106c291830161066d565b92909360208301356001600160401b03811161023a576106e78361026292860161066d565b9390946040016103b0565b3461023a5761029761028461070836600461069c565b939290926139df565b3461023a5761072136600461029b565b61029761032d613e80565b3461023a5761029761052b61074236600461060b565b611225565b3461023a5761075736600461029b565b6103f9610aec565b3461023a5761029761052b61077536600461060b565b611197565b3461023a5761078a36600461029b565b610297610387610193546001600160a01b031690565b3461023a5761029761052b6107b636600461034c565b610d81565b3461023a576107cb36600461029b565b61029761032d6113de565b3461023a5761029761052b6107ec36600461060b565b610cf6565b801515610233565b9050359061024c826107f1565b919060408382031261023a576102629061082081856103b0565b936020016107f9565b3461023a576103f961083c366004610806565b9061153b565b909182601f8301121561023a578135916001600160401b03831161023a57602001926001830284011161023a57565b9060608282031261023a5781356001600160401b03811161023a5781610898918401610842565b92909360208201356001600160401b03811161023a57836108ba918401610842565b92909360408201356001600160401b03811161023a5761026292016104a5565b3461023a576102976102846108f0366004610871565b93929092612e53565b9060808282031261023a5761090e81836103b0565b9261091c82602085016103b0565b9261092a836040830161033f565b9260608201356001600160401b03811161023a5761026292016104a5565b3461023a576103f961095b3660046108f9565b92919091611633565b60ff8116610233565b9050359061024c82610964565b909160c08284031261023a5761099083836103b0565b9261099e816020850161033f565b926109ac826040830161033f565b926102626109bd846060850161096d565b936109cb816080860161033f565b9360a00161033f565b3461023a576103f96109e736600461097a565b94939093929192610e93565b3461023a5761029761032d610a0936600461034c565b613b01565b91909160408184031261023a576104d783826103b0565b3461023a5761029761052b610a3b366004610a0e565b906136db565b3461023a5761029761052b610a57366004610a0e565b906134d5565b919060408382031261023a5761026290610a7781856103b0565b936020016103b0565b3461023a57610297610284610a96366004610a5d565b9061155b565b3461023a576103f9610aaf36600461060b565b610c0e565b610abc610b48565b61024c610ada565b6103606102626102629290565b61026290610ac4565b61024c610ae76000610ad1565b610c6d565b61024c610ab4565b15610afb57565b60405162461bcd60e51b815280610b44600482016020808252818101527f4f776e61626c653a2063616c6c6572206973206e6f7420746865206f776e6572604082015260600190565b0390fd5b61024c610b5e610193546001600160a01b031690565b610b77610b6a33610360565b916001600160a01b031690565b14610af4565b61024c90610b89610b48565b610be9565b15610b9557565b60405162461bcd60e51b815260206004820152602660248201527f4f776e61626c653a206e6577206f776e657220697320746865207a65726f206160448201526564647265737360d01b6064820152608490fd5b61024c90610ae7610bfd6103606000610ad1565b6001600160a01b0383161415610b8e565b61024c90610b7d565b906001600160a01b03905b9181191691161790565b61026290610360906001600160a01b031682565b61026290610c2c565b61026290610c40565b90610c62610262610c6992610c49565b8254610c17565b9055565b610193546001600160a01b031690610c8781610193610c52565b610cba610cb47f8be0079c531659141344cd1fd0a4f28419497f9722a3daafe3b4186f6b6457e093610c49565b91610c49565b91610cc460405190565b80805b0390a3565b90610cd690610c49565b600052602052604060002090565b6102629081906001600160e01b031681565b610d18610d1361026261026293610d0b600090565b5060cc610ccc565b61201c565b610ce4565b90610d3061026261026293610d0b600090565b611ea6565b15610d3c57565b60405162461bcd60e51b815260206004820152601a60248201527f566f7465733a20626c6f636b206e6f7420796574206d696e65640000000000006044820152606490fd5b61026290610d90438210610d35565b60cd611ea6565b610dae61026291610da6600090565b5060cb610ccc565b546001600160a01b031690565b61024c9033610f3e565b610f3e565b15610dd157565b60405162461bcd60e51b815260206004820152601860248201527f566f7465733a207369676e6174757265206578706972656400000000000000006044820152606490fd5b610e4c61024c94610e45606094989795610e35608086019a6000870152565b6001600160a01b03166020850152565b6040830152565b0152565b15610e5757565b60405162461bcd60e51b8152602060048201526014602482015273566f7465733a20696e76616c6964206e6f6e636560601b6044820152606490fd5b939461024c958294610f23610f2894610f0b89610dc598610ec342610ebc610eb88490565b9190565b1115610dca565b610eff7fe48329057bfd03d55e49b547132e39cffd9c1820ad7b9d4c5307691425d15adf91610ef160405190565b958694602086019485610e16565b90810382520382610414565b610f1d610f16825190565b9160200190565b20612707565b6123d7565b91610f38610eb86102628561116d565b14610e50565b61024c91610fb3610f4e83610d97565b92610f6383610f5e8360cb610ccc565b610c52565b7f3134e8a2e6d97e929a7e54011ea5485d7d196dd5f0ba4d4ef95803e8e3fc257f610f8d82610c49565b610f9686610c49565b90610fa086610c49565b92610faa60405190565b600090a4611df8565b91610fd9565b6102626102626102629290565b90815260408101929161024c9160200152565b9091906001600160a01b0383166001600160a01b038216141580611109575b61100157505050565b6110379061100f6000610ad1565b906001600160a01b0382166001600160a01b038216036110ad575b506001600160a01b031690565b6001600160a01b0383160361104a575050565b6110659061105c6102628460cc610ccc565b60025b90611fae565b6110927fdec2bacdd2f05b59de34da9b523dff8be42e5e38e818c82fdb0bae774387a72493929392610c49565b926110a861109f60405190565b92839283610fc6565b0390a2565b6110c6846110bf6102628460cc610ccc565b600161105f565b6110f37fdec2bacdd2f05b59de34da9b523dff8be42e5e38e818c82fdb0bae774387a72493929392610c49565b9261110061109f60405190565b0390a23861102a565b506111146000610fb9565b8211610ff8565b634e487b7160e01b600052601160045260246000fd5b919061113c565b9290565b820180921161114757565b61111b565b6102629190611131565b9190820391821161114757565b6102629190611156565b6102626111849161117c600090565b5060ce610ccc565b9061024c611191836123a3565b926123b8565b6111a96102626102629261117c600090565b6123a3565b61026261264c565b156111bd57565b60405162461bcd60e51b815260206004820152602960248201527f4552433732313a2061646472657373207a65726f206973206e6f7420612076616044820152683634b21037bbb732b960b91b6064820152608490fd5b6102629081565b6102629054611214565b61125d61026291611234600090565b506112566112456103606000610ad1565b6001600160a01b03831614156111b6565b6068610ccc565b61121b565b1561126957565b60405162461bcd60e51b815260206004820152601860248201527f4552433732313a20696e76616c696420746f6b656e20494400000000000000006044820152606490fd5b6112bb9060005b506116d3565b6102626112cb6103606000610ad1565b6001600160a01b0383161415611262565b634e487b7160e01b600052602260045260246000fd5b9060016002830492168015611312575b602083101461130d57565b6112dc565b91607f1691611302565b8054600093929161133961132f836112f2565b8085529360200190565b916001811690811561138b575060011461135257505050565b6113659192939450600052602060002090565b916000925b8184106113775750500190565b80548484015260209093019260010161136a565b92949550505060ff1916825215156020020190565b906102629161131c565b9061024c6113c4926113bb60405190565b938480926113a0565b0383610414565b610262906113aa565b61026260656113cb565b61026260666113cb565b156113ef57565b60405162461bcd60e51b815260206004820152602160248201527f4552433732313a20617070726f76616c20746f2063757272656e74206f776e656044820152603960f91b6064820152608490fd5b1561144557565b60405162461bcd60e51b815260206004820152603d60248201527f4552433732313a20617070726f76652063616c6c6572206973206e6f7420746f60448201527f6b656e206f776e6572206f7220617070726f76656420666f7220616c6c0000006064820152608490fd5b9061024c916114fb6114c1836112ae565b6114df6001600160a01b0382166001600160a01b03851614156113e8565b336001600160a01b0382168114918215611500575b505061143e565b611981565b61150a925061155b565b38806114f4565b90610cd690610fb9565b610dae6102629161152a600090565b5061153481611ac9565b6069611511565b61024c919033611a53565b610262905b60ff1690565b6102629054611546565b6102629161157661157b9261156e600090565b50606a610ccc565b610ccc565b611551565b1561158757565b60405162461bcd60e51b815260206004820152602d60248201527f4552433732313a2063616c6c6572206973206e6f7420746f6b656e206f776e6560448201526c1c881bdc88185c1c1c9bdd9959609a1b6064820152608490fd5b61024c9291906115fa6115f584336116ea565b611580565b611865565b9061160c6104868361044e565b918252565b61026260006115ff565b610262611611565b909161024c9261163161161b565b925b61024c939291906116476115f584336116ea565b6116b4565b1561165357565b6040515b62461bcd60e51b815260206004820152603260248201527f4552433732313a207472616e7366657220746f206e6f6e20455243373231526560448201527131b2b4bb32b91034b6b83632b6b2b73a32b960711b6064820152608490fd5b9161024c93916116ce936116c9838383611865565b611b79565b61164c565b610dae610262916116e2600090565b506067611511565b6116f3826112ae565b916001600160a01b0383166001600160a01b03831614928315611740575b50821561171d57505090565b61173c91925061172f610b6a9161151b565b926001600160a01b031690565b1490565b61174d919350829061155b565b9138611711565b1561175b57565b60405162461bcd60e51b815260206004820152602560248201527f4552433732313a207472616e736665722066726f6d20696e636f72726563742060448201526437bbb732b960d91b6064820152608490fd5b156117b557565b60405162461bcd60e51b8152602060048201526024808201527f4552433732313a207472616e7366657220746f20746865207a65726f206164646044820152637265737360e01b6064820152608490fd5b916001600160a01b0360089290920291821b911b610c22565b9190611830610262610c6993610c49565b908354611806565b61024c9160009161181f565b9060001990610c22565b9061185e610262610c6992610fb9565b8254611844565b909161024c9261188f611877836112ae565b6118896001600160a01b038616610b6a565b14611754565b6000926118b26118a161036086610ad1565b6001600160a01b03841614156117ae565b6118e86118bf6001610fb9565b946118cc8686868661318a565b6118d8611877866112ae565b6118e3856069611511565b611838565b6119226119158360686115766118fe8683610ccc565b61190f8a61190b8361121b565b0390565b9061184e565b61190f866102fd8361121b565b61193182610f5e856067611511565b7fddf252ad1be2c89b69c2b068fc378daa952ba7f163c4a11628f55a4df523b3ef61195b82610c49565b61196484610c49565b9061196e86610fb9565b9261197860405190565b600090a4613a71565b9061199182610f5e836069611511565b61199a816112ae565b916119d76119d16119cb7f8c5be1e5ebec7d5bd14f71427d1e84f3dd0314c0f7b2291e5b200ac8c7c3b92595610c49565b92610c49565b92610fb9565b926119e160405190565b600090a4565b156119ee57565b60405162461bcd60e51b815260206004820152601960248201527f4552433732313a20617070726f766520746f2063616c6c6572000000000000006044820152606490fd5b9060ff90610c22565b90611a4c610262610c6992151590565b8254611a33565b611a716001600160a01b0383166001600160a01b03831614156119e7565b611a8983611a848461157685606a610ccc565b611a3c565b610cc7611abf611ab97f17307eab39ab6107e8899845ad3d59bd9653f200f220920489ca2b5937696c3193610c49565b93610c49565b9361028860405190565b611ad561024c91611ada565b611262565b611ae59060006112b5565b611af5610b6a6103606000610ad1565b141590565b9050519061024c82610227565b9060208282031261023a5761026291611afa565b6001600160a01b0390911681526102629360808201939092611b419190610e4590610e35565b60608184039101526102c9565b6040513d6000823e3d90fd5b3d15611b7457611b693d6115ff565b903d6000602084013e565b606090565b91909392611b85600090565b94611b8f81611e01565b15611c6d5790611bd66000611bae611ba960209695610c49565b610c49565b92611be163150b7a0291611bbf3390565b96611bc960405190565b998a988997889660e01b90565b865260048601611b1b565b03925af160009181611c3d575b50611c205750611bfc611b5a565b8051611c0b610eb86000610fb9565b03611c1857604051611657565b805190602001fd5b90915061173c630a85bd0160e11b5b916001600160e01b03191690565b611c5f91925060203d8111611c66575b611c578183610414565b810190611b07565b9038611bee565b503d611c4d565b5060019450505050565b15611c7e57565b60405162461bcd60e51b815260206004820152602b60248201527f455243373231456e756d657261626c653a206f776e657220696e646578206f7560448201526a74206f6620626f756e647360a81b6064820152608490fd5b61026291611d0961125d92611cea600090565b50611d01611cfa61026283611225565b8410611c77565b610161610ccc565b611511565b15611d1557565b60405162461bcd60e51b815260206004820152602c60248201527f455243373231456e756d657261626c653a20676c6f62616c20696e646578206f60448201526b7574206f6620626f756e647360a01b6064820152608490fd5b634e487b7160e01b600052603260045260246000fd5b8054821015611da857611d9f600191600052602060002090565b91020190600090565b611d6f565b610262916008021c81565b906102629154611dad565b611df261026291611dd2600090565b50611dea611de36102626101635490565b8210611d0e565b610163611d85565b90611db8565b61026290611225565b3b611e0f610eb86000610fb9565b1190565b15611e1a57565b60405162461bcd60e51b815280610b44600482016020808252818101527f436865636b706f696e74733a20626c6f636b206e6f7420796574206d696e6564604082015260600190565b610262905b63ffffffff1690565b6102629054611e63565b6102629060201c5b6001600160e01b031690565b6102629054611e7b565b611e836102626102629290565b611ec661026292611eb5600090565b50611ec1438210611e13565b612bc4565b90611efd611ed5600083015490565b600093611ee185610fb9565b9082611eed6005610fb9565b8111611f51575b5084860161232f565b611f0683610fb9565b816000939103611f1c57505050610d1890611e99565b610d18935090611f3f610eb884611f4b940192611f396001610fb9565b90611156565b60005260206000200190565b01611e8f565b80611f39611f61929593956127ee565b90611f7b611e6888611f75858a8301611f3f565b01611e71565b63ffffffff85161015611f915750915b38611ef4565b929150611fa890611fa26001610fb9565b90611131565b90611f8b565b90611fd892611fd291611fbf600090565b50611fcc610d188561201c565b90613e9e565b90611fdc565b9091565b61200f6120169392600061026293611ff2600090565b50019061200a61113861200443612bc4565b92612b2a565b6121ec565b9390610ce4565b92610ce4565b80549060009061202b82610fb9565b830361203c57506102629150611e99565b61026292611f3f610eb884611f4b940192611f396001610fb9565b610262604061043a565b634e487b7160e01b600052600060045260246000fd5b9063ffffffff90610c22565b611e686102626102629263ffffffff1690565b906120a6610262610c6992612083565b8254612077565b9063ffffffff199060201b610c22565b61026290611e83906001600160e01b031682565b906120e1610262610c69926120bd565b82546120ad565b61024c916121189060209061210a612104825163ffffffff1690565b85612096565b01516001600160e01b031690565b906120d1565b919061212d5761024c916120e8565b612061565b90815491600160401b831015610435578261215591600161024c95018155611d85565b9061211e565b9061024c612187600061216c612057565b94611f4b61217b838301611e71565b63ffffffff1687840152565b6001600160e01b03166020840152565b6102629061215b565b156121a757565b60405162461bcd60e51b815260206004820152601760248201527f436865636b706f696e743a20696e76616c6964206b65790000000000000000006044820152606490fd5b919291908154908460006121ff81610fb9565b8411156122f257906020939291610eb89560019461223d61223861222b61222589610fb9565b84611156565b8460005260206000200190565b612197565b9561227b848801612271612255825163ffffffff1690565b61226a63ffffffff8b165b9163ffffffff1690565b11156121a0565b5163ffffffff1690565b61228a63ffffffff8816612260565b036122b85761210a95506122b29291611f396122a592610fb9565b9060005260206000200190565b016120d1565b50509091506122da6122ed936122cc612057565b9384019063ffffffff169052565b6001600160e01b03881682860152612132565b61210a565b92505061232a90610eb893612316612308612057565b63ffffffff90931685840152565b6001600160e01b0387166020830152612132565b611e99565b9391909261233b600090565b505b8082101561239b5761234f818361278d565b906123666000611f75848960005260206000200190565b61237563ffffffff8716612260565b11156123845750915b9161233d565b92915061239590611fa26001610fb9565b9061237e565b925050915090565b6000610262916123b1600090565b500161121b565b61024c9061190f60006123cb6001610fb9565b9201916102fd8361121b565b9161026293916123ef936123e9600090565b50612597565b919091612426565b634e487b7160e01b600052602160045260246000fd5b6005111561241757565b6123f7565b9061024c8261240d565b612430600061241c565b6124398261241c565b036124415750565b61244b600161241c565b6124548261241c565b0361249e5760405162461bcd60e51b815260206004820152601860248201527f45434453413a20696e76616c6964207369676e617475726500000000000000006044820152606490fd5b6124a8600261241c565b6124b18261241c565b036124fb5760405162461bcd60e51b815260206004820152601f60248201527f45434453413a20696e76616c6964207369676e6174757265206c656e677468006044820152606490fd5b61250e612508600361241c565b9161241c565b1461251557565b60405162461bcd60e51b815260206004820152602260248201527f45434453413a20696e76616c6964207369676e6174757265202773272076616c604482015261756560f01b6064820152608490fd5b61026290610fb9565b610e4c61024c94610e4560609498979561258d608086019a6000870152565b60ff166020850152565b9192916125a383612565565b6125cf610eb87f7fffffffffffffffffffffffffffffff5d576e7357a4501ddfe92f46681b20a0610fb9565b11612638576125ef6000936020956125e660405190565b9485948561256e565b838052039060015afa15612633576000519060009161260d83610ad1565b6001600160a01b0381166001600160a01b0383161461262b57509190565b925050600190565b611b4e565b505050506126466000610ad1565b90600390565b6102627f8b73c3c69bb8fe3d512ecc4cf759cc79239f7b179b0ffacaa9a75d522b39400f612678612754565b61268061275e565b916126ce565b9095949261024c946126b86126bf926126b16080966126aa60a088019c6000890152565b6020870152565b6040850152565b6060830152565b01906001600160a01b03169052565b6126f89190610eff466126e030610c49565b906126ea60405190565b968795602087019586612686565b612703610f16825190565b2090565b6102629061271361264c565b61273b565b602080939261273561160c6102fd9461190160f01b815260020190565b01918252565b610eff916126f891604051938492602084019283612718565b610262609761121b565b610262609861121b565b634e487b7160e01b600052601260045260246000fd5b8115612788570490565b612768565b611fa26102629261279c600090565b5080831692186127ac6002610fb9565b9061277e565b61154b6102626102629290565b610262906127d3610eb86102629460ff1690565b901c90565b610262906127e9610eb86102629490565b901b90565b60006127f981610fb9565b82146128e05750600161280b826128fc565b612814826127b2565b8080808080966128258280986127bf565b9061282f90610fb9565b90612839916127d8565b612843818a61277e565b019061284e916127bf565b612858818961277e565b0190612863916127bf565b61286d818861277e565b0190612878916127bf565b612882818761277e565b019061288d916127bf565b612897818661277e565b01906128a2916127bf565b6128ac818561277e565b01906128b7916127bf565b6128c1818461277e565b01906128cc916127bf565b90816128d79161277e565b610262916128ea565b6102629150610fb9565b90808210156128f7575090565b905090565b60009061290882610fb9565b91608061291d612917826127b2565b846127bf565b848111612ab4575b50506040612935612917826127b2565b61293e83610fb9565b8111612a9a575b50506020612955612917826127b2565b61295e83610fb9565b8111612a80575b50506010612975612917826127b2565b61297e83610fb9565b8111612a66575b50506008612995612917826127b2565b61299e83610fb9565b8111612a4c575b505060046129b5612917826127b2565b6129be83610fb9565b8111612a32575b505060026129d5612917826127b2565b6129de83610fb9565b8111612a18575b5050612a02610eb86119d16001946129fc866127b2565b906127bf565b11612a0b575090565b906102fd61026292610fb9565b612a2a92949193506102fd9093610fb9565b9138806129e5565b612a4492949193506102fd9093610fb9565b9138806129c5565b612a5e92949193506102fd9093610fb9565b9138806129a5565b612a7892949193506102fd9093610fb9565b913880612985565b612a9292949193506102fd9093610fb9565b913880612965565b612aac92949193506102fd9093610fb9565b913880612945565b612ac692949193506102fd9093610fb9565b913880612925565b15612ad557565b60405162461bcd60e51b815260206004820152602760248201527f53616665436173743a2076616c756520646f65736e27742066697420696e20326044820152663234206269747360c81b6064820152608490fd5b6102629061232a612b416001600160e01b03610ce4565b821115612ace565b6102626102626102629263ffffffff1690565b15612b6357565b60405162461bcd60e51b815260206004820152602660248201527f53616665436173743a2076616c756520646f65736e27742066697420696e203360448201526532206269747360d01b6064820152608490fd5b611e686102626102629290565b61026290612be0612bd863ffffffff612b49565b821115612b5c565b612bb7565b6102629060081c61154b565b6102629054612be5565b15612c0257565b60405162461bcd60e51b815260206004820152602e60248201527f496e697469616c697a61626c653a20636f6e747261637420697320616c72656160448201526d191e481a5b9a5d1a585b1a5e995960921b6064820152608490fd5b61154b6102626102629260ff1690565b90611a4c610262610c6992612c5e565b9061ff009060081b610c22565b90612c9b610262610c6992151590565b8254612c7e565b610265906127b2565b60208101929161024c9190612ca2565b939095949192612d0e93612cd6612cd26000612bf1565b1590565b978880612db2575b8015612d6d575b612cee90612bfb565b60019689612d05612cfe8a6127b2565b6000612c6e565b612d5d57612dfa565b92612d165750565b612d21600080612c8b565b612d587f7f26b83ff96e1f2b6a682f133852f6798a09c465da95921460cefb384740249891612d4f60405190565b91829182612cab565b0390a1565b612d68886000612c8b565b612dfa565b50612d82612cd2612d7d30610c49565b611e01565b8015612ce55750612cee612d966000611551565b612daa612da360016127b2565b9160ff1690565b149050612ce5565b50612dbd6000611551565b612dca612da360016127b2565b10612cde565b610262913691610476565b612de560016115ff565b603160f81b602082015290565b610262612ddb565b90612e26612e3994612e20612e4e9897612e2b969550612e1a8686612dd0565b92612dd0565b90612f22565b612dd0565b612e33612df2565b90613115565b612e416130f1565b612e49612edf565b613e6a565b600190565b61026294939291906000612cbb565b15612e6957565b60405162461bcd60e51b815260206004820152602b60248201527f496e697469616c697a61626c653a20636f6e7472616374206973206e6f74206960448201526a6e697469616c697a696e6760a81b6064820152608490fd5b612ed4612ecf6000612bf1565b612e62565b61024c61024c612efe565b61024c612ec2565b612ef4612ecf6000612bf1565b61024c8033610c6d565b61024c612ee7565b9061024c91612f18612ecf6000612bf1565b9061024c916130da565b9061024c91612f06565b9061024c91612f3e612ecf6000612bf1565b6130c4565b9160001960089290920291821b911b610c22565b9190612f68610262610c6993610fb9565b908354612f43565b61024c91600091612f57565b818110612f87575050565b80612f956000600193612f70565b01612f7c565b9190601f8111612faa57505050565b612fbc61024c93600052602060002090565b906020601f840181900483019310612fde575b6020601f909101040190612f7c565b9091508190612fcf565b90612ff1815190565b906001600160401b038211610435576130148261300e85546112f2565b85612f9b565b602090601f831160011461304f57610c69929160009183613044575b5050600019600883021c1916906002021790565b015190503880613030565b601f1983169161306485600052602060002090565b9260005b8181106130a257509160029391856001969410613089575b50505002019055565b01516000196008601f8516021c19169055388080613080565b91936020600181928787015181550195019201613068565b9061024c91612fe8565b906130d361024c9260656130ba565b60666130ba565b9061024c91612f2c565b61024c612ecf6000612bf1565b61024c6130e4565b9061024c9161310b612ecf6000612bf1565b9061024c91613180565b9061024c916130f9565b9061024c91613131612ecf6000612bf1565b613144565b9061185e610262610c699290565b9061317961316561315561024c9490565b613160610f16825190565b209290565b613170610f16825190565b20916097613136565b6098613136565b9061024c9161311f565b61024c9391929161319e610eb86001610fb9565b11613234576131d26131b06000610ad1565b6001600160a01b0381166001600160a01b0384160361321157610360846132f3565b6001600160a01b038416036131ec575061024c91506133e0565b6001600160a01b03166001600160a01b03831603613208575050565b61024c91613297565b6001600160a01b0385166001600160a01b03841614610360576103608484613319565b60405162461bcd60e51b815260206004820152603560248201527f455243373231456e756d657261626c653a20636f6e7365637574697665207472604482015274185b9cd9995c9cc81b9bdd081cdd5c1c1bdc9d1959605a1b6064820152608490fd5b6132bd826132c261024c946132bd611d09956132b281611225565b968791610161610ccc565b61184e565b610162611511565b90815491600160401b83101561043557826132ed91600161024c95018155611d85565b90612f57565b61024c90613314610163610262613308825490565b6132bd85610164611511565b6132ca565b61336261024c92611d09600093611d018561336261334361333985611225565b611f396001610fb9565b9561016261335461125d8383611511565b888103613367575b50611511565b612f70565b806132bd886133968c6132bd61339c96611d0961338e61125d61016195611d098988610ccc565b958694610ccc565b84611511565b3861335c565b634e487b7160e01b600052603160045260246000fd5b805480156133db5760001901906133d86133d28383611d85565b90612f70565b55565b6133a2565b61343061024c916102626000613362610163936133fe613339865490565b611d09610164916132bd613422611df261341b61125d8888611511565b938b611d85565b613396816132ed858d611d85565b6133b8565b906102629291613443610b48565b613494565b1561344f57565b60405162461bcd60e51b815260206004820152601860248201527f746f6b656e4964206d7573742062652061206e756d62657200000000000000006044820152606490fd5b5090610262906134cf6134b46134aa6101635490565b611fa26001610fb9565b80946134ca6134c36000610fb9565b8311613448565b6134e1565b8261367d565b61026291906000613435565b61024c916134ed61161b565b6116ce9161024c936134ff82826135a5565b6116c96000610ad1565b1561351057565b60405162461bcd60e51b815280610b44600482016020808252818101527f4552433732313a206d696e7420746f20746865207a65726f2061646472657373604082015260600190565b1561356057565b60405162461bcd60e51b815260206004820152601c60248201527f4552433732313a20746f6b656e20616c7265616479206d696e746564000000006044820152606490fd5b61024c916135b36000610ad1565b916135d26001600160a01b0384166001600160a01b0383161415613509565b6135e66135e1612cd284611ada565b613559565b6135f06001610fb9565b926135fd8484848461318a565b61360c6135e1612cd285611ada565b611922611915836068610ccc565b1561362157565b60405162461bcd60e51b815260206004820152602e60248201527f45524337323155524953746f726167653a2055524920736574206f66206e6f6e60448201526d32bc34b9ba32b73a103a37b5b2b760911b6064820152608490fd5b9061369e61024c9261369661369182611ada565b61361a565b61012f611511565b6130ba565b9061026292916136b1610b48565b5090610262906134cf6136c76134aa6101635490565b80946136d66134c36000610fb9565b6135a5565b610262919060006136a3565b9061026295949392916136f8610b48565b61392b565b1561370457565b60405162461bcd60e51b815260206004820152601b60248201527f566f7465546f6b656e733a206c656e677468206d69736d6174636800000000006044820152606490fd5b60001981146111475760010190565b9190811015611da8576020020190565b35610262816103a1565b903590601e19368290030182121561023a57018035906001600160401b03821161023a576020019136829003831361023a57565b90821015611da8576020611fd89202810190613772565b506102629060208101906103b0565b818352602090920191906000825b8282106137e8575050505090565b909192936138176138106001926137ff88866137bd565b6001600160a01b0316815260200190565b9560200190565b939201906137da565b91906102f381613837816102fd9560209181520190565b809561046a565b906102629291613820565b9035601e19368390030181121561023a5701602081359101916001600160401b03821161023a5736829003831361023a57565b8183529160200190816138926020830284019490565b92836000925b8484106138a85750505050505090565b90919293949560206138d56138ce83856001950388526138c88b88613849565b9061383e565b9860200190565b940194019294939190613898565b60608082526006908201526545524337323160d01b60808201526102629490939092909161391d9160a086019186830360208801526137cc565b92604081850391015261387c565b509094919385929061393e8588146136fd565b6139486000610fb9565b875b811015613990576139898161398389610a5761397d848c61397761397261394a9a8f8f613758565b613768565b946137a6565b90612dd0565b50613749565b9050613948565b506139d79293949196506139a390610c6d565b7fe9cf017ba4d729e1978707aa33502aee468ce44c5a368cb6c75dabab70318886946139ce60405190565b948594856138e3565b0390a1600190565b610262949392919060006136e7565b6102629063780e9d6360e01b6001600160e01b0319821614908115613a11575090565b61026291506380ac58cd60e01b6001600160e01b0319821614908115613a46575b8115613a3c575090565b6102629150613a61565b6001600160e01b03198116635b5e139f60e01b149150613a32565b61173c6301ffc9a760e01b611c2f565b61024c9384935083929091613ad090613aca90613ab6613a916000610ad1565b6001600160a01b0381166001600160a01b03841614613ae8576001600160a01b031690565b6001600160a01b03851614613ad657610d97565b91610d97565b90610fd9565b613ae18560cd6110bf565b5050610d97565b613af38760cd61105c565b50506001600160a01b031690565b61026290613b3f565b6102fd613b2292602092613b1c815190565b94859290565b938491016102a6565b613b39906102629392613b0a565b90613b0a565b613b4881611ac9565b613b5c613b578261012f611511565b6113cb565b613b64613c10565b8051600090613b75610eb883610fb9565b14613bbc57613b88610eb86119d1855190565b11613b9857505061026290613bc3565b6102629250610eff9161026291613bae60405190565b938492602084019283613b2b565b5050905090565b613bcc81611ac9565b613bd4613c10565b8051613be3610eb86000610fb9565b1115613c0657610262610eff91613bfc61026294613c40565b90613bae60405190565b505061026261161b565b61026261161b565b369037565b9061024c613c33613c2d846115ff565b9361044e565b601f190160208401613c18565b613c4981613cc6565b90613c596001926102fd84610fb9565b9180613c6484613c1d565b936020018401905b613c77575b50505090565b613ca59060001901926f181899199a1a9b1b9c1cb0b131b232b360811b600a82061a84536127ac600a610fb9565b9081613cb4610eb86000610fb9565b14613cc157909181613c6c565b613c71565b613cd06000610fb9565b907a184f03e93ff9f4daa797ed6e38ed64bf6a1f010000000000000000613cf681610fb9565b821015613e48575b506d04ee2d6d415b85acef8100000000613d1781610fb9565b821015613e26575b50662386f26fc10000613d3181610fb9565b821015613e04575b506305f5e100613d4881610fb9565b821015613de2575b50612710613d5d81610fb9565b821015613dc0575b506064613d7181610fb9565b821015613d9e575b50613d87610eb8600a610fb9565b1015613d905790565b610262906102fd6001610fb9565b613db9916127ac613dae92610fb9565b916102fd6002610fb9565b9038613d79565b613ddb916127ac613dd092610fb9565b916102fd6004610fb9565b9038613d65565b613dfd916127ac613df292610fb9565b916102fd6008610fb9565b9038613d50565b613e1f916127ac613e1492610fb9565b916102fd6010610fb9565b9038613d39565b613e41916127ac613e3692610fb9565b916102fd6020610fb9565b9038613d1f565b613e63916127ac613e5892610fb9565b916102fd6040610fb9565b9038613cfe565b61024c906101c56130ba565b9061024c9161367d565b610262613c10565b634e487b7160e01b600052605160045260246000fd5b91909180600214613eb957600103613e885761026291611163565b506102629161114c56fea2646970667358221220510b9f8aea1bb88bfce1a13d9047fac59cf883c83f001b5c6ff6a2e817d37e0564736f6c63430008120033",
  "linkReferences": {},
  "deployedLinkReferences": {}
}