{
  "_format": "hh-sol-artifact-1",
  "contractName": "GovernorFactory",
  "sourceName": "contracts/GovernorFactory.sol",
  "abi": [
    {
      "anonymous": false,
      "inputs": [
        {
          "indexed": false,
          "internalType": "address",
          "name": "previousAdmin",
          "type": "address"
        },
        {
          "indexed": false,
          "internalType": "address",
          "name": "newAdmin",
          "type": "address"
        }
      ],
      "name": "AdminChanged",
      "type": "event"
    },
    {
      "anonymous": false,
      "inputs": [
        {
          "indexed": true,
          "internalType": "address",
          "name": "beacon",
          "type": "address"
        }
      ],
      "name": "BeaconUpgraded",
      "type": "event"
    },
    {
      "anonymous": false,
      "inputs": [
        {
          "indexed": false,
          "internalType": "uint256",
          "name": "id",
          "type": "uint256"
        },
        {
          "indexed": false,
          "internalType": "address",
          "name": "governor",
          "type": "address"
        },
        {
          "indexed": false,
          "internalType": "address",
          "name": "voteToken",
          "type": "address"
        },
        {
          "indexed": false,
          "internalType": "address",
          "name": "timelock",
          "type": "address"
        },
        {
          "indexed": false,
          "internalType": "address",
          "name": "treasury",
          "type": "address"
        }
      ],
      "name": "GovernorCreated",
      "type": "event"
    },
    {
      "anonymous": false,
      "inputs": [
        {
          "indexed": false,
          "internalType": "uint8",
          "name": "version",
          "type": "uint8"
        }
      ],
      "name": "Initialized",
      "type": "event"
    },
    {
      "anonymous": false,
      "inputs": [
        {
          "indexed": true,
          "internalType": "address",
          "name": "previousOwner",
          "type": "address"
        },
        {
          "indexed": true,
          "internalType": "address",
          "name": "newOwner",
          "type": "address"
        }
      ],
      "name": "OwnershipTransferred",
      "type": "event"
    },
    {
      "anonymous": false,
      "inputs": [
        {
          "indexed": true,
          "internalType": "address",
          "name": "implementation",
          "type": "address"
        }
      ],
      "name": "Upgraded",
      "type": "event"
    },
    {
      "anonymous": false,
      "inputs": [
        {
          "indexed": false,
          "internalType": "address",
          "name": "voteToken",
          "type": "address"
        },
        {
          "indexed": false,
          "internalType": "bytes",
          "name": "result",
          "type": "bytes"
        },
        {
          "indexed": false,
          "internalType": "bool",
          "name": "success",
          "type": "bool"
        }
      ],
      "name": "testing",
      "type": "event"
    },
    {
      "anonymous": false,
      "inputs": [
        {
          "indexed": false,
          "internalType": "address",
          "name": "voteTokenPreset",
          "type": "address"
        }
      ],
      "name": "testingFirst",
      "type": "event"
    },
    {
      "inputs": [
        {
          "internalType": "string",
          "name": "_name",
          "type": "string"
        },
        {
          "internalType": "address",
          "name": "_governorPreset",
          "type": "address"
        }
      ],
      "name": "addGovernorPreset",
      "outputs": [],
      "stateMutability": "nonpayable",
      "type": "function"
    },
    {
      "inputs": [
        {
          "internalType": "string",
          "name": "_name",
          "type": "string"
        },
        {
          "internalType": "address",
          "name": "_voteTokenPresets",
          "type": "address"
        }
      ],
      "name": "addVoteTokenPreset",
      "outputs": [],
      "stateMutability": "nonpayable",
      "type": "function"
    },
    {
      "inputs": [
        {
          "internalType": "string",
          "name": "_governorPreset",
          "type": "string"
        },
        {
          "internalType": "bytes",
          "name": "_governorInitializeData",
          "type": "bytes"
        },
        {
          "internalType": "string",
          "name": "_voteTokenPreset",
          "type": "string"
        },
        {
          "internalType": "bytes",
          "name": "_voteTokenInitializeData",
          "type": "bytes"
        },
        {
          "internalType": "bytes",
          "name": "_voteTokenInitialMintData",
          "type": "bytes"
        },
        {
          "internalType": "uint256",
          "name": "_timelockMinDelay",
          "type": "uint256"
        },
        {
          "internalType": "address[]",
          "name": "_timelockProposers",
          "type": "address[]"
        },
        {
          "internalType": "address[]",
          "name": "_timelockExecutors",
          "type": "address[]"
        },
        {
          "internalType": "address",
          "name": "_timelockAdmin",
          "type": "address"
        },
        {
          "internalType": "bytes32",
          "name": "salt",
          "type": "bytes32"
        }
      ],
      "name": "createGovernor",
      "outputs": [
        {
          "internalType": "address",
          "name": "governor",
          "type": "address"
        },
        {
          "internalType": "address",
          "name": "voteToken",
          "type": "address"
        },
        {
          "internalType": "address",
          "name": "timelock",
          "type": "address"
        },
        {
          "internalType": "address",
          "name": "treasury",
          "type": "address"
        }
      ],
      "stateMutability": "nonpayable",
      "type": "function"
    },
    {
      "inputs": [],
      "name": "getAllGovernorPresets",
      "outputs": [
        {
          "internalType": "string[]",
          "name": "",
          "type": "string[]"
        }
      ],
      "stateMutability": "view",
      "type": "function"
    },
    {
      "inputs": [],
      "name": "getAllVoteTokenPresets",
      "outputs": [
        {
          "internalType": "string[]",
          "name": "",
          "type": "string[]"
        }
      ],
      "stateMutability": "view",
      "type": "function"
    },
    {
      "inputs": [
        {
          "internalType": "string",
          "name": "_name",
          "type": "string"
        }
      ],
      "name": "getGovernorPresetAddress",
      "outputs": [
        {
          "internalType": "bool",
          "name": "",
          "type": "bool"
        },
        {
          "internalType": "address",
          "name": "",
          "type": "address"
        }
      ],
      "stateMutability": "view",
      "type": "function"
    },
    {
      "inputs": [
        {
          "internalType": "string",
          "name": "_name",
          "type": "string"
        }
      ],
      "name": "getVoteTokenPresetAddress",
      "outputs": [
        {
          "internalType": "bool",
          "name": "",
          "type": "bool"
        },
        {
          "internalType": "address",
          "name": "",
          "type": "address"
        }
      ],
      "stateMutability": "view",
      "type": "function"
    },
    {
      "inputs": [
        {
          "internalType": "uint256",
          "name": "",
          "type": "uint256"
        }
      ],
      "name": "governors",
      "outputs": [
        {
          "internalType": "address",
          "name": "governor",
          "type": "address"
        },
        {
          "internalType": "address",
          "name": "voteToken",
          "type": "address"
        },
        {
          "internalType": "address",
          "name": "timelock",
          "type": "address"
        },
        {
          "internalType": "address",
          "name": "treasury",
          "type": "address"
        }
      ],
      "stateMutability": "view",
      "type": "function"
    },
    {
      "inputs": [
        {
          "internalType": "address",
          "name": "_timelockController",
          "type": "address"
        },
        {
          "internalType": "address",
          "name": "_treasuryController",
          "type": "address"
        }
      ],
      "name": "initialize",
      "outputs": [],
      "stateMutability": "nonpayable",
      "type": "function"
    },
    {
      "inputs": [],
      "name": "initializeGovernor",
      "outputs": [],
      "stateMutability": "nonpayable",
      "type": "function"
    },
    {
      "inputs": [],
      "name": "owner",
      "outputs": [
        {
          "internalType": "address",
          "name": "",
          "type": "address"
        }
      ],
      "stateMutability": "view",
      "type": "function"
    },
    {
      "inputs": [
        {
          "internalType": "string",
          "name": "_governorPreset",
          "type": "string"
        },
        {
          "internalType": "bytes32",
          "name": "_salt",
          "type": "bytes32"
        }
      ],
      "name": "predictGovernorDeterministicAddress",
      "outputs": [
        {
          "internalType": "bool",
          "name": "",
          "type": "bool"
        },
        {
          "internalType": "address",
          "name": "",
          "type": "address"
        }
      ],
      "stateMutability": "view",
      "type": "function"
    },
    {
      "inputs": [
        {
          "internalType": "bytes32",
          "name": "_salt",
          "type": "bytes32"
        }
      ],
      "name": "predictTimelockDeterministicAddress",
      "outputs": [
        {
          "internalType": "address",
          "name": "",
          "type": "address"
        }
      ],
      "stateMutability": "view",
      "type": "function"
    },
    {
      "inputs": [
        {
          "internalType": "bytes32",
          "name": "_salt",
          "type": "bytes32"
        }
      ],
      "name": "predictTreasuryDeterministicAddress",
      "outputs": [
        {
          "internalType": "address",
          "name": "",
          "type": "address"
        }
      ],
      "stateMutability": "view",
      "type": "function"
    },
    {
      "inputs": [
        {
          "internalType": "string",
          "name": "_voteTokenPreset",
          "type": "string"
        },
        {
          "internalType": "bytes32",
          "name": "_salt",
          "type": "bytes32"
        }
      ],
      "name": "predictVoteTokenDeterministicAddress",
      "outputs": [
        {
          "internalType": "bool",
          "name": "",
          "type": "bool"
        },
        {
          "internalType": "address",
          "name": "",
          "type": "address"
        }
      ],
      "stateMutability": "view",
      "type": "function"
    },
    {
      "inputs": [],
      "name": "proxiableUUID",
      "outputs": [
        {
          "internalType": "bytes32",
          "name": "",
          "type": "bytes32"
        }
      ],
      "stateMutability": "view",
      "type": "function"
    },
    {
      "inputs": [],
      "name": "renounceOwnership",
      "outputs": [],
      "stateMutability": "nonpayable",
      "type": "function"
    },
    {
      "inputs": [],
      "name": "timelockController",
      "outputs": [
        {
          "internalType": "address",
          "name": "",
          "type": "address"
        }
      ],
      "stateMutability": "view",
      "type": "function"
    },
    {
      "inputs": [],
      "name": "totalGovernor",
      "outputs": [
        {
          "internalType": "uint256",
          "name": "",
          "type": "uint256"
        }
      ],
      "stateMutability": "view",
      "type": "function"
    },
    {
      "inputs": [
        {
          "internalType": "address",
          "name": "newOwner",
          "type": "address"
        }
      ],
      "name": "transferOwnership",
      "outputs": [],
      "stateMutability": "nonpayable",
      "type": "function"
    },
    {
      "inputs": [],
      "name": "treasuryController",
      "outputs": [
        {
          "internalType": "address",
          "name": "",
          "type": "address"
        }
      ],
      "stateMutability": "view",
      "type": "function"
    },
    {
      "inputs": [
        {
          "internalType": "address",
          "name": "newImplementation",
          "type": "address"
        }
      ],
      "name": "upgradeTo",
      "outputs": [],
      "stateMutability": "nonpayable",
      "type": "function"
    },
    {
      "inputs": [
        {
          "internalType": "address",
          "name": "newImplementation",
          "type": "address"
        },
        {
          "internalType": "bytes",
          "name": "data",
          "type": "bytes"
        }
      ],
      "name": "upgradeToAndCall",
      "outputs": [],
      "stateMutability": "payable",
      "type": "function"
    },
    {
      "inputs": [
        {
          "internalType": "bytes32",
          "name": "",
          "type": "bytes32"
        }
      ],
      "name": "usedSalts",
      "outputs": [
        {
          "internalType": "bool",
          "name": "",
          "type": "bool"
        }
      ],
      "stateMutability": "view",
      "type": "function"
    }
  ],
  "bytecode": "0x60a0604052346200003657620000146200003b565b604051612980620000938239608051818181611d900152611ed3015261298090f35b600080fd5b6200004562000082565b565b6200005d9062000060906001600160a01b031682565b90565b6001600160a01b031690565b6200005d9062000047565b6200005d906200006c565b6200008d3062000077565b60805256fe6101a0604052600436101561001357600080fd5b60003560e01c80630b0fdb3d14610193578063185805091461018e5780632d4af46314610189578063346c86f9146101845780633659cfe61461017f578063485cc9551461017a5780634f1ef2861461017557806352d1902d14610170578063548c88981461016b578063685e6f3814610166578063715018a6146101615780638049e8161461015c578063853da580146101575780638da5cb5b1461015257806391972d831461014d578063a4517b3114610148578063a7277b0014610143578063ab085d871461013e578063b91c299614610139578063d8c5d98314610134578063eb7c1d531461012f578063f2fde38b1461012a578063f3388e75146101255763f704dc07036101a157610ab1565b610a96565b610a72565b610a62565b610a49565b610a30565b610a17565b6109c7565b61091e565b61071e565b610703565b6106dc565b6105e3565b6105a0565b610587565b610543565b6104f6565b6104d7565b6103c3565b610383565b610338565b610303565b6102d4565b610211565b805b036101a157565b600080fd5b905035906101b382610198565b565b906020828203126101a1576101c9916101a6565b90565b905b600052602052604060002090565b6101c9916008021c5b60ff1690565b906101c991546101dc565b6101c99061020860d5916000926101cc565b6101eb565b9052565b346101a15761023e61022c6102273660046101b5565b6101f6565b60405191829182901515815260200190565b0390f35b909182601f830112156101a1578135916001600160401b0383116101a15760200192600183028401116101a157565b916040838303126101a15782356001600160401b0381116101a15761029b836101c9928601610242565b9390946020016101a6565b6001600160a01b031690565b90151581526040810192916101b3916020905b01906001600160a01b03169052565b346101a1576102ed6102e7366004610271565b916117c1565b9061023e6102fa60405190565b928392836102b2565b346101a15761023e61031e6103193660046101b5565b6117ce565b604051918291826001600160a01b03909116815260200190565b346101a15761023e61031e61034e3660046101b5565b6117e1565b6001600160a01b03811661019a565b905035906101b382610353565b906020828203126101a1576101c991610362565b346101a15761039b61039636600461036f565b611f82565b604051005b91906040838203126101a1576101c9906103ba8185610362565b93602001610362565b346101a15761039b6103d63660046103a0565b90610d58565b634e487b7160e01b600052604160045260246000fd5b90601f01601f191681019081106001600160401b0382111761041357604052565b6103dc565b906101b361042560405190565b92836103f2565b6001600160401b03811161041357602090601f01601f19160190565b0190565b90826000939282370152565b9092919261046d6104688261042c565b610418565b938185526020850190828401116101a1576101b39261044c565b9080601f830112156101a1578160206101c993359101610458565b9190916040818403126101a1576104b98382610362565b9260208201356001600160401b0381116101a1576101c99201610487565b61039b6104e53660046104a2565b9061237e565b60009103126101a157565b346101a1576105063660046104eb565b61023e610511611df2565b6040519182918290815260200190565b6101c9916008021c81565b906101c99154610521565b6101c9600060d361052c565b346101a1576105533660046104eb565b61023e610511610537565b906020828203126101a15781356001600160401b0381116101a1576105839201610242565b9091565b346101a1576102ed61059a36600461055e565b90611997565b346101a1576105b03660046104eb565b61039b611ae9565b6101c9916008021c6001600160a01b031690565b906101c991546105b8565b6101c9600060d26105cc565b346101a1576105f33660046104eb565b61023e61031e6105d7565b60005b8381106106115750506000910152565b8181015183820152602001610601565b61064261064b60209361044893610636815190565b80835293849260200190565b958691016105fe565b601f01601f191690565b906101c991610621565b9061067561066b835190565b8083529160200190565b90816106876020830284019460200190565b926000915b83831061069b57505050505090565b909192939460206106be6106b783856001950387528951610655565b9760200190565b930193019193929061068c565b60208082526101c99291019061065f565b346101a1576106ec3660046104eb565b61023e6106f76118de565b604051918291826106cb565b346101a1576107133660046104eb565b61023e61031e611a4d565b346101a1576102ed61073136600461055e565b90611958565b6001600160401b0381116104135760208091020190565b9092919261075e61046882610737565b93818552602080860192028301928184116101a157915b8383106107825750505050565b602080916107908486610362565b815201920191610775565b9080601f830112156101a1578160206101c99335910161074e565b919091610140818403126101a15780356001600160401b0381116101a157836107e0918301610242565b92909360208301356001600160401b0381116101a15781610802918501610242565b92909360408101356001600160401b0381116101a15783610824918301610242565b92909360608301356001600160401b0381116101a15781610846918501610242565b92909360808101356001600160401b0381116101a15783610868918301610242565b9290936108788160a085016101a6565b9260c08101356001600160401b0381116101a1578261089891830161079b565b9260e08201356001600160401b0381116101a1576108bb846101c992850161079b565b936108ca816101008601610362565b93610120016101a6565b6102c56101b39461090e6060949897956108fe608086019a60008701906001600160a01b03169052565b6001600160a01b03166020850152565b6001600160a01b03166040830152565b346101a15761023e61094c6109343660046107b6565b9d9c909c9b919b9a929a9993999894989795976113f2565b9061095994929460405190565b948594856108d4565b6101c96101c96101c99290565b906101ce90610962565b6101c9906102a6565b6101c99054610979565b6109979060d461096f565b906109a182610982565b916109ae60018201610982565b916101c960036109c060028501610982565b9301610982565b346101a15761023e61094c6109dd3660046101b5565b61098c565b916040838303126101a15782356001600160401b0381116101a157610a0c836101c9928601610242565b939094602001610362565b346101a15761039b610a2a3660046109e2565b91610e9d565b346101a1576102ed610a43366004610271565b91611797565b346101a15761039b610a5c3660046109e2565b91610ee9565b346101a15761039b3660046104eb565b346101a15761039b610a8536600461036f565b611b82565b6101c9600060d16105cc565b346101a157610aa63660046104eb565b61023e61031e610a8a565b346101a157610ac13660046104eb565b61023e6106f7611871565b6101c99060081c6101e5565b6101c99054610acc565b6101c9906101e5565b6101c99054610ae2565b6101e56101c96101c99290565b6101c9906102a6906001600160a01b031682565b6101c990610b02565b6101c990610b16565b15610b2f57565b60405162461bcd60e51b815260206004820152602e60248201527f496e697469616c697a61626c653a20636f6e747261637420697320616c72656160448201526d191e481a5b9a5d1a585b1a5e995960921b6064820152608490fd5b0390fd5b9060ff905b9181191691161790565b6101e56101c96101c99260ff1690565b90610bbe6101c9610bc592610b9e565b8254610b8f565b9055565b9061ff009060081b610b94565b90610be66101c9610bc592151590565b8254610bc9565b61020d90610af5565b6020810192916101b39190610bed565b90610c53610c1b610c176000610ad8565b1590565b918280610cf6575b8015610cb1575b610c3390610b28565b60019383610c4a610c4387610af5565b6000610bae565b610ca157610d3a565b610c5a5750565b610c65600080610bd6565b610c9c7f7f26b83ff96e1f2b6a682f133852f6798a09c465da95921460cefb384740249891610c9360405190565b91829182610bf6565b0390a1565b610cac856000610bd6565b610d3a565b50610cc6610c17610cc130610b1f565b612388565b8015610c2a5750610c33610cda6000610aeb565b610cee610ce76001610af5565b9160ff1690565b149050610c2a565b50610d016000610aeb565b610d0e610ce76001610af5565b10610c23565b906001600160a01b0390610b94565b90610d336101c9610bc592610b1f565b8254610d14565b90610d49610d509260d1610d23565b60d2610d23565b6101b3611a21565b906101b391610c06565b906101b39291610d70611aa7565b610dc1565b15610d7c57565b60405162461bcd60e51b815260206004820152601d60248201527f476f7665726e6f72466163746f72793a20696e76616c6964206e616d650000006044820152606490fd5b6101b3929190610ded82610dd5565b905090565b610de6610de26020610962565b9190565b1115610d75565b610e48565b9091610448908390809361044c565b90916101c992610df2565b5190565b610e25610e0c610e1e835190565b9260200190565b9060208110610e32575090565b610e4490600019906020036008021b90565b1690565b9091610e93610e82610e8e610e9a95610e6a610e65610dd0838991565b610af5565b95610e7460405190565b938492602084019283610e01565b908103825203826103f2565b610e10565b60c9612416565b50565b906101b39291610d62565b906101b39291610eb6611aa7565b6101b3929190610ec582610dd5565b9091610ee2610e82610e8e610e9a95610e6a610e65610dd0838991565b60cd612416565b906101b39291610ea8565b15610efb57565b60405162461bcd60e51b815260206004820152601a60248201527f476f7665726e6f72466163746f72793a2073616c7420757365640000000000006044820152606490fd5b15610f4757565b60405162461bcd60e51b815260206004820152602a60248201527f476f7665726e6f72466163746f72793a20676f7665726e6f7220707265736574604482015269081b9bdd08195e1a5cdd60b21b6064820152608490fd5b15610fa657565b60405162461bcd60e51b815260206004820152602c60248201527f476f7665726e6f72466163746f72793a20766f746520746f6b656e207072657360448201526b195d081b9bdd08195e1a5cdd60a21b6064820152608490fd5b9061100d6104688361042c565b918252565b3d1561102c576110213d611000565b903d6000602084013e565b606090565b1561103857565b60405162461bcd60e51b815260206004820152603560248201527f476f7665726e6f72466163746f72793a206661696c656420746f2063616c6c2060448201527434b734ba34b0b634bd32903b37ba32903a37b5b2b760591b6064820152608490fd5b156110a257565b60405162461bcd60e51b815260206004820152603760248201527f476f7665726e6f72466163746f72793a206661696c656420746f2063616c6c2060448201527f766f746520746f6b656e20696e697469616c206d696e740000000000000000006064820152608490fd5b80151561019a565b905051906101b38261110d565b906020828203126101a1576101c991611115565b1561113d57565b60405162461bcd60e51b815260206004820152602e60248201527f476f7665726e6f72466163746f72793a206661696c656420746f20696e69746960448201526d30b634bd329033b7bb32b93737b960911b6064820152608490fd5b156111a057565b60405162461bcd60e51b815260206004820152603360248201527f476f7665726e6f72466163746f72793a206661696c656420746f2063616c6c2060448201527234b734ba34b0b634bd329033b7bb32b93737b960691b6064820152608490fd5b9061121a610e1e611210845190565b8084529260200190565b9060005b81811061122b5750505090565b90919261125161124a60019286516001600160a01b0316815260200190565b9460200190565b92910161121e565b9493916101b3936112866060936112949361127960808b019260008c0152565b89820360208b0152611201565b908782036040890152611201565b9401906001600160a01b03169052565b6040513d6000823e3d90fd5b6101c99081565b6101c990546112b0565b6101c96080610418565b6101b391906112ed906060906003906112f3818587516001600160a01b031690565b90610d23565b61130e600182016112ed60208801516001600160a01b031690565b611329600282016112ed60408801516001600160a01b031690565b019201516001600160a01b031690565b906101b3916112cb565b909594926101b3946113876102c59261137760809661136760a088019c6000890152565b6001600160a01b03166020870152565b6001600160a01b03166040850152565b6001600160a01b03166060830152565b90610bbe6101c9610bc592151590565b634e487b7160e01b600052601160045260246000fd5b60001981146113cc5760010190565b6113a7565b9060001990610b94565b906113eb6101c9610bc592610962565b82546113d1565b9e9a979492989c96939e9d959b9d61018052610160526101405260a05260c05261012052608052611421600090565b506080516114309060d56101cc565b61143990610aeb565b1561144390610ef4565b61016051610180519061145591611958565b9061145f90610f40565b60805161146b91611c30565b93849960a05161147a91611997565b9061148490610f9f565b60805161149091611c30565b60e05260e051986114a160d1610982565b6080516114ad91611c30565b9485996114ba60d2610982565b6080516114c691611c30565b6101005261010051996114d860405190565b809160c0516114e79183610e01565b0360e051905a9260008094938194f1906114ff611012565b9161150990611031565b6040518091610120519061151d9183610e01565b0360e051905a9260008094938194f1611534611012565b5061153e9061109b565b80516020820101906020019061155391611122565b61155c90611136565b8661156660405190565b809261014051906115779183610e01565b035a9260008094938194f161158a611012565b9061159490611199565b8051602082010190602001906115a991611122565b6115b290611136565b6115bb85610b1f565b6115c490610b1f565b9063c4c4c7b393823b156101a1576000946115ff86926115f4946115e760405190565b998a988997889660e01b90565b865260048601611259565b03925af180156117665761176b575b5061162361161e61010051610b1f565b610b1f565b63c4d66de890803b156101a1576116499160009161164060405190565b93849260e01b90565b82526001600160a01b0385166004830152602490829084905af1801561176657611748575b5061167960d36112b7565b6116d26116846112c1565b6001600160a01b038516815260e0516001600160a01b031660208201526001600160a01b0384166040820152610100516001600160a01b031660608201526116cd8360d461096f565b611339565b6117127fdf38fa2ebbb950a0c6e1f49226f4335ff3864ec60dede5cd1ad71c968614574f9361170060405190565b938493610100519260e0519186611343565b0390a161172c600161172760805160d56101cc565b611397565b6101b361174161173c60d36112b7565b6113bd565b60d36113db565b61176090600061175881836103f2565b8101906104eb565b3861166e565b6112a4565b61177b90600061175881836103f2565b3861160e565b6102a66101c96101c99290565b6101c990611781565b9192916117a49190611958565b909283156117b5576101c991611c94565b50506101c9600061178e565b9192916117a49190611997565b6101c9906117dc60d1610982565b611c94565b6101c9906117dc60d2610982565b9061100d61046883610737565b60005b82811061180b57505050565b6060828201526020016117ff565b906101b361182f611829846117ef565b93610737565b601f1901602084016117fc565b634e487b7160e01b600052603260045260246000fd5b9061185b825190565b81101561186c576020809102010190565b61183c565b61187b60c96126ba565b61188b611886825190565b611819565b906118966000610962565b6118a16101c9835190565b8110156118d957806118b9610e0c6118d49385611852565b6118c38286611852565b526118ce8185611852565b506113bd565b611896565b505090565b6118e860cd6126ba565b6118f3611886825190565b906118fe6000610962565b6119096101c9835190565b8110156118d957806118b9610e0c6119219385611852565b6118fe565b6105839392919061193684610dd5565b6105839361195193610e8293610e8e935050610e7460405190565b60c96125b2565b6105839190600080611926565b6105839392919061197584610dd5565b6105839361199093610e8293610e8e935050610e7460405190565b60cd6125b2565b6105839190600080611965565b156119ab57565b60405162461bcd60e51b815260206004820152602b60248201527f496e697469616c697a61626c653a20636f6e7472616374206973206e6f74206960448201526a6e697469616c697a696e6760a81b6064820152608490fd5b611a16611a116000610ad8565b6119a4565b6101b36101b3611a45565b6101b3611a04565b611a36611a116000610ad8565b6101b38033611b8b565b611b8b565b6101b3611a29565b6101c96033610982565b15611a5e57565b60405162461bcd60e51b815280610b8b600482016020808252818101527f4f776e61626c653a2063616c6c6572206973206e6f7420746865206f776e6572604082015260600190565b6101b3611ab2611a4d565b611acb611abe336102a6565b916001600160a01b031690565b14611a57565b611ad9611aa7565b6101b36101b3611a40600061178e565b6101b3611ad1565b6101b390611afd611aa7565b611b5d565b15611b0957565b60405162461bcd60e51b815260206004820152602660248201527f4f776e61626c653a206e6577206f776e657220697320746865207a65726f206160448201526564647265737360d01b6064820152608490fd5b6101b390611a40611b716102a6600061178e565b6001600160a01b0383161415611b02565b6101b390611af1565b611b956033610982565b90611ba1816033610d23565b611bd4611bce7f8be0079c531659141344cd1fd0a4f28419497f9722a3daafe3b4186f6b6457e093610b1f565b91610b1f565b91611bde60405190565b600090a3565b15611beb57565b60405162461bcd60e51b815260206004820152601760248201527f455243313136373a2063726561746532206661696c65640000000000000000006044820152606490fd5b6e5af43d82803e903d91602b57fd5bf390763d602d80600a3d3981f3363d3d373d3d3d363d730000008160601b60e81c1760005260781b17602052603760096000f5906101b3611c836102a6600061178e565b6001600160a01b0384161415611be4565b6101c991611ca130610b1f565b604391605593611caf600090565b506040519260388401526f5af43d82803e903d91602b57fd5bf3ff60248401526014830152733d602d80600a3d3981f3363d3d373d3d3d363d73825260588201526037600c8201206078820152012090565b15611d0857565b60405162461bcd60e51b815260206004820152603860248201527f555550535570677261646561626c653a206d757374206e6f742062652063616c60448201527f6c6564207468726f7567682064656c656761746563616c6c00000000000000006064820152608490fd5b6101c990611dbb611d8330610b1f565b611db56001600160a01b037f000000000000000000000000000000000000000000000000000000000000000016611abe565b14611d01565b611de9565b6101c97f360894a13ba1a3210667c828492db98dca3e2076cc3735a920a3ca505d382bbc610962565b506101c9611dc0565b6101c96000611d73565b15611e0357565b60405162461bcd60e51b815260206004820152602c60248201527f46756e6374696f6e206d7573742062652063616c6c6564207468726f7567682060448201526b19195b1959d85d1958d85b1b60a21b6064820152608490fd5b15611e6457565b60405162461bcd60e51b815260206004820152602c60248201527f46756e6374696f6e206d7573742062652063616c6c6564207468726f7567682060448201526b6163746976652070726f787960a01b6064820152608490fd5b6101b390611f2e611ece30610b1f565b611f0d7f000000000000000000000000000000000000000000000000000000000000000091611f06611abe846001600160a01b031690565b1415611dfc565b611f28611abe611f1b611f9d565b926001600160a01b031690565b14611e5d565b611f5b565b369037565b906101b3611f4e611f4884611000565b9361042c565b601f190160208401611f33565b6101b390611f6881611f94565b600090611f7c611f7783610962565b611f38565b9061205b565b6101b390611ebe565b506101b3611aa7565b6101b390611f8b565b6101c96000611fad6101c9611dc0565b01610982565b6101c97f4910fdfa16fed3260ed0e7147f7cc6da11a60208b5b9406d12a635614ffd9143610962565b905051906101b382610198565b906020828203126101a1576101c991611fdc565b1561200457565b60405162461bcd60e51b815260206004820152602960248201527f45524331393637557067726164653a20756e737570706f727465642070726f786044820152681a58589b195555525160ba1b6064820152608490fd5b9190612073600061206d6101c9611fb3565b01610aeb565b156120835750506101b3906121ca565b6120a3602061209461161e86610b1f565b6352d1902d9061164060405190565b825260049082905afa60009181612138575b50612117575060405162461bcd60e51b815260206004820152602e60248201527f45524331393637557067726164653a206e657720696d706c656d656e7461746960448201526d6f6e206973206e6f74205555505360901b6064820152608490fd5b926121336101b39461212d610de26101c9611dc0565b14611ffd565b6121f2565b61215a91925060203d8111612161575b61215281836103f2565b810190611fe9565b90386120b5565b503d612148565b1561216f57565b60405162461bcd60e51b815260206004820152602d60248201527f455243313936373a206e657720696d706c656d656e746174696f6e206973206e60448201526c1bdd08184818dbdb9d1c9858dd609a1b6064820152608490fd5b6101b3906121df6121da82612388565b612168565b60006121ec6101c9611dc0565b01610d23565b916121fc8361222e565b815161220b610de26000610962565b11908115612226575b5061221d575050565b610e9a91612317565b905038612214565b612237816121ca565b6122617fbc7cd75a20ee27fd9adebab32041f755214dbc6bffa90cc0225b39da2e5c2d3b91610b1f565b9061226b60405190565b600090a2565b1561227857565b60405162461bcd60e51b815260206004820152602660248201527f416464726573733a2064656c65676174652063616c6c20746f206e6f6e2d636f6044820152651b9d1c9858dd60d21b6064820152608490fd5b6122d66027611000565b7f416464726573733a206c6f772d6c6576656c2064656c65676174652063616c6c6020820152660819985a5b195960ca1b604082015290565b6101c96122cc565b600080916101c993612327606090565b5061233961233483612388565b612271565b602081019051915af461234a611012565b61235261230f565b9161239a565b906101b391612369611ece30610b1f565b6101b39161237682611f94565b60019161205b565b906101b391612358565b3b612396610de26000610962565b1190565b909190156123a6575090565b906123bd565b60208082526101c992910190610621565b906123c6825190565b6123d3610de26000610962565b11156123e25750805190602001fd5b610b8b906123ef60405190565b62461bcd60e51b8152918291600483016123ac565b6101c99081906001600160a01b031681565b9061244961244561244061243b60006101c9989796612433600090565b500195610b16565b612404565b610962565b9290565b61245c565b906113eb6101c9610bc59290565b6000906104486101c99561248961249b9596612476600090565b5061248488600287016101cc565b61244e565b61249686600385016101cc565b610bae565b906124b260006101c9936124ad600090565b500190565b612533565b805482101561186c576124d1600191600052602060002090565b91020190600090565b9160001960089290920291821b911b610b94565b91906124fd6101c9610bc59390565b9083546124da565b9081549168010000000000000000831015610413578261252d9160016101b3950181556124b7565b906124ee565b612540610c178383612579565b156125725761256d916125689060016125618461255d8482612505565b5490565b93016101cc565b6113db565b600190565b5050600090565b6125979160016125929261258b600090565b50016101cc565b6112b7565b6125a4610de26000610962565b141590565b6101c990610962565b6125e06125d36125db94936125ce60006101c9956124ad600090565b6125e5565b9490946125a9565b611781565b610b16565b91906125f761259282600286016101cc565b926126026000610962565b93848103612615575090610de29161261f565b9350505060019190565b9061263160006101c9936124ad600090565b9061264360006101c9936124ad600090565b612579565b60005b82811061265757505050565b60608282015260200161264b565b906101b3612675611829846117ef565b601f190160208401612648565b6101c96101c96101c99260ff1690565b60ff1660ff81146113cc5760010190565b906126ac825190565b81101561186c570160200190565b906126c482612885565b906126d56126d0835190565b612665565b6000916126e183610962565b945b6126ee6101c9865190565b8610156127ea57612702610e0c8787611852565b9161273161270f60405190565b8094612725602083019182610448816020939052565b908103825203846103f2565b612747612741610e0c8989611852565b836127f3565b95612754611f7788612682565b61275e8987611852565b526127698886611852565b5061277386610af5565b60ff881660ff821610156127d457806127a861279a6127946127cf94612682565b886126a3565b516001600160f81b03191690565b6127c96127b58c8a611852565b51918a1a916127c384612682565b906126a3565b53612692565b612773565b509550956127e39192506113bd565b94906126e3565b50935091505090565b9061280560006101c9936124ad600090565b612856565b1561281157565b60405162461bcd60e51b815260206004820152601e60248201527f456e756d657261626c654d61703a206e6f6e6578697374656e74206b657900006044820152606490fd5b61286d9160036128689261258b600090565b610aeb565b6101c961287a6000610af5565b60ff8316141561280a565b61289d6000806101c993612897606090565b50010190565b606090610dd090612935565b906128c46128b8611210845490565b92600052602060002090565b9060005b8181106128d55750505090565b9091926128f96128f26001926128ea876112b7565b815260200190565b9460010190565b9291016128c8565b906101c9916128a9565b906101b36129259261291c60405190565b93848092612901565b03836103f2565b6101c99061290b565b60006101c991612943606090565b500161292c56fea264697066735822122025aa4de8aaf7de75c70d9ae5cf897a0dadcbe511466fdcc30713fb1cf733179e64736f6c63430008120033",
  "linkReferences": {},
  "deployedLinkReferences": {}
}