{
  "_format": "hh-sol-artifact-1",
  "contractName": "StandardGovernor",
  "sourceName": "contracts/GovernorTemplates/StandardGovernor.sol",
  "abi": [
    {
      "inputs": [],
      "name": "Empty",
      "type": "error"
    },
    {
      "anonymous": false,
      "inputs": [
        {
          "indexed": false,
          "internalType": "uint8",
          "name": "version",
          "type": "uint8"
        }
      ],
      "name": "Initialized",
      "type": "event"
    },
    {
      "anonymous": false,
      "inputs": [
        {
          "indexed": false,
          "internalType": "bytes32",
          "name": "proposalId",
          "type": "bytes32"
        }
      ],
      "name": "ProposalCanceled",
      "type": "event"
    },
    {
      "anonymous": false,
      "inputs": [
        {
          "indexed": false,
          "internalType": "bytes32",
          "name": "proposalId",
          "type": "bytes32"
        },
        {
          "indexed": false,
          "internalType": "address",
          "name": "proposer",
          "type": "address"
        },
        {
          "indexed": false,
          "internalType": "address[]",
          "name": "targets",
          "type": "address[]"
        },
        {
          "indexed": false,
          "internalType": "uint256[]",
          "name": "values",
          "type": "uint256[]"
        },
        {
          "indexed": false,
          "internalType": "string[]",
          "name": "signatures",
          "type": "string[]"
        },
        {
          "indexed": false,
          "internalType": "bytes[]",
          "name": "calldatas",
          "type": "bytes[]"
        },
        {
          "indexed": false,
          "internalType": "uint256",
          "name": "startBlock",
          "type": "uint256"
        },
        {
          "indexed": false,
          "internalType": "uint256",
          "name": "endBlock",
          "type": "uint256"
        },
        {
          "indexed": false,
          "internalType": "string",
          "name": "description",
          "type": "string"
        }
      ],
      "name": "ProposalCreated",
      "type": "event"
    },
    {
      "anonymous": false,
      "inputs": [
        {
          "indexed": false,
          "internalType": "bytes32",
          "name": "proposalId",
          "type": "bytes32"
        }
      ],
      "name": "ProposalExecuted",
      "type": "event"
    },
    {
      "anonymous": false,
      "inputs": [
        {
          "indexed": false,
          "internalType": "bytes32",
          "name": "proposalId",
          "type": "bytes32"
        },
        {
          "indexed": false,
          "internalType": "uint256",
          "name": "eta",
          "type": "uint256"
        }
      ],
      "name": "ProposalQueued",
      "type": "event"
    },
    {
      "anonymous": false,
      "inputs": [
        {
          "indexed": false,
          "internalType": "uint256",
          "name": "oldProposalThreshold",
          "type": "uint256"
        },
        {
          "indexed": false,
          "internalType": "uint256",
          "name": "newProposalThreshold",
          "type": "uint256"
        }
      ],
      "name": "ProposalThresholdSet",
      "type": "event"
    },
    {
      "anonymous": false,
      "inputs": [
        {
          "indexed": false,
          "internalType": "uint256",
          "name": "oldQuorumNumerator",
          "type": "uint256"
        },
        {
          "indexed": false,
          "internalType": "uint256",
          "name": "newQuorumNumerator",
          "type": "uint256"
        }
      ],
      "name": "QuorumNumeratorUpdated",
      "type": "event"
    },
    {
      "anonymous": false,
      "inputs": [
        {
          "indexed": false,
          "internalType": "address",
          "name": "oldTimelock",
          "type": "address"
        },
        {
          "indexed": false,
          "internalType": "address",
          "name": "newTimelock",
          "type": "address"
        }
      ],
      "name": "TimelockChange",
      "type": "event"
    },
    {
      "anonymous": false,
      "inputs": [
        {
          "indexed": true,
          "internalType": "address",
          "name": "voter",
          "type": "address"
        },
        {
          "indexed": false,
          "internalType": "bytes32",
          "name": "proposalId",
          "type": "bytes32"
        },
        {
          "indexed": false,
          "internalType": "uint8",
          "name": "support",
          "type": "uint8"
        },
        {
          "indexed": false,
          "internalType": "uint256",
          "name": "weight",
          "type": "uint256"
        },
        {
          "indexed": false,
          "internalType": "string",
          "name": "reason",
          "type": "string"
        }
      ],
      "name": "VoteCast",
      "type": "event"
    },
    {
      "anonymous": false,
      "inputs": [
        {
          "indexed": true,
          "internalType": "address",
          "name": "voter",
          "type": "address"
        },
        {
          "indexed": false,
          "internalType": "bytes32",
          "name": "proposalId",
          "type": "bytes32"
        },
        {
          "indexed": false,
          "internalType": "uint8",
          "name": "support",
          "type": "uint8"
        },
        {
          "indexed": false,
          "internalType": "uint256",
          "name": "weight",
          "type": "uint256"
        },
        {
          "indexed": false,
          "internalType": "string",
          "name": "reason",
          "type": "string"
        },
        {
          "indexed": false,
          "internalType": "bytes",
          "name": "params",
          "type": "bytes"
        }
      ],
      "name": "VoteCastWithParams",
      "type": "event"
    },
    {
      "anonymous": false,
      "inputs": [
        {
          "indexed": false,
          "internalType": "uint256",
          "name": "oldVotingDelay",
          "type": "uint256"
        },
        {
          "indexed": false,
          "internalType": "uint256",
          "name": "newVotingDelay",
          "type": "uint256"
        }
      ],
      "name": "VotingDelaySet",
      "type": "event"
    },
    {
      "anonymous": false,
      "inputs": [
        {
          "indexed": false,
          "internalType": "uint256",
          "name": "oldVotingPeriod",
          "type": "uint256"
        },
        {
          "indexed": false,
          "internalType": "uint256",
          "name": "newVotingPeriod",
          "type": "uint256"
        }
      ],
      "name": "VotingPeriodSet",
      "type": "event"
    },
    {
      "inputs": [],
      "name": "BALLOT_TYPEHASH",
      "outputs": [
        {
          "internalType": "bytes32",
          "name": "",
          "type": "bytes32"
        }
      ],
      "stateMutability": "view",
      "type": "function"
    },
    {
      "inputs": [],
      "name": "COUNTING_MODE",
      "outputs": [
        {
          "internalType": "string",
          "name": "",
          "type": "string"
        }
      ],
      "stateMutability": "pure",
      "type": "function"
    },
    {
      "inputs": [],
      "name": "EXTENDED_BALLOT_TYPEHASH",
      "outputs": [
        {
          "internalType": "bytes32",
          "name": "",
          "type": "bytes32"
        }
      ],
      "stateMutability": "view",
      "type": "function"
    },
    {
      "inputs": [
        {
          "internalType": "bytes32",
          "name": "proposalId",
          "type": "bytes32"
        },
        {
          "internalType": "uint8",
          "name": "support",
          "type": "uint8"
        }
      ],
      "name": "castVote",
      "outputs": [
        {
          "internalType": "uint256",
          "name": "",
          "type": "uint256"
        }
      ],
      "stateMutability": "nonpayable",
      "type": "function"
    },
    {
      "inputs": [
        {
          "internalType": "bytes32",
          "name": "proposalId",
          "type": "bytes32"
        },
        {
          "internalType": "uint8",
          "name": "support",
          "type": "uint8"
        },
        {
          "internalType": "uint8",
          "name": "v",
          "type": "uint8"
        },
        {
          "internalType": "bytes32",
          "name": "r",
          "type": "bytes32"
        },
        {
          "internalType": "bytes32",
          "name": "s",
          "type": "bytes32"
        }
      ],
      "name": "castVoteBySig",
      "outputs": [
        {
          "internalType": "uint256",
          "name": "",
          "type": "uint256"
        }
      ],
      "stateMutability": "nonpayable",
      "type": "function"
    },
    {
      "inputs": [
        {
          "internalType": "bytes32",
          "name": "proposalId",
          "type": "bytes32"
        },
        {
          "internalType": "uint8",
          "name": "support",
          "type": "uint8"
        },
        {
          "internalType": "string",
          "name": "reason",
          "type": "string"
        }
      ],
      "name": "castVoteWithReason",
      "outputs": [
        {
          "internalType": "uint256",
          "name": "",
          "type": "uint256"
        }
      ],
      "stateMutability": "nonpayable",
      "type": "function"
    },
    {
      "inputs": [
        {
          "internalType": "bytes32",
          "name": "proposalId",
          "type": "bytes32"
        },
        {
          "internalType": "uint8",
          "name": "support",
          "type": "uint8"
        },
        {
          "internalType": "string",
          "name": "reason",
          "type": "string"
        },
        {
          "internalType": "bytes",
          "name": "params",
          "type": "bytes"
        }
      ],
      "name": "castVoteWithReasonAndParams",
      "outputs": [
        {
          "internalType": "uint256",
          "name": "",
          "type": "uint256"
        }
      ],
      "stateMutability": "nonpayable",
      "type": "function"
    },
    {
      "inputs": [
        {
          "internalType": "bytes32",
          "name": "proposalId",
          "type": "bytes32"
        },
        {
          "internalType": "uint8",
          "name": "support",
          "type": "uint8"
        },
        {
          "internalType": "string",
          "name": "reason",
          "type": "string"
        },
        {
          "internalType": "bytes",
          "name": "params",
          "type": "bytes"
        },
        {
          "internalType": "uint8",
          "name": "v",
          "type": "uint8"
        },
        {
          "internalType": "bytes32",
          "name": "r",
          "type": "bytes32"
        },
        {
          "internalType": "bytes32",
          "name": "s",
          "type": "bytes32"
        }
      ],
      "name": "castVoteWithReasonAndParamsBySig",
      "outputs": [
        {
          "internalType": "uint256",
          "name": "",
          "type": "uint256"
        }
      ],
      "stateMutability": "nonpayable",
      "type": "function"
    },
    {
      "inputs": [
        {
          "internalType": "address[]",
          "name": "targets",
          "type": "address[]"
        },
        {
          "internalType": "uint256[]",
          "name": "values",
          "type": "uint256[]"
        },
        {
          "internalType": "bytes[]",
          "name": "calldatas",
          "type": "bytes[]"
        },
        {
          "internalType": "bytes32",
          "name": "descriptionHash",
          "type": "bytes32"
        }
      ],
      "name": "execute",
      "outputs": [
        {
          "internalType": "bytes32",
          "name": "",
          "type": "bytes32"
        }
      ],
      "stateMutability": "payable",
      "type": "function"
    },
    {
      "inputs": [
        {
          "internalType": "address",
          "name": "account",
          "type": "address"
        },
        {
          "internalType": "uint256",
          "name": "blockNumber",
          "type": "uint256"
        }
      ],
      "name": "getVotes",
      "outputs": [
        {
          "internalType": "uint256",
          "name": "",
          "type": "uint256"
        }
      ],
      "stateMutability": "view",
      "type": "function"
    },
    {
      "inputs": [
        {
          "internalType": "address",
          "name": "account",
          "type": "address"
        },
        {
          "internalType": "uint256",
          "name": "blockNumber",
          "type": "uint256"
        },
        {
          "internalType": "bytes",
          "name": "params",
          "type": "bytes"
        }
      ],
      "name": "getVotesWithParams",
      "outputs": [
        {
          "internalType": "uint256",
          "name": "",
          "type": "uint256"
        }
      ],
      "stateMutability": "view",
      "type": "function"
    },
    {
      "inputs": [
        {
          "internalType": "bytes32",
          "name": "proposalId",
          "type": "bytes32"
        },
        {
          "internalType": "address",
          "name": "account",
          "type": "address"
        }
      ],
      "name": "hasVoted",
      "outputs": [
        {
          "internalType": "bool",
          "name": "",
          "type": "bool"
        }
      ],
      "stateMutability": "view",
      "type": "function"
    },
    {
      "inputs": [
        {
          "internalType": "address[]",
          "name": "targets",
          "type": "address[]"
        },
        {
          "internalType": "uint256[]",
          "name": "values",
          "type": "uint256[]"
        },
        {
          "internalType": "bytes[]",
          "name": "calldatas",
          "type": "bytes[]"
        },
        {
          "internalType": "bytes32",
          "name": "descriptionHash",
          "type": "bytes32"
        }
      ],
      "name": "hashProposal",
      "outputs": [
        {
          "internalType": "bytes32",
          "name": "",
          "type": "bytes32"
        }
      ],
      "stateMutability": "pure",
      "type": "function"
    },
    {
      "inputs": [
        {
          "internalType": "address[]",
          "name": "targets",
          "type": "address[]"
        },
        {
          "internalType": "uint256[]",
          "name": "values",
          "type": "uint256[]"
        },
        {
          "internalType": "bytes[]",
          "name": "calldatas",
          "type": "bytes[]"
        },
        {
          "internalType": "string",
          "name": "description",
          "type": "string"
        }
      ],
      "name": "hashProposalDescriptionString",
      "outputs": [
        {
          "internalType": "bytes32",
          "name": "",
          "type": "bytes32"
        }
      ],
      "stateMutability": "pure",
      "type": "function"
    },
    {
      "inputs": [
        {
          "internalType": "contract IVotesUpgradeable",
          "name": "token",
          "type": "address"
        },
        {
          "internalType": "contract TimelockControllerUpgradeable",
          "name": "timelockController",
          "type": "address"
        },
        {
          "internalType": "uint256",
          "name": "quorumNumerator",
          "type": "uint256"
        },
        {
          "internalType": "uint256",
          "name": "initialVotingDelay",
          "type": "uint256"
        },
        {
          "internalType": "uint256",
          "name": "initialVotingPeriod",
          "type": "uint256"
        },
        {
          "internalType": "uint256",
          "name": "initialProposalThreshold",
          "type": "uint256"
        },
        {
          "internalType": "string",
          "name": "name",
          "type": "string"
        }
      ],
      "name": "initialize",
      "outputs": [
        {
          "internalType": "bool",
          "name": "",
          "type": "bool"
        }
      ],
      "stateMutability": "nonpayable",
      "type": "function"
    },
    {
      "inputs": [],
      "name": "name",
      "outputs": [
        {
          "internalType": "string",
          "name": "",
          "type": "string"
        }
      ],
      "stateMutability": "view",
      "type": "function"
    },
    {
      "inputs": [
        {
          "internalType": "address",
          "name": "",
          "type": "address"
        },
        {
          "internalType": "address",
          "name": "",
          "type": "address"
        },
        {
          "internalType": "uint256[]",
          "name": "",
          "type": "uint256[]"
        },
        {
          "internalType": "uint256[]",
          "name": "",
          "type": "uint256[]"
        },
        {
          "internalType": "bytes",
          "name": "",
          "type": "bytes"
        }
      ],
      "name": "onERC1155BatchReceived",
      "outputs": [
        {
          "internalType": "bytes4",
          "name": "",
          "type": "bytes4"
        }
      ],
      "stateMutability": "nonpayable",
      "type": "function"
    },
    {
      "inputs": [
        {
          "internalType": "address",
          "name": "",
          "type": "address"
        },
        {
          "internalType": "address",
          "name": "",
          "type": "address"
        },
        {
          "internalType": "uint256",
          "name": "",
          "type": "uint256"
        },
        {
          "internalType": "uint256",
          "name": "",
          "type": "uint256"
        },
        {
          "internalType": "bytes",
          "name": "",
          "type": "bytes"
        }
      ],
      "name": "onERC1155Received",
      "outputs": [
        {
          "internalType": "bytes4",
          "name": "",
          "type": "bytes4"
        }
      ],
      "stateMutability": "nonpayable",
      "type": "function"
    },
    {
      "inputs": [
        {
          "internalType": "address",
          "name": "",
          "type": "address"
        },
        {
          "internalType": "address",
          "name": "",
          "type": "address"
        },
        {
          "internalType": "uint256",
          "name": "",
          "type": "uint256"
        },
        {
          "internalType": "bytes",
          "name": "",
          "type": "bytes"
        }
      ],
      "name": "onERC721Received",
      "outputs": [
        {
          "internalType": "bytes4",
          "name": "",
          "type": "bytes4"
        }
      ],
      "stateMutability": "nonpayable",
      "type": "function"
    },
    {
      "inputs": [
        {
          "internalType": "bytes32",
          "name": "proposalId",
          "type": "bytes32"
        }
      ],
      "name": "proposalDeadline",
      "outputs": [
        {
          "internalType": "uint256",
          "name": "",
          "type": "uint256"
        }
      ],
      "stateMutability": "view",
      "type": "function"
    },
    {
      "inputs": [
        {
          "internalType": "bytes32",
          "name": "proposalId",
          "type": "bytes32"
        }
      ],
      "name": "proposalEta",
      "outputs": [
        {
          "internalType": "uint256",
          "name": "",
          "type": "uint256"
        }
      ],
      "stateMutability": "view",
      "type": "function"
    },
    {
      "inputs": [
        {
          "internalType": "bytes32",
          "name": "proposalId",
          "type": "bytes32"
        }
      ],
      "name": "proposalSnapshot",
      "outputs": [
        {
          "internalType": "uint256",
          "name": "",
          "type": "uint256"
        }
      ],
      "stateMutability": "view",
      "type": "function"
    },
    {
      "inputs": [],
      "name": "proposalThreshold",
      "outputs": [
        {
          "internalType": "uint256",
          "name": "",
          "type": "uint256"
        }
      ],
      "stateMutability": "view",
      "type": "function"
    },
    {
      "inputs": [
        {
          "internalType": "bytes32",
          "name": "proposalId",
          "type": "bytes32"
        }
      ],
      "name": "proposalVotes",
      "outputs": [
        {
          "internalType": "uint256",
          "name": "againstVotes",
          "type": "uint256"
        },
        {
          "internalType": "uint256",
          "name": "forVotes",
          "type": "uint256"
        },
        {
          "internalType": "uint256",
          "name": "abstainVotes",
          "type": "uint256"
        }
      ],
      "stateMutability": "view",
      "type": "function"
    },
    {
      "inputs": [
        {
          "internalType": "address[]",
          "name": "targets",
          "type": "address[]"
        },
        {
          "internalType": "uint256[]",
          "name": "values",
          "type": "uint256[]"
        },
        {
          "internalType": "bytes[]",
          "name": "calldatas",
          "type": "bytes[]"
        },
        {
          "internalType": "string",
          "name": "description",
          "type": "string"
        }
      ],
      "name": "propose",
      "outputs": [
        {
          "internalType": "bytes32",
          "name": "",
          "type": "bytes32"
        }
      ],
      "stateMutability": "nonpayable",
      "type": "function"
    },
    {
      "inputs": [
        {
          "internalType": "address[]",
          "name": "targets",
          "type": "address[]"
        },
        {
          "internalType": "uint256[]",
          "name": "values",
          "type": "uint256[]"
        },
        {
          "internalType": "bytes[]",
          "name": "calldatas",
          "type": "bytes[]"
        },
        {
          "internalType": "bytes32",
          "name": "descriptionHash",
          "type": "bytes32"
        }
      ],
      "name": "queue",
      "outputs": [
        {
          "internalType": "bytes32",
          "name": "",
          "type": "bytes32"
        }
      ],
      "stateMutability": "nonpayable",
      "type": "function"
    },
    {
      "inputs": [
        {
          "internalType": "uint256",
          "name": "blockNumber",
          "type": "uint256"
        }
      ],
      "name": "quorum",
      "outputs": [
        {
          "internalType": "uint256",
          "name": "",
          "type": "uint256"
        }
      ],
      "stateMutability": "view",
      "type": "function"
    },
    {
      "inputs": [],
      "name": "quorumDenominator",
      "outputs": [
        {
          "internalType": "uint256",
          "name": "",
          "type": "uint256"
        }
      ],
      "stateMutability": "view",
      "type": "function"
    },
    {
      "inputs": [
        {
          "internalType": "uint256",
          "name": "blockNumber",
          "type": "uint256"
        }
      ],
      "name": "quorumNumerator",
      "outputs": [
        {
          "internalType": "uint256",
          "name": "",
          "type": "uint256"
        }
      ],
      "stateMutability": "view",
      "type": "function"
    },
    {
      "inputs": [],
      "name": "quorumNumerator",
      "outputs": [
        {
          "internalType": "uint256",
          "name": "",
          "type": "uint256"
        }
      ],
      "stateMutability": "view",
      "type": "function"
    },
    {
      "inputs": [
        {
          "internalType": "address",
          "name": "target",
          "type": "address"
        },
        {
          "internalType": "uint256",
          "name": "value",
          "type": "uint256"
        },
        {
          "internalType": "bytes",
          "name": "data",
          "type": "bytes"
        }
      ],
      "name": "relay",
      "outputs": [],
      "stateMutability": "payable",
      "type": "function"
    },
    {
      "inputs": [
        {
          "internalType": "uint256",
          "name": "newProposalThreshold",
          "type": "uint256"
        }
      ],
      "name": "setProposalThreshold",
      "outputs": [],
      "stateMutability": "nonpayable",
      "type": "function"
    },
    {
      "inputs": [
        {
          "internalType": "uint256",
          "name": "newVotingDelay",
          "type": "uint256"
        }
      ],
      "name": "setVotingDelay",
      "outputs": [],
      "stateMutability": "nonpayable",
      "type": "function"
    },
    {
      "inputs": [
        {
          "internalType": "uint256",
          "name": "newVotingPeriod",
          "type": "uint256"
        }
      ],
      "name": "setVotingPeriod",
      "outputs": [],
      "stateMutability": "nonpayable",
      "type": "function"
    },
    {
      "inputs": [
        {
          "internalType": "bytes32",
          "name": "proposalId",
          "type": "bytes32"
        }
      ],
      "name": "state",
      "outputs": [
        {
          "internalType": "enum IGovernorUpgradeable.ProposalState",
          "name": "",
          "type": "uint8"
        }
      ],
      "stateMutability": "view",
      "type": "function"
    },
    {
      "inputs": [
        {
          "internalType": "bytes4",
          "name": "interfaceId",
          "type": "bytes4"
        }
      ],
      "name": "supportsInterface",
      "outputs": [
        {
          "internalType": "bool",
          "name": "",
          "type": "bool"
        }
      ],
      "stateMutability": "view",
      "type": "function"
    },
    {
      "inputs": [],
      "name": "timelock",
      "outputs": [
        {
          "internalType": "address",
          "name": "",
          "type": "address"
        }
      ],
      "stateMutability": "view",
      "type": "function"
    },
    {
      "inputs": [],
      "name": "token",
      "outputs": [
        {
          "internalType": "contract IVotesUpgradeable",
          "name": "",
          "type": "address"
        }
      ],
      "stateMutability": "view",
      "type": "function"
    },
    {
      "inputs": [
        {
          "internalType": "uint256",
          "name": "newQuorumNumerator",
          "type": "uint256"
        }
      ],
      "name": "updateQuorumNumerator",
      "outputs": [],
      "stateMutability": "nonpayable",
      "type": "function"
    },
    {
      "inputs": [
        {
          "internalType": "contract TimelockControllerUpgradeable",
          "name": "newTimelock",
          "type": "address"
        }
      ],
      "name": "updateTimelock",
      "outputs": [],
      "stateMutability": "nonpayable",
      "type": "function"
    },
    {
      "inputs": [],
      "name": "version",
      "outputs": [
        {
          "internalType": "string",
          "name": "",
          "type": "string"
        }
      ],
      "stateMutability": "view",
      "type": "function"
    },
    {
      "inputs": [],
      "name": "votingDelay",
      "outputs": [
        {
          "internalType": "uint256",
          "name": "",
          "type": "uint256"
        }
      ],
      "stateMutability": "view",
      "type": "function"
    },
    {
      "inputs": [],
      "name": "votingPeriod",
      "outputs": [
        {
          "internalType": "uint256",
          "name": "",
          "type": "uint256"
        }
      ],
      "stateMutability": "view",
      "type": "function"
    },
    {
      "stateMutability": "payable",
      "type": "receive"
    }
  ],
  "bytecode": "0x60806040523461001a57604051614866610020823961486690f35b600080fdfe60806040526004361015610023575b361561001957600080fd5b610021611721565b005b60003560e01c806301ffc9a7146102d357806302a251a3146102ce57806306f3f9e6146102c957806306fdde03146102c457806308a571b3146102bf578063150b7a02146102ba578063160cbed7146102b5578063177e5a9f146102b05780632656227d146102ab5780632fe3e261146102a65780633932abb1146102a15780633bab56701461029c5780633d24375f146102975780634b68bf211461029257806354fd4d501461028d5780635e9d753c1461028857806360c4247f1461028357806361d585da1461027e57806370b0f660146102795780637d5e81e21461027457806397c3d3341461026f5780639a802a6d1461026a578063a7713a7014610265578063a890c91014610260578063aadc3b721461025b578063b4b0713e14610256578063b58131b014610251578063bc197c811461024c578063bd90d49c14610247578063c28bc2fa14610242578063c59057e41461023d578063cbcda20114610238578063d14b85b914610233578063d33219b41461022e578063dd4e2ba514610229578063deaaa7cc14610224578063e1f643511461021f578063ea0217cf1461021a578063eb9019d414610215578063ece40cc114610210578063f23a6e611461020b578063f8ce560a146102065763fc0c546a0361000e5761114f565b6110c9565b6110aa565b611051565b611035565b610ffa565b610fdb565b610f7f565b610f64565b610f2f565b610f05565b610ec8565b610ea9565b610e92565b610e2c565b610d7e565b610ce0565b610cc4565b610c85565b610c4a565b610c1b565b610bff565b610ba3565b610b84565b610b6c565b610b45565b610ad9565b610aba565b610a53565b610a34565b6109b2565b61098d565b6108f5565b6108bc565b6108a2565b610887565b610868565b610659565b6105c3565b610431565b6103a8565b610356565b61031a565b6001600160e01b031981165b036102eb57565b600080fd5b905035906102fd826102d8565b565b906020828203126102eb57610313916102f0565b90565b9052565b346102eb576103476103356103303660046102ff565b61143c565b60405191829182901515815260200190565b0390f35b60009103126102eb57565b346102eb5761036636600461034b565b61034761037161140e565b6040519182918290815260200190565b806102e4565b905035906102fd82610381565b906020828203126102eb5761031391610387565b346102eb576103c06103bb366004610394565b6139d0565b604051005b60005b8381106103d85750506000910152565b81810151838201526020016103c8565b61040961041260209361041c936103fd815190565b80835293849260200190565b958691016103c5565b601f01601f191690565b0190565b6020808252610313929101906103e8565b346102eb5761044136600461034b565b61034761044c61180e565b60405191829182610420565b60ff81166102e4565b905035906102fd82610458565b909182601f830112156102eb578135916001600160401b0383116102eb5760200192600183028401116102eb57565b634e487b7160e01b600052604160045260246000fd5b90601f01601f191681019081106001600160401b038211176104d457604052565b61049d565b906102fd6104e660405190565b92836104b3565b6001600160401b0381116104d457602090601f01601f19160190565b90826000939282370152565b9092919261052a610525826104ed565b6104d9565b938185526020850190828401116102eb576102fd92610509565b9080601f830112156102eb5781602061031393359101610515565b91906080838203126102eb576105758184610387565b926105838260208301610461565b9260408201356001600160401b0381116102eb57836105a391840161046e565b92909360608201356001600160401b0381116102eb576103139201610544565b346102eb576103476103716105d936600461055f565b939290926121ec565b6001600160a01b031690565b6001600160a01b0381166102e4565b905035906102fd826105ee565b906080828203126102eb5761061f81836105fd565b9261062d82602085016105fd565b9261063b8360408301610387565b9260608201356001600160401b0381116102eb576103139201610544565b346102eb5761034761067861066f36600461060a565b929190916126f6565b604051918291826001600160e01b0319909116815260200190565b6001600160401b0381116104d45760208091020190565b909291926106ba61052582610693565b93818552602080860192028301928184116102eb57915b8383106106de5750505050565b602080916106ec84866105fd565b8152019201916106d1565b9080601f830112156102eb57816020610313933591016106aa565b9092919261072261052582610693565b93818552602080860192028301928184116102eb57915b8383106107465750505050565b602080916107548486610387565b815201920191610739565b9080601f830112156102eb5781602061031393359101610712565b92919061078961052582610693565b93818552602080860192028101918383116102eb5781905b8382106107af575050505050565b81356001600160401b0381116102eb576020916107cf8784938701610544565b8152019101906107a1565b9080601f830112156102eb578160206103139335910161077a565b6080818303126102eb5780356001600160401b0381116102eb578261081b9183016106f7565b9260208201356001600160401b0381116102eb578361083b91840161075f565b926040830135906001600160401b0382116102eb5761085f816103139386016107da565b93606001610387565b346102eb5761034761037161087e3660046107f5565b92919091613326565b346102eb5761034761037161089d366004610394565b6131a3565b6103476103716108b33660046107f5565b92919091611f6a565b346102eb576108cc36600461034b565b6103477f1b6adf9505643f9cb6eb8414a541299d61a42f7c7abb6a309fa6cde9eb9d18da610371565b346102eb5761090536600461034b565b610347610371611406565b9060e0828203126102eb5761092581836105fd565b9261093382602085016105fd565b926109418360408301610387565b9261094f8160608401610387565b9261095d8260808501610387565b9261096b8360a08301610387565b9260c08201356001600160401b0381116102eb57610989920161046e565b9091565b346102eb576103476103356109a3366004610910565b969590959491949392936113f4565b346102eb576103476103716109c8366004610394565b611a90565b906080828203126102eb5781356001600160401b0381116102eb57816109f49184016106f7565b9260208301356001600160401b0381116102eb5782610a1491850161075f565b9260408101356001600160401b0381116102eb578361063b9183016107da565b346102eb57610347610371610a4a3660046109cd565b92919091611445565b346102eb57610a6336600461034b565b61034761044c611849565b919060a0838203126102eb57610a848184610387565b92610a928260208301610461565b92610313610aa38460408501610461565b93610ab18160608601610387565b93608001610387565b346102eb57610347610371610ad0366004610a6e565b93929092612227565b346102eb57610347610371610aef366004610394565b61380a565b634e487b7160e01b600052602160045260246000fd5b60081115610b1457565b610af4565b906102fd82610b0a565b61031390610b19565b61031690610b23565b6020810192916102fd9190610b2c565b346102eb57610347610b60610b5b366004610394565b61141f565b60405191829182610b35565b346102eb576103c0610b7f366004610394565b612ae2565b346102eb57610347610371610b9a3660046109cd565b92919091611428565b346102eb57610bb336600461034b565b61034761037161389e565b916060838303126102eb57610bd382846105fd565b92610be18360208301610387565b9260408201356001600160401b0381116102eb576103139201610544565b346102eb57610347610371610c15366004610bbe565b916121b4565b346102eb57610c2b36600461034b565b61034761037161370f565b906020828203126102eb57610313916105fd565b346102eb576103c0610c5d366004610c36565b613604565b91906040838203126102eb5761031390610c7c8185610387565b936020016105fd565b346102eb57610347610335610c9b366004610c62565b906127a8565b91906040838203126102eb5761031390610cbb8185610387565b93602001610461565b346102eb57610347610371610cda366004610ca1565b906121bf565b346102eb57610cf036600461034b565b610347610371611434565b91909160a0818403126102eb57610d1283826105fd565b92610d2081602084016105fd565b9260408301356001600160401b0381116102eb5782610d4091850161075f565b9260608101356001600160401b0381116102eb5783610d6091830161075f565b9260808201356001600160401b0381116102eb576103139201610544565b346102eb57610347610678610d94366004610cfb565b9392909261272b565b91909160e0818403126102eb57610db48382610387565b92610dc28160208401610461565b9260408301356001600160401b0381116102eb5782610de291850161046e565b92909360608101356001600160401b0381116102eb5782610e04918301610544565b92610313610e158460808501610461565b93610e238160a08601610387565b9360c001610387565b346102eb57610347610371610e42366004610d9d565b969590959491949392936122cf565b916060838303126102eb57610e6682846105fd565b92610e748360208301610387565b9260408201356001600160401b0381116102eb57610989920161046e565b6103c0610ea0366004610e51565b929190916126c4565b346102eb57610347610371610ebf3660046107f5565b929190916119ab565b346102eb57610347610371610ede366004610394565b611a61565b9081526060810193926102fd929091604091610f01905b6020830152565b0152565b346102eb57610347610f20610f1b366004610394565b6127e2565b60405191939193849384610ee3565b346102eb57610f3f36600461034b565b610347610f4a61316c565b604051918291826001600160a01b03909116815260200190565b346102eb57610f7436600461034b565b61034761044c612796565b346102eb57610f8f36600461034b565b6103477fd4ddfdb0013ac098bf619aa05afa225503765d71674f22f715bc4b31e561f08e610371565b916060838303126102eb57610fcd8284610387565b92610e748360208301610461565b346102eb57610347610371610ff1366004610fb8565b929190916121d3565b346102eb576103c061100d366004610394565b612b52565b91906040838203126102eb576103139061102c81856105fd565b93602001610387565b346102eb5761034761037161104b366004611012565b90612188565b346102eb576103c0611064366004610394565b612bc2565b91909160a0818403126102eb5761108083826105fd565b9261108e81602084016105fd565b9261109c8260408501610387565b92610d608360608301610387565b346102eb576103476106786110c0366004611069565b93929092612710565b346102eb576103476103716110df366004610394565b611416565b610313916008021c6001600160a01b031690565b9061031391546110e4565b61031360006101936110f8565b610313906105e2906001600160a01b031682565b61031390611110565b61031390611124565b6103169061112d565b6020810192916102fd9190611136565b346102eb5761115f36600461034b565b61034761116a611103565b6040519182918261113f565b6103139060081c5b60ff1690565b6103139054611176565b6103139061117e565b610313905461118e565b61117e6103136103139290565b156111b557565b60405162461bcd60e51b815260206004820152602e60248201527f496e697469616c697a61626c653a20636f6e747261637420697320616c72656160448201526d191e481a5b9a5d1a585b1a5e995960921b6064820152608490fd5b0390fd5b9060ff905b9181191691161790565b61117e6103136103139260ff1690565b9061124461031361124b92611224565b8254611215565b9055565b9061ff009060081b61121a565b9061126c61031361124b92151590565b825461124f565b610316906111a1565b6020810192916102fd9190611273565b96939098979491926112e296936112aa6112a66000611184565b1590565b9a8b80611386575b8015611341575b6112c2906111ae565b6001998c6112d96112d28d6111a1565b6000611234565b611331576113af565b926112ea5750565b6112f560008061125c565b61132c7f7f26b83ff96e1f2b6a682f133852f6798a09c465da95921460cefb38474024989161132360405190565b9182918261127c565b0390a1565b61133c8b600061125c565b6113af565b506113566112a66113513061112d565b613cf3565b80156112b957506112c261136a6000611197565b61137e61137760016111a1565b9160ff1690565b1490506112b9565b506113916000611197565b61139e61137760016111a1565b106112b2565b610313913691610515565b6113dd926113d36113ce6113ef9b6113e298999a9b6113d895506113a4565b611503565b612d4c565b613c36565b6136d1565b6113ea612753565b612a16565b600190565b6103139796959493929190600061128c565b610313612a5a565b610313612a65565b610313906138e0565b61031390612e88565b61031393929190611db2565b610313612a70565b61031390612d78565b919061145a61031394611456600090565b5090565b61146c611465825190565b9160200190565b20926119ab565b1561147a57565b60405162461bcd60e51b815260206004820152602b60248201527f496e697469616c697a61626c653a20636f6e7472616374206973206e6f74206960448201526a6e697469616c697a696e6760a81b6064820152608490fd5b6102fd906114e96114e46000611184565b611473565b6102fd906114fe6114f8611849565b826143f5565b611711565b6102fd906114d3565b6102fd9061151d6114e46000611184565b611706565b634e487b7160e01b600052600060045260246000fd5b634e487b7160e01b600052602260045260246000fd5b906001600283049216801561156e575b602083101461156957565b611538565b91607f169161155e565b9160001960089290920291821b911b61121a565b6103136103136103139290565b91906115aa61031361124b9361158c565b908354611578565b6102fd91600091611599565b8181106115c9575050565b806115d760006001936115b2565b016115be565b9190601f81116115ec57505050565b6115fe6102fd93600052602060002090565b906020601f840181900483019310611620575b6020601f9091010401906115be565b9091508190611611565b90611633815190565b906001600160401b0382116104d45761165682611650855461154e565b856115dd565b602090601f83116001146116915761124b929160009183611686575b5050600019600883021c1916906002021790565b015190503880611672565b601f198316916116a685600052602060002090565b9260005b8181106116e4575091600293918560019694106116cb575b50505002019055565b01516000196008601f8516021c191690553880806116c2565b919360206001819287870151815501950192016116aa565b906102fd9161162a565b6102fd9060fd6116fc565b6102fd9061150c565b156102eb57565b6102fd61172c61174e565b61174861173b6105e23061112d565b916001600160a01b031690565b1461171a565b61031361316c565b805460009392916117736117698361154e565b8085529360200190565b91600181169081156117c5575060011461178c57505050565b61179f9192939450600052602060002090565b916000925b8184106117b15750500190565b8054848401526020909301926001016117a4565b92949550505060ff1916825215156020020190565b9061031391611756565b906102fd6117fe926117f560405190565b938480926117da565b03836104b3565b610313906117e4565b61031360fd611805565b90611825610525836104ed565b918252565b6118346001611818565b603160f81b602082015290565b61031361182a565b610313611841565b9061187161186a611860845190565b8084529260200190565b9260200190565b9060005b8181106118825750505090565b9091926118a86118a160019286516001600160a01b0316815260200190565b9460200190565b929101611875565b906118bf61186a611860845190565b9060005b8181106118d05750505090565b9091926118e66118a16001928651815260200190565b9291016118c3565b90610313916103e8565b9061190e611904835190565b8083529160200190565b90816119206020830284019460200190565b926000915b83831061193457505050505090565b90919293946020611957611950838560019503875289516118ee565b9760200190565b9301930191939290611925565b9493916102fd936119986119a69261198a60609560808b01908b820360008d0152611851565b9089820360208b01526118b0565b9087820360408901526118f8565b940152565b6119cd6119d993946119bb600090565b50604051958694602086019485611964565b908103825203826104b3565b6119e4611465825190565b2090565b905b600052602052604060002090565b610313905b6001600160401b031690565b61031390546119f8565b61031360206104d9565b906102fd611a356000611a2e611a13565b9401611a09565b6001600160401b03168352565b61031390611a1d565b610313610313610313926001600160401b031690565b611a8b611a866000611a8061031394611a78600090565b5060fe6119e8565b01611a42565b6140b7565b611a4b565b611a8b611a866001611a8061031394611a78600090565b634e487b7160e01b600052601160045260246000fd5b9190611ac8565b9290565b8203918211611ad357565b611aa7565b15611adf57565b60405162461bcd60e51b815260206004820152603160248201527f476f7665726e6f723a2070726f706f73657220766f7465732062656c6f7720706044820152701c9bdc1bdcd85b081d1a1c995cda1bdb19607a1b6064820152608490fd5b15611b4557565b60405162461bcd60e51b815260206004820152602160248201527f476f7665726e6f723a20696e76616c69642070726f706f73616c206c656e67746044820152600d60fb1b6064820152608490fd5b15611b9b57565b60405162461bcd60e51b815260206004820152601860248201527f476f7665726e6f723a20656d7074792070726f706f73616c00000000000000006044820152606490fd5b15611be757565b60405162461bcd60e51b815260206004820152602160248201527f476f7665726e6f723a2070726f706f73616c20616c72656164792065786973746044820152607360f81b6064820152608490fd5b611c51906001600160401b03165b916001600160401b031690565b01906001600160401b038211611ad357565b9061182561052583610693565b60005b828110611c7f57505050565b606082820152602001611c73565b906102fd611ca3611c9d84611c63565b93610693565b601f190160208401611c70565b90611cbc611904835190565b9081611cce6020830284019460200190565b926000915b838310611ce257505050505090565b90919293946020611cfe611950838560019503875289516118ee565b9301930191939290611cd3565b61031690611a4b565b9590611da495611d736103139b999a96611d65611d8194611d9a98611d58611d8f9960208f611d496101208201966000830152565b01906001600160a01b03169052565b8c820360408e0152611851565b908a820360608c01526118b0565b9088820360808a0152611cb0565b9086820360a08801526118f8565b9560c0850190611d0b565b60e0830190611d0b565b6101008184039101526103e8565b3343946001611dc08161158c565b611dca9088611abd565b611dd49084612188565b611ddc611434565b1115611de790611ad8565b81516020830120611dfa908787876119ab565b96611e03855190565b865114611e0f90611b3e565b8451875114611e1d90611b3e565b845190600091611e2c8361158c565b10611e3690611b94565b611e418960fe6119e8565b91820190611e4e82611a42565b611e5790614127565b611e6090611be0565b611e69906145e4565b611e71611406565b611e7a906145e4565b611e8391611c36565b928392611e8e61140e565b611e97906145e4565b611ea19085611c36565b94859390611eae91614110565b0190611eb991614110565b8451611ec490611c8d565b967fd387f65a35570edd52e041c8506a1e8d7373c50502d19009e65000c1a4f8b1f297611ef060405190565b978897611efe978c8a611d14565b0390a190565b15611f0b57565b60405162461bcd60e51b815260206004820152602160248201527f476f7665726e6f723a2070726f706f73616c206e6f74207375636365737366756044820152601b60fa1b6064820152608490fd5b9061124461031361124b92151590565b92610313929091611f7d838383886119ab565b94611fac611f8a8761141f565b611f946004610b19565b611f9d82610b19565b14908115612015575b50611f04565b611fc460016002611fbe8960fe6119e8565b01611f5a565b7f7b1bcf1ccf901a11589afff5504d59fd0a53780eed2a952adade0348985139e0611fee60405190565b878152602090a1612002848484848a612082565b61200f848484848a612031565b85612146565b905061202a6120246005610b19565b91610b19565b1438611fa6565b906102fd94939291613529565b6000198114611ad35760010190565b634e487b7160e01b600052603260045260246000fd5b9061206c825190565b81101561207d576020809102010190565b61204d565b509392505061208f61174e565b6120983061112d565b906120ab6001600160a01b03831661173b565b036120b7575b50509050565b6120c1600061158c565b6120cc610313865190565b81101561213957806120f16120e461210d9388612063565b516001600160a01b031690565b6121036001600160a01b03851661173b565b146121125761203e565b6120c1565b61213460ff6121218387612063565b5161212d611465825190565b20906146f6565b61203e565b50505090508038806120b1565b505050505061215361174e565b61216261173b6105e23061112d565b0361216957565b60ff6121776112a68261480c565b61217f575b50565b6102fd906147ec565b610313916121946121ac565b91613c82565b6103136000611818565b61031361219a565b6103136121a4565b610313929190613c82565b61031391335b6121cd6121a4565b92612359565b916121cd610313946121e3600090565b50335b926113a4565b916121fd61031395946121e3600090565b92612454565b9081526060810193926102fd92909160409161221e90610efa565b019060ff169052565b9293610313946121c5929361223a600090565b5061228e7fd4ddfdb0013ac098bf619aa05afa225503765d71674f22f715bc4b31e561f08e61227d61226b60405190565b80926119cd8a8c602085019384612203565b612288611465825190565b206143ff565b614146565b909594926102fd946122c8610f01926122be6080966122b760a088019c6000890152565b6020870152565b60ff166040850152565b6060830152565b946103139785976121e69261228e8561227d8b896119cd6121fd9b9c9a9d6122f5600090565b506123286123228d7f1b6adf9505643f9cb6eb8414a541299d61a42f7c7abb6a309fa6cde9eb9d18da9591565b906113a4565b612333611465825190565b2090612340611465825190565b209061234b60405190565b968795602087019586612293565b916103139391612367600090565b506123706121ac565b93612454565b1561237d57565b60405162461bcd60e51b815260206004820152602360248201527f476f7665726e6f723a20766f7465206e6f742063757272656e746c792061637460448201526269766560e81b6064820152608490fd5b936123fe61031396946123f761240b956123ed60a08a019660008b0152565b60ff166020890152565b6040870152565b84820360608601526103e8565b9160808184039101526103e8565b909261244790612440610313969461243660808601976000870152565b60ff166020850152565b6040830152565b60608184039101526103e8565b90919061249985612493611a8b611a8660006124746103138860fe6119e8565b611a806124808961141f565b61248d6120246001610b19565b14612376565b85613c82565b946124a781878587866128c1565b80516124ba6124b6600061158c565b9190565b0361250757506125016124ed7f94e4e69590623c0c3d93b01ee6b9d9857c775cc8c798683da66eadacb9c326449461112d565b94866124f860405190565b94859485612419565b0390a290565b612501906125357f17d1a720687fa4f780ab731d79eb3d19c8d37695eab96a627e0ef5a2ea7972149561112d565b958761254060405190565b958695866123ce565b1561255057565b60405162461bcd60e51b815260206004820152601860248201527f476f7665726e6f723a206f6e6c79476f7665726e616e636500000000000000006044820152606490fd5b9291906125b1335b6125ab61173b6105e261174e565b14612549565b6125b961174e565b6125c861173b6105e23061112d565b036125d7575b6102fd9361268b565b6125e2600036612322565b6125ed611465825190565b205b6125f960ff614790565b8190036125ef57506125ce565b909161041c9083908093610509565b909161031392612606565b3d1561263a5761262f3d611818565b903d6000602084013e565b606090565b6126496028611818565b7f476f7665726e6f723a2072656c617920726576657274656420776974686f7574602082015267206d65737361676560c01b604082015290565b61031361263f565b61217c936000939284936126aa6126a160405190565b93849283612615565b03925af16126b6612620565b6126be612683565b91613d01565b906102fd939291612595565b6126e96126e36103139263ffffffff1690565b60e01b90565b6001600160e01b03191690565b50505050612702600090565b5061031363150b7a026126d0565b505050505061271d600090565b5061031363f23a6e616126d0565b5050505050612738600090565b5061031363bc197c816126d0565b6102fd6114e46000611184565b6102fd612746565b6127656020611818565b7f737570706f72743d627261766f2671756f72756d3d666f722c6162737461696e602082015290565b61031361275b565b61031361278e565b906119ea9061112d565b6103139160036127c66127cc936127bd600090565b506101616119e8565b0161279e565b611197565b6103139081565b61031390546127d1565b6103136127f1916127bd600090565b906127fb826127d8565b90612814600261280d600186016127d8565b94016127d8565b91929190565b1561282157565b60405162461bcd60e51b815260206004820152602760248201527f476f7665726e6f72566f74696e6753696d706c653a20766f746520616c726561604482015266191e4818d85cdd60ca1b6064820152608490fd5b60031115610b1457565b906102fd82612876565b61031390612880565b91908201809211611ad357565b906000199061121a565b906128ba61031361124b9261158c565b82546128a0565b6128d491929450610313906101616119e8565b90612906600383016128f46128ef6112a66127cc868561279e565b61281a565b612901600193849261279e565b611f5a565b60009361291561117e8661288a565b60ff82160361293e5750506102fd92612938910191612933836127d8565b612893565b906128aa565b90935061294d61117e8561288a565b60ff82160361296a57506102fd92612938910191612933836127d8565b6002935061297d61137761117e8661288a565b03612995576102fd92612938910191612933836127d8565b60405162461bcd60e51b815260206004820152603560248201527f476f7665726e6f72566f74696e6753696d706c653a20696e76616c69642076616044820152746c756520666f7220656e756d20566f74655479706560581b6064820152608490fd5b906102fd9291612a0b6114e46000611184565b906102fd9291612a4f565b906102fd92916129f8565b906102fd9291612a346114e46000611184565b6102fd9291612a45612a4a92612bde565b612c8c565b612ce9565b906102fd9291612a21565b61031361012f6127d8565b6103136101306127d8565b6103136101316127d8565b612a843361259d565b612a8c61174e565b612a9b61173b6105e23061112d565b03612aaa575b6102fd90612ad9565b612ab5600036612322565b612ac0611465825190565b205b612acc60ff614790565b819003612ac25750612aa1565b6102fd90612bde565b6102fd90612a7b565b612af43361259d565b612afc61174e565b612b0b61173b6105e23061112d565b03612b1a575b6102fd90612b49565b612b25600036612322565b612b30611465825190565b205b612b3c60ff614790565b819003612b325750612b11565b6102fd90612c8c565b6102fd90612aeb565b612b643361259d565b612b6c61174e565b612b7b61173b6105e23061112d565b03612b8a575b6102fd90612bb9565b612b95600036612322565b612ba0611465825190565b205b612bac60ff614790565b819003612ba25750612b81565b6102fd90612ce9565b6102fd90612b5b565b9081526040810192916102fd9160200152565b6102fd90612bed61012f6127d8565b817fc565b045403dc03c2eea82b81a0465edad9e2e7fc4d97e11421c209da93d7a9391612c25612c1c60405190565b92839283612bcb565b0390a161012f6128aa565b15612c3757565b60405162461bcd60e51b815260206004820152602760248201527f476f7665726e6f7253657474696e67733a20766f74696e6720706572696f6420604482015266746f6f206c6f7760c81b6064820152608490fd5b6102fd90612ca4612c9d600061158c565b8211612c30565b612caf6101306127d8565b817f7e3f7f0708a84de9203036abaa450dccc85ad5ff52f78c170f3edb55cf5e882891612cde612c1c60405190565b0390a16101306128aa565b6102fd90612cf86101316127d8565b817fccb45da8d5717e6c4544694297c4ba5cf151d455c9bb0ed4fc7a38411bc0546191612d27612c1c60405190565b0390a16101316128aa565b6102fd90612d436114e46000611184565b6102fd90612d6f565b6102fd90612d32565b6102fd90612d666114e46000611184565b6102fd90613652565b6102fd90612d55565b6334903f7f60e21b6001600160e01b0319821614908115612d97575090565b610313915063104b0d5360e11b90612de0612db56308a571b36126d0565b8318612dc463bd90d49c6126d0565b18612dd2639a802a6d6126d0565b186001600160e01b03191690565b6001600160e01b0319821614918215612e3c575b508115612e21575b8115612e06575090565b61031391506001600160e01b0319166301ffc9a760e01b1490565b6001600160e01b03198116630271189760e51b149150612dfc565b6001600160e01b0319808316911614915038612df4565b8015156102e4565b905051906102fd82612e53565b906020828203126102eb5761031391612e5b565b6040513d6000823e3d90fd5b612e9181613008565b90600490612e9e82610b19565b612ea784610b19565b0361300357612ebb612ec0916101f96119e8565b6127d8565b90612ece610313600061158c565b8203612ed957505090565b909150612f146020612efc612ef76101f8546001600160a01b031690565b61112d565b632ab0f52990612f0b60405190565b93849260e01b90565b82528180612f288888830190815260200190565b03915afa908115612fe057600091612fe5575b5015612f48575050600790565b602090612f61612ef76101f8546001600160a01b031690565b612f8263584b153e612f8f612f7560405190565b9687958694859460e01b90565b8452830190815260200190565b03915afa908115612fe057600091612fb2575b5015612fad57600590565b600290565b612fd3915060203d8111612fd9575b612fcb81836104b3565b810190612e68565b38612fa2565b503d612fc1565b612e7c565b612ffd915060203d8111612fd957612fcb81836104b3565b38612f3b565b505090565b60026130186103138360fe6119e8565b0161302281611197565b6130f35761302f90611184565b6130ed5761303c81611a61565b60006130478161158c565b82146130a85743918211156130a257506130666124b6611ac484611a90565b101561309c57613075816130fa565b908161308c575b501561308757600490565b600390565b6130969150613142565b3861307c565b50600190565b91505090565b60405162461bcd60e51b815260206004820152601d60248201527f476f7665726e6f723a20756e6b6e6f776e2070726f706f73616c2069640000006044820152606490fd5b50600290565b5050600790565b61313d6124b661031361311e6110df613118610313876101616119e8565b95611a61565b936131376002613130600184016127d8565b92016127d8565b90612893565b111590565b610313613151916127bd600090565b6131686124b6610313600061280d600186016127d8565b1190565b610313612ef76101f8546001600160a01b031690565b905051906102fd82610381565b906020828203126102eb5761031391613182565b6020613204916131b1600090565b506131c8612ef76101f8546001600160a01b031690565b6131f66131df612ebb63d45c4435946101f96119e8565b926131e960405190565b9586948593849360e01b90565b835260048301526024820190565b03915afa908115612fe057600091613233575b50613222600161158c565b81036103135750610313600061158c565b613254915060203d811161325a575b61324c81836104b3565b81019061318f565b38613217565b503d613242565b6103169061158c565b906132b06102fd959796946132a2608095613294610f019560a088019088820360008a0152611851565b9086820360208801526118b0565b9084820360408601526118f8565b966060830190613261565b906128ba61031361124b9290565b919461331f61331460a0956133066102fd996132f8610f01979d9c9a9d60c08a01908a820360008c0152611851565b9088820360208a01526118b0565b9086820360408801526118f8565b986060850190613261565b6080830152565b9161338a91613337858383876119ab565b946133418661141f565b9061335a60049261335461202485610b19565b14611f04565b6020613372612ef76101f8546001600160a01b031690565b63f27a0c929061338160405190565b97889260e01b90565b8252818086810103915afa948515612fe057600095613509575b506133bb612ef76101f8546001600160a01b031690565b938660208463b1c5f427976133e96000996133f2888c898d6133dc60405190565b9a8b998a98899860e01b90565b8852870161326a565b03915afa8015612fe05761341a916000916134eb575b506134158a6101f96119e8565b6132bb565b613430612ef76101f8546001600160a01b031690565b91638f2a0bb0833b156102eb5761346a888897938861346196819661345460405190565b9e8f9b8c9a8b9960e01b90565b895288016132c9565b03925af1928315612fe057613486936134be575b505042612893565b611efe7f65431b33ae1566469324739cd3024c5e8d7422fa2c54e71fda14b92fd5e8f1ea916134b460405190565b9182918583612bcb565b816134dd92903d106134e4575b6134d581836104b3565b81019061034b565b388061347e565b503d6134cb565b613503915060203d811161325a5761324c81836104b3565b38613408565b61352291955060203d811161325a5761324c81836104b3565b93386133a4565b50919091613543612ef76101f8546001600160a01b031690565b6000943463e38335e5833b156102eb5761357e6135739389809861356660405190565b9a8b998a98899760e01b90565b87526004870161326a565b03925af18015612fe057613590575050565b816102fd92903d106134e4576134d581836104b3565b6135af3361259d565b6135b761174e565b6135c661173b6105e23061112d565b036135d5575b6102fd90612d66565b6135e0600036612322565b6135eb611465825190565b205b6135f760ff614790565b8190036135ed57506135cc565b6102fd906135a6565b6001600160a01b0390911681526040810192916102fd91602090611d49565b906001600160a01b039061121a565b9061364b61031361124b9261112d565b825461362c565b6102fd9061366c612ef76101f8546001600160a01b031690565b6136758261112d565b7f08f74ea46ef7894f65eabfb5e6e695de773a000b47c529ab559178069b226401916136ac6136a360405190565b9283928361360d565b0390a16101f861363b565b6102fd906136c86114e46000611184565b6102fd906136f4565b6102fd906136b7565b6102fd906136eb6114e46000611184565b6102fd90613b4d565b6102fd906136da565b6103139081906001600160e01b031681565b6101c780546137216124b6600061158c565b0361373257506103136101c66127d8565b61374461373f6103139290565b613e68565b6136fd565b805482101561207d57613763600191600052602060002090565b91020190600090565b610313905b63ffffffff1690565b610313905461376c565b6103139060201c5b6001600160e01b031690565b6103139054613784565b61031360406104d9565b906102fd6137de60006137bd6137a2565b946137d86137cc83830161377a565b63ffffffff1687840152565b01613798565b6001600160e01b03166020840152565b610313906137ac565b6103136103136103139263ffffffff1690565b6101c78054600092919061381d8461158c565b811461388f5761385061384a61385d926138448786019161383e600161158c565b90611abd565b90613749565b506137ee565b9384015163ffffffff1690565b61386783916137f7565b1115613877576103139250613daa565b505060200151610313906001600160e01b03166136fd565b505050506103136101c66127d8565b610313606461158c565b81810292918115918404141715611ad357565b634e487b7160e01b600052601260045260246000fd5b81156138db570490565b6138bb565b61390a60206138fb612ef7610193546001600160a01b031690565b638e539e8c90612f0b60405190565b82526004820185905260249082905afa8015612fe057610313926139409260009261394e575b5061393a9061380a565b906138a8565b61394861389e565b906138d1565b61393a91925061396b9060203d811161325a5761324c81836104b3565b9190613930565b61397b3361259d565b61398361174e565b61399261173b6105e23061112d565b036139a1575b6102fd906136eb565b6139ac600036612322565b6139b7611465825190565b205b6139c360ff614790565b8190036139b95750613998565b6102fd90613972565b156139e057565b60405162461bcd60e51b815260206004820152604360248201527f476f7665726e6f72566f74657351756f72756d4672616374696f6e3a2071756f60448201527f72756d4e756d657261746f72206f7665722071756f72756d44656e6f6d696e616064820152623a37b960e91b608482015260a490fd5b6137716103136103139290565b9063ffffffff9061121a565b6137716103136103139263ffffffff1690565b90613a9361031361124b92613a70565b8254613a64565b9063ffffffff199060201b61121a565b6103139061378c906001600160e01b031682565b90613ace61031361124b92613aaa565b8254613a9a565b6102fd91613b0590602090613af7613af1825163ffffffff1690565b85613a83565b01516001600160e01b031690565b90613abe565b9190613b1a576102fd91613ad5565b611522565b90815491680100000000000000008310156104d45782613b479160016102fd95018155613749565b90613b0b565b613b63613b5b61031361389e565b8211156139d9565b613b6b61370f565b906000613b778161158c565b83141580613c03575b613bc2575b50613b92816101c7613e28565b50507f0553476bf02ef2726e8ce5ced78d63e26e602e4a2257b1f559418e24b46339979161132c612c1c60405190565b613bfd906101c78101613bf8613bd78661456a565b6137de613be26137a2565b94613bec81613a57565b63ffffffff1690860152565b613b1f565b38613b85565b506101c7810154613c166124b68361158c565b14613b80565b6102fd90613c2d6114e46000611184565b6102fd90613c5c565b6102fd90613c1c565b6102fd90613c506114e46000611184565b6102fd9061019361363b565b6102fd90613c3f565b6001600160a01b0390911681526040810192916102fd9160200152565b6020919250613c8f600090565b50613ca6612ef7610193546001600160a01b031690565b613cba633a46b1a8613cc5612f7560405190565b845260048401613c65565b03915afa908115612fe057600091613cdb575090565b610313915060203d811161325a5761324c81836104b3565b3b6131686124b6600061158c565b90919015613d0d575090565b8151613d1c6124b6600061158c565b1115613d2b5750805190602001fd5b61121190613d3860405190565b62461bcd60e51b815291829160048301610420565b15613d5457565b60405162461bcd60e51b815280611211600482016020808252818101527f436865636b706f696e74733a20626c6f636b206e6f7420796574206d696e6564604082015260600190565b61378c6103136103139290565b613dca61031392613db9600090565b50613dc5438210613d4d565b614663565b906000810190613def613ddb835490565b600093613de78561158c565b958691614039565b928303613e0157506137449150613d9d565b61374492613e1c6124b6846137d894019261383e600161158c565b60005260206000200190565b613e5b613e629392600061031393613e3e600090565b500190613e56611ac4613e5043614663565b9261456a565b613ef6565b93906136fd565b926136fd565b805490600091613e778361158c565b816000939103613e8d5750505061031390613d9d565b610313935090613e1c6124b6846137d894019261383e600161158c565b15613eb157565b60405162461bcd60e51b815260206004820152601760248201527f436865636b706f696e743a20696e76616c6964206b65790000000000000000006044820152606490fd5b91929190815490846000613f098161158c565b841115613ffc579060209392916124b695600194613f47613f42613f35613f2f8961158c565b84611abd565b8460005260206000200190565b6137ee565b95613f85848801613f7b613f5f825163ffffffff1690565b613f7463ffffffff8b165b9163ffffffff1690565b1115613eaa565b5163ffffffff1690565b613f9463ffffffff8816613f6a565b03613fc257613af79550613fbc929161383e613faf9261158c565b9060005260206000200190565b01613abe565b5050909150613fe4613ff793613fd66137a2565b9384019063ffffffff169052565b6001600160e01b03881682860152613b1f565b613af7565b925050614034906124b6936140206140126137a2565b63ffffffff90931685840152565b6001600160e01b0387166020830152613b1f565b613d9d565b93919092614045600090565b505b808210156140af5761405981836144ef565b90816140776000614071838a60005260206000200190565b0161377a565b61408663ffffffff8816613f6a565b1115614096575050915b91614047565b909392506140a99150613137600161158c565b90614090565b925050915090565b6000610313916140c5600090565b5001516001600160401b031690565b906001600160401b039061121a565b6119fd610313610313926001600160401b031690565b9061410961031361124b926140e3565b82546140d4565b6102fd91906140f9565b6119fd6103136103139290565b6000614135916140c5600090565b614142611c44600061411a565b1490565b91610313939161415e93614158600090565b506142f7565b91909161417a565b60051115610b1457565b906102fd82614166565b6141846000614170565b61418d82614170565b036141955750565b61419f6001614170565b6141a882614170565b036141f25760405162461bcd60e51b815260206004820152601860248201527f45434453413a20696e76616c6964207369676e617475726500000000000000006044820152606490fd5b6141fc6002614170565b61420582614170565b0361424f5760405162461bcd60e51b815260206004820152601f60248201527f45434453413a20696e76616c6964207369676e6174757265206c656e677468006044820152606490fd5b61426261425c6003614170565b91614170565b1461426957565b60405162461bcd60e51b815260206004820152602260248201527f45434453413a20696e76616c6964207369676e6174757265202773272076616c604482015261756560f01b6064820152608490fd5b6103139061158c565b6105e26103136103139290565b610313906142c2565b610f016102fd94612440606094989795612436608086019a6000870152565b919291614303836142b9565b61432f6124b67f7fffffffffffffffffffffffffffffff5d576e7357a4501ddfe92f46681b20a061158c565b116143935761434f60009360209561434660405190565b948594856142d8565b838052039060015afa15612fe0576000519060009161436d836142cf565b6001600160a01b0381166001600160a01b0383161461438b57509190565b925050600190565b505050506143a160006142cf565b90600390565b906102fd916143b96114e46000611184565b906143ee6143da6143ca6102fd9490565b6143d5611465825190565b209290565b6143e5611465825190565b209160656132bb565b60666132bb565b906102fd916143a7565b6103139061440b61444c565b614433565b602080939261442d61182561041c9461190160f01b815260020190565b01918252565b6119cd916119d991604051938492602084019283614410565b6103137f8b73c3c69bb8fe3d512ecc4cf759cc79239f7b179b0ffacaa9a75d522b39400f6144786144db565b6144806144e5565b916144b1565b909594926102fd946122c8611d49926144aa6080966122b760a088019c6000890152565b6040850152565b6119d991906119cd466144c33061112d565b906144cd60405190565b968795602087019586614486565b61031360656127d8565b61031360666127d8565b613137610313926144fe600090565b508083169218613948600261158c565b1561451557565b60405162461bcd60e51b815260206004820152602760248201527f53616665436173743a2076616c756520646f65736e27742066697420696e20326044820152663234206269747360c81b6064820152608490fd5b610313906140346145816001600160e01b036136fd565b82111561450e565b1561459057565b60405162461bcd60e51b815260206004820152602660248201527f53616665436173743a2076616c756520646f65736e27742066697420696e203660448201526534206269747360d01b6064820152608490fd5b610313906146036145fb6001600160401b03611a4b565b821115614589565b61411a565b1561460f57565b60405162461bcd60e51b815260206004820152602660248201527f53616665436173743a2076616c756520646f65736e27742066697420696e203360448201526532206269747360d01b6064820152608490fd5b6103139061467f61467763ffffffff6137f7565b821115614608565b613a57565b6103139060801c5b600f0b90565b6103139054614684565b61468c61031361031392600f0b90565b906119ea9061469c565b61468c6103136103139290565b906fffffffffffffffffffffffffffffffff199060801b61121a565b906146ef61031361124b9261469c565b82546146c3565b61472d600161471c6102fd94613415600086019561471387614692565b948591016146ac565b61472660016146b6565b01600f0b90565b906146df565b6103139061468c565b6103139054614733565b91906115aa61031361124b9390565b6102fd91600091614746565b906fffffffffffffffffffffffffffffffff9061121a565b9061478961031361124b9261469c565b8254614761565b9061479a8261480c565b6147da576102fd826147d460016147b08361473c565b95019461471c60006147cf836147c9612ebb828c6146ac565b996146ac565b614755565b90614779565b604051631ed9509560e11b8152600490fd5b6102fd9060006147fb816146b6565b91016148078282614779565b6146df565b61482b61482461468c61481e84614692565b9361473c565b91600f0b90565b13159056fea26469706673582212205f61a4398c8d83cf512826890dee548d118211671ab9d1d83c4e94ebdaf43fb364736f6c63430008120033",
  "linkReferences": {},
  "deployedLinkReferences": {}
}